{
  "contractName": "EnglishAuctionNFT",
  "abi": [
    {
      "anonymous": false,
      "inputs": [
        {
          "indexed": false,
          "internalType": "address",
          "name": "sender",
          "type": "address"
        },
        {
          "indexed": false,
          "internalType": "uint256",
          "name": "index",
          "type": "uint256"
        },
        {
          "indexed": false,
          "internalType": "uint256",
          "name": "amount1",
          "type": "uint256"
        }
      ],
      "name": "Bid",
      "type": "event"
    },
    {
      "anonymous": false,
      "inputs": [
        {
          "indexed": false,
          "internalType": "address",
          "name": "sender",
          "type": "address"
        },
        {
          "indexed": false,
          "internalType": "uint256",
          "name": "index",
          "type": "uint256"
        }
      ],
      "name": "Claimed",
      "type": "event"
    },
    {
      "anonymous": false,
      "inputs": [
        {
          "components": [
            {
              "internalType": "address payable",
              "name": "creator",
              "type": "address"
            },
            {
              "internalType": "string",
              "name": "name",
              "type": "string"
            },
            {
              "internalType": "address",
              "name": "token0",
              "type": "address"
            },
            {
              "internalType": "address",
              "name": "token1",
              "type": "address"
            },
            {
              "internalType": "uint256",
              "name": "tokenId",
              "type": "uint256"
            },
            {
              "internalType": "uint256",
              "name": "amountMin1",
              "type": "uint256"
            },
            {
              "internalType": "uint256",
              "name": "amountMinIncr1",
              "type": "uint256"
            },
            {
              "internalType": "uint256",
              "name": "confirmTime",
              "type": "uint256"
            },
            {
              "internalType": "uint256",
              "name": "closeAt",
              "type": "uint256"
            }
          ],
          "indexed": false,
          "internalType": "struct EnglishAuctionNFT.Pool",
          "name": "pool",
          "type": "tuple"
        },
        {
          "indexed": false,
          "internalType": "uint256",
          "name": "index",
          "type": "uint256"
        }
      ],
      "name": "Created",
      "type": "event"
    },
    {
      "anonymous": false,
      "inputs": [
        {
          "indexed": true,
          "internalType": "address",
          "name": "previousOwner",
          "type": "address"
        },
        {
          "indexed": true,
          "internalType": "address",
          "name": "newOwner",
          "type": "address"
        }
      ],
      "name": "OwnershipTransferred",
      "type": "event"
    },
    {
      "inputs": [
        {
          "internalType": "uint256",
          "name": "",
          "type": "uint256"
        }
      ],
      "name": "bidCountP",
      "outputs": [
        {
          "internalType": "uint256",
          "name": "",
          "type": "uint256"
        }
      ],
      "stateMutability": "view",
      "type": "function"
    },
    {
      "inputs": [
        {
          "internalType": "uint256",
          "name": "",
          "type": "uint256"
        }
      ],
      "name": "creatorClaimedP",
      "outputs": [
        {
          "internalType": "bool",
          "name": "",
          "type": "bool"
        }
      ],
      "stateMutability": "view",
      "type": "function"
    },
    {
      "inputs": [
        {
          "internalType": "uint256",
          "name": "",
          "type": "uint256"
        }
      ],
      "name": "currentBidderAmount1P",
      "outputs": [
        {
          "internalType": "uint256",
          "name": "",
          "type": "uint256"
        }
      ],
      "stateMutability": "view",
      "type": "function"
    },
    {
      "inputs": [
        {
          "internalType": "uint256",
          "name": "",
          "type": "uint256"
        }
      ],
      "name": "currentBidderP",
      "outputs": [
        {
          "internalType": "address payable",
          "name": "",
          "type": "address"
        }
      ],
      "stateMutability": "view",
      "type": "function"
    },
    {
      "inputs": [
        {
          "internalType": "bytes32",
          "name": "key",
          "type": "bytes32"
        },
        {
          "internalType": "address",
          "name": "addr",
          "type": "address"
        }
      ],
      "name": "getConfig",
      "outputs": [
        {
          "internalType": "uint256",
          "name": "",
          "type": "uint256"
        }
      ],
      "stateMutability": "view",
      "type": "function"
    },
    {
      "inputs": [
        {
          "internalType": "bytes32",
          "name": "key",
          "type": "bytes32"
        }
      ],
      "name": "getConfig",
      "outputs": [
        {
          "internalType": "uint256",
          "name": "",
          "type": "uint256"
        }
      ],
      "stateMutability": "view",
      "type": "function"
    },
    {
      "inputs": [
        {
          "internalType": "bytes32",
          "name": "key",
          "type": "bytes32"
        },
        {
          "internalType": "uint256",
          "name": "index",
          "type": "uint256"
        }
      ],
      "name": "getConfig",
      "outputs": [
        {
          "internalType": "uint256",
          "name": "",
          "type": "uint256"
        }
      ],
      "stateMutability": "view",
      "type": "function"
    },
    {
      "inputs": [
        {
          "internalType": "address",
          "name": "",
          "type": "address"
        },
        {
          "internalType": "uint256",
          "name": "",
          "type": "uint256"
        }
      ],
      "name": "myBidP",
      "outputs": [
        {
          "internalType": "uint256",
          "name": "",
          "type": "uint256"
        }
      ],
      "stateMutability": "view",
      "type": "function"
    },
    {
      "inputs": [
        {
          "internalType": "address",
          "name": "",
          "type": "address"
        },
        {
          "internalType": "uint256",
          "name": "",
          "type": "uint256"
        }
      ],
      "name": "myBidderAmount1P",
      "outputs": [
        {
          "internalType": "uint256",
          "name": "",
          "type": "uint256"
        }
      ],
      "stateMutability": "view",
      "type": "function"
    },
    {
      "inputs": [
        {
          "internalType": "address",
          "name": "",
          "type": "address"
        },
        {
          "internalType": "uint256",
          "name": "",
          "type": "uint256"
        }
      ],
      "name": "myClaimedP",
      "outputs": [
        {
          "internalType": "bool",
          "name": "",
          "type": "bool"
        }
      ],
      "stateMutability": "view",
      "type": "function"
    },
    {
      "inputs": [
        {
          "internalType": "address",
          "name": "",
          "type": "address"
        }
      ],
      "name": "myCreatedP",
      "outputs": [
        {
          "internalType": "uint256",
          "name": "",
          "type": "uint256"
        }
      ],
      "stateMutability": "view",
      "type": "function"
    },
    {
      "inputs": [
        {
          "internalType": "string",
          "name": "",
          "type": "string"
        }
      ],
      "name": "myNameP",
      "outputs": [
        {
          "internalType": "uint256",
          "name": "",
          "type": "uint256"
        }
      ],
      "stateMutability": "view",
      "type": "function"
    },
    {
      "inputs": [],
      "name": "owner",
      "outputs": [
        {
          "internalType": "address",
          "name": "",
          "type": "address"
        }
      ],
      "stateMutability": "view",
      "type": "function"
    },
    {
      "inputs": [
        {
          "internalType": "uint256",
          "name": "",
          "type": "uint256"
        }
      ],
      "name": "pools",
      "outputs": [
        {
          "internalType": "address payable",
          "name": "creator",
          "type": "address"
        },
        {
          "internalType": "string",
          "name": "name",
          "type": "string"
        },
        {
          "internalType": "address",
          "name": "token0",
          "type": "address"
        },
        {
          "internalType": "address",
          "name": "token1",
          "type": "address"
        },
        {
          "internalType": "uint256",
          "name": "tokenId",
          "type": "uint256"
        },
        {
          "internalType": "uint256",
          "name": "amountMin1",
          "type": "uint256"
        },
        {
          "internalType": "uint256",
          "name": "amountMinIncr1",
          "type": "uint256"
        },
        {
          "internalType": "uint256",
          "name": "confirmTime",
          "type": "uint256"
        },
        {
          "internalType": "uint256",
          "name": "closeAt",
          "type": "uint256"
        }
      ],
      "stateMutability": "view",
      "type": "function"
    },
    {
      "inputs": [],
      "name": "renounceOwnership",
      "outputs": [],
      "stateMutability": "nonpayable",
      "type": "function"
    },
    {
      "inputs": [
        {
          "internalType": "bytes32",
          "name": "key",
          "type": "bytes32"
        },
        {
          "internalType": "uint256",
          "name": "value",
          "type": "uint256"
        }
      ],
      "name": "setConfig",
      "outputs": [],
      "stateMutability": "nonpayable",
      "type": "function"
    },
    {
      "inputs": [
        {
          "internalType": "bytes32",
          "name": "key",
          "type": "bytes32"
        },
        {
          "internalType": "address",
          "name": "addr",
          "type": "address"
        },
        {
          "internalType": "uint256",
          "name": "value",
          "type": "uint256"
        }
      ],
      "name": "setConfig",
      "outputs": [],
      "stateMutability": "nonpayable",
      "type": "function"
    },
    {
      "inputs": [
        {
          "internalType": "bytes32",
          "name": "key",
          "type": "bytes32"
        },
        {
          "internalType": "uint256",
          "name": "index",
          "type": "uint256"
        },
        {
          "internalType": "uint256",
          "name": "value",
          "type": "uint256"
        }
      ],
      "name": "setConfig",
      "outputs": [],
      "stateMutability": "nonpayable",
      "type": "function"
    },
    {
      "inputs": [
        {
          "internalType": "address",
          "name": "newOwner",
          "type": "address"
        }
      ],
      "name": "transferOwnership",
      "outputs": [],
      "stateMutability": "nonpayable",
      "type": "function"
    },
    {
      "inputs": [
        {
          "internalType": "address",
          "name": "_GlfAddress",
          "type": "address"
        }
      ],
      "name": "initialize",
      "outputs": [],
      "stateMutability": "nonpayable",
      "type": "function"
    },
    {
      "inputs": [
        {
          "internalType": "string",
          "name": "name",
          "type": "string"
        },
        {
          "internalType": "address",
          "name": "token0",
          "type": "address"
        },
        {
          "internalType": "uint256",
          "name": "tokenId",
          "type": "uint256"
        },
        {
          "internalType": "uint256",
          "name": "amountMin1",
          "type": "uint256"
        },
        {
          "internalType": "uint256",
          "name": "amountMinIncr1",
          "type": "uint256"
        },
        {
          "internalType": "uint256",
          "name": "confirmTime",
          "type": "uint256"
        }
      ],
      "name": "create",
      "outputs": [],
      "stateMutability": "nonpayable",
      "type": "function"
    },
    {
      "inputs": [
        {
          "internalType": "uint256",
          "name": "index",
          "type": "uint256"
        },
        {
          "internalType": "uint256",
          "name": "amount1",
          "type": "uint256"
        }
      ],
      "name": "bid",
      "outputs": [],
      "stateMutability": "payable",
      "type": "function"
    },
    {
      "inputs": [
        {
          "internalType": "uint256",
          "name": "index",
          "type": "uint256"
        }
      ],
      "name": "creatorClaim",
      "outputs": [],
      "stateMutability": "nonpayable",
      "type": "function"
    },
    {
      "inputs": [
        {
          "internalType": "uint256",
          "name": "index",
          "type": "uint256"
        }
      ],
      "name": "bidderClaim",
      "outputs": [],
      "stateMutability": "nonpayable",
      "type": "function"
    },
    {
      "inputs": [
        {
          "internalType": "address",
          "name": "",
          "type": "address"
        },
        {
          "internalType": "address",
          "name": "",
          "type": "address"
        },
        {
          "internalType": "uint256",
          "name": "",
          "type": "uint256"
        },
        {
          "internalType": "bytes",
          "name": "",
          "type": "bytes"
        }
      ],
      "name": "onERC721Received",
      "outputs": [
        {
          "internalType": "bytes4",
          "name": "",
          "type": "bytes4"
        }
      ],
      "stateMutability": "nonpayable",
      "type": "function"
    },
    {
      "inputs": [],
      "name": "getPoolCount",
      "outputs": [
        {
          "internalType": "uint256",
          "name": "",
          "type": "uint256"
        }
      ],
      "stateMutability": "view",
      "type": "function"
    },
    {
      "inputs": [
        {
          "internalType": "uint256",
          "name": "index",
          "type": "uint256"
        }
      ],
      "name": "currentBidderAmount",
      "outputs": [
        {
          "internalType": "uint256",
          "name": "",
          "type": "uint256"
        }
      ],
      "stateMutability": "view",
      "type": "function"
    },
    {
      "inputs": [
        {
          "internalType": "address",
          "name": "target",
          "type": "address"
        }
      ],
      "name": "getMyBidCount",
      "outputs": [
        {
          "internalType": "uint256",
          "name": "",
          "type": "uint256"
        }
      ],
      "stateMutability": "view",
      "type": "function"
    },
    {
      "inputs": [],
      "name": "getTxFeeRatio",
      "outputs": [
        {
          "internalType": "uint256",
          "name": "",
          "type": "uint256"
        }
      ],
      "stateMutability": "view",
      "type": "function"
    },
    {
      "inputs": [],
      "name": "getGlfAddress",
      "outputs": [
        {
          "internalType": "address",
          "name": "",
          "type": "address"
        }
      ],
      "stateMutability": "view",
      "type": "function"
    }
  ],
  "bytecode": "0x608060405234801561001057600080fd5b50614e2a806100206000396000f3fe6080604052600436106101cd5760003560e01c80638695f2d2116100f7578063b21544f311610095578063ddf2be3f11610064578063ddf2be3f14610705578063e87ba7aa1461072e578063f2fde38b1461076b578063f5639ff514610794576101cd565b8063b21544f314610639578063bbe7180d14610662578063c4d66de81461069f578063d286bea5146106c8576101cd565b80638ec872e3116100d15780638ec872e31461054f5780638eec5d701461058c5780639d6ce84b146105b7578063ac4afa38146105f4576101cd565b80638695f2d2146104aa5780638d32b658146104e75780638da5cb5b14610524576101cd565b8063507a0a3d1161016f57806364cc79bd1161013e57806364cc79bd146103dc5780636dd5b69d14610419578063715018a614610456578063864ce6b21461046d576101cd565b8063507a0a3d1461031d57806352665f471461035a578063598647f81461039757806360de1d61146103b3576101cd565b806328a42981116101ab57806328a429811461026357806329402cf01461028e57806329a65f8f146102b75780632ad540ed146102f4576101cd565b8063150b7a02146101d257806315fe96dc1461020f5780631bb2dd6c14610238575b600080fd5b3480156101de57600080fd5b506101f960048036038101906101f4919061371a565b6107d1565b6040516102069190614810565b60405180910390f35b34801561021b57600080fd5b50610236600480360381019061023191906138b3565b6107e6565b005b34801561024457600080fd5b5061024d610884565b60405161025a9190614bbd565b60405180910390f35b34801561026f57600080fd5b506102786108bf565b60405161028591906145d4565b60405180910390f35b34801561029a57600080fd5b506102b560048036038101906102b0919061393e565b6108fa565b005b3480156102c357600080fd5b506102de60048036038101906102d99190613a26565b610fec565b6040516102eb9190614bbd565b60405180910390f35b34801561030057600080fd5b5061031b60048036038101906103169190613a26565b611004565b005b34801561032957600080fd5b50610344600480360381019061033f919061379a565b6115e7565b6040516103519190614bbd565b60405180910390f35b34801561036657600080fd5b50610381600480360381019061037c9190613828565b611615565b60405161038e9190614bbd565b60405180910390f35b6103b160048036038101906103ac9190613a78565b611651565b005b3480156103bf57600080fd5b506103da60048036038101906103d59190613a26565b611bb9565b005b3480156103e857600080fd5b5061040360048036038101906103fe9190613a26565b6120ce565b6040516104109190614bbd565b60405180910390f35b34801561042557600080fd5b50610440600480360381019061043b91906137ff565b6120e6565b60405161044d9190614bbd565b60405180910390f35b34801561046257600080fd5b5061046b612103565b005b34801561047957600080fd5b50610494600480360381019061048f91906136f1565b612254565b6040516104a19190614bbd565b60405180910390f35b3480156104b657600080fd5b506104d160048036038101906104cc9190613a26565b6122a0565b6040516104de9190614bbd565b60405180910390f35b3480156104f357600080fd5b5061050e6004803603810190610509919061379a565b61256a565b60405161051b9190614bbd565b60405180910390f35b34801561053057600080fd5b5061053961258f565b60405161054691906145d4565b60405180910390f35b34801561055b57600080fd5b50610576600480360381019061057191906138b3565b6125b9565b6040516105839190614bbd565b60405180910390f35b34801561059857600080fd5b506105a16125df565b6040516105ae9190614bbd565b60405180910390f35b3480156105c357600080fd5b506105de60048036038101906105d991906139e5565b6125ec565b6040516105eb9190614bbd565b60405180910390f35b34801561060057600080fd5b5061061b60048036038101906106169190613a26565b61261a565b60405161063099989796959493929190614641565b60405180910390f35b34801561064557600080fd5b50610660600480360381019061065b9190613864565b61276d565b005b34801561066e57600080fd5b50610689600480360381019061068491906136f1565b61282a565b6040516106969190614bbd565b60405180910390f35b3480156106ab57600080fd5b506106c660048036038101906106c191906136f1565b612842565b005b3480156106d457600080fd5b506106ef60048036038101906106ea919061379a565b6129c1565b6040516106fc91906147f5565b60405180910390f35b34801561071157600080fd5b5061072c600480360381019061072791906138ef565b6129f0565b005b34801561073a57600080fd5b5061075560048036038101906107509190613a26565b612a97565b60405161076291906147f5565b60405180910390f35b34801561077757600080fd5b50610792600480360381019061078d91906136f1565b612ab7565b005b3480156107a057600080fd5b506107bb60048036038101906107b69190613a26565b612c77565b6040516107c891906145ef565b60405180910390f35b600063150b7a0260e01b905095945050505050565b3373ffffffffffffffffffffffffffffffffffffffff16603360009054906101000a900473ffffffffffffffffffffffffffffffffffffffff1673ffffffffffffffffffffffffffffffffffffffff1614610876576040517f08c379a000000000000000000000000000000000000000000000000000000000815260040161086d90614a4d565b60405180910390fd5b6108808282612caa565b5050565b6000606560007f5478466565526174696f00000000000000000000000000000000000000000000815260200190815260200160002054905090565b6000606560007f476c664164647265737300000000000000000000000000000000000000000000815260200190815260200160002054905090565b336000606a60008373ffffffffffffffffffffffffffffffffffffffff1673ffffffffffffffffffffffffffffffffffffffff16815260200190815260200160002054111561097e576040517f08c379a00000000000000000000000000000000000000000000000000000000081526004016109759061492d565b60405180910390fd5b87878080601f016020809104026020016040519081016040528093929190818152602001838380828437600081840152601f19601f820116905080830192505050505050506000606b826040516109d591906145bd565b9081526020016040518091039020541115610afc5760006001606b836040516109fe91906145bd565b9081526020016040518091039020540390506000606a600060668481548110610a2357fe5b906000526020600020906009020160000160009054906101000a900473ffffffffffffffffffffffffffffffffffffffff1673ffffffffffffffffffffffffffffffffffffffff1673ffffffffffffffffffffffffffffffffffffffff16815260200190815260200160002054118015610aba57504260668281548110610aa657fe5b906000526020600020906009020160080154115b15610afa576040517f08c379a0000000000000000000000000000000000000000000000000000000008152600401610af19061486d565b60405180910390fd5b505b60003390506000851415610b45576040517f08c379a0000000000000000000000000000000000000000000000000000000008152600401610b3c906149ad565b60405180910390fd5b61012c841015610b8a576040517f08c379a0000000000000000000000000000000000000000000000000000000008152600401610b819061484d565b60405180910390fd5b62015180841115610bd0576040517f08c379a0000000000000000000000000000000000000000000000000000000008152600401610bc7906148ed565b60405180910390fd5b600f8a8a90501115610c17576040517f08c379a0000000000000000000000000000000000000000000000000000000008152600401610c0e906149ed565b60405180910390fd5b6000610c216108bf565b90508873ffffffffffffffffffffffffffffffffffffffff166342842e0e83308b6040518463ffffffff1660e01b8152600401610c609392919061460a565b600060405180830381600087803b158015610c7a57600080fd5b505af1158015610c8e573d6000803e3d6000fd5b50505050610c9a61346d565b82816000019073ffffffffffffffffffffffffffffffffffffffff16908173ffffffffffffffffffffffffffffffffffffffff16815250508b8b8080601f016020809104026020016040519081016040528093929190818152602001838380828437600081840152601f19601f82011690508083019250505050505050816020018190525089816040019073ffffffffffffffffffffffffffffffffffffffff16908173ffffffffffffffffffffffffffffffffffffffff168152505081816060019073ffffffffffffffffffffffffffffffffffffffff16908173ffffffffffffffffffffffffffffffffffffffff168152505088816080018181525050878160a0018181525050868160c0018181525050858160e0018181525050610dca8642612ce190919063ffffffff16565b81610100018181525050606681908060018154018082558091505060019003906000526020600020906009020160009091909190915060008201518160000160006101000a81548173ffffffffffffffffffffffffffffffffffffffff021916908373ffffffffffffffffffffffffffffffffffffffff1602179055506020820151816001019080519060200190610e639291906134fb565b5060408201518160020160006101000a81548173ffffffffffffffffffffffffffffffffffffffff021916908373ffffffffffffffffffffffffffffffffffffffff16021790555060608201518160030160006101000a81548173ffffffffffffffffffffffffffffffffffffffff021916908373ffffffffffffffffffffffffffffffffffffffff1602179055506080820151816004015560a0820151816005015560c0820151816006015560e0820151816007015561010082015181600801555050606680549050606a60008573ffffffffffffffffffffffffffffffffffffffff1673ffffffffffffffffffffffffffffffffffffffff16815260200190815260200160002081905550606680549050606b8d8d604051610f889291906145a4565b908152602001604051809103902081905550600060668054905090507f5df3171ca1c576c52dbe66186f579a4726acd9e7a117b33ec1782bcd67285c4b8282604051610fd5929190614b8d565b60405180910390a150505050505050505050505050565b606f6020528060005260406000206000915090505481565b80606680549050811061104c576040517f08c379a00000000000000000000000000000000000000000000000000000000081526004016110439061494d565b60405180910390fd5b81426066828154811061105b57fe5b90600052602060002090600902016008015411156110ae576040517f08c379a00000000000000000000000000000000000000000000000000000000081526004016110a590614b6d565b60405180910390fd5b60003390506110bd8185612d36565b6110fc576040517f08c379a00000000000000000000000000000000000000000000000000000000081526004016110f39061490d565b60405180910390fd5b6067600085815260200190815260200160002060009054906101000a900460ff161561115d576040517f08c379a0000000000000000000000000000000000000000000000000000000008152600401611154906149cd565b60405180910390fd5b60016067600086815260200190815260200160002060006101000a81548160ff021916908315150217905550606a60008273ffffffffffffffffffffffffffffffffffffffff1673ffffffffffffffffffffffffffffffffffffffff168152602001908152602001600020600090556111d461346d565b606685815481106111e157fe5b9060005260206000209060090201604051806101200160405290816000820160009054906101000a900473ffffffffffffffffffffffffffffffffffffffff1673ffffffffffffffffffffffffffffffffffffffff1673ffffffffffffffffffffffffffffffffffffffff168152602001600182018054600181600116156101000203166002900480601f0160208091040260200160405190810160405280929190818152602001828054600181600116156101000203166002900480156112ea5780601f106112bf576101008083540402835291602001916112ea565b820191906000526020600020905b8154815290600101906020018083116112cd57829003601f168201915b505050505081526020016002820160009054906101000a900473ffffffffffffffffffffffffffffffffffffffff1673ffffffffffffffffffffffffffffffffffffffff1673ffffffffffffffffffffffffffffffffffffffff1681526020016003820160009054906101000a900473ffffffffffffffffffffffffffffffffffffffff1673ffffffffffffffffffffffffffffffffffffffff1673ffffffffffffffffffffffffffffffffffffffff168152602001600482015481526020016005820154815260200160068201548152602001600782015481526020016008820154815250509050600073ffffffffffffffffffffffffffffffffffffffff166068600087815260200190815260200160002060009054906101000a900473ffffffffffffffffffffffffffffffffffffffff1673ffffffffffffffffffffffffffffffffffffffff161461152b576000606960008781526020019081526020016000205490506000811115611525576000611491670de0b6b3a7640000611483611474610884565b85612dbe90919063ffffffff16565b612e2e90919063ffffffff16565b905060006114a88284612e7890919063ffffffff16565b905060008111156114e7576114e6846000015182866060015173ffffffffffffffffffffffffffffffffffffffff16612ec29092919063ffffffff16565b5b60008211156115225761152161dead83866060015173ffffffffffffffffffffffffffffffffffffffff16612ec29092919063ffffffff16565b5b50505b506115a7565b806040015173ffffffffffffffffffffffffffffffffffffffff166342842e0e30836000015184608001516040518463ffffffff1660e01b81526004016115749392919061475e565b600060405180830381600087803b15801561158e57600080fd5b505af11580156115a2573d6000803e3d6000fd5b505050505b7fd8138f8a3f377c5259ca548e70e4c2de94f129f5a11036a15b69513cba2b426a82866040516115d89291906146d5565b60405180910390a15050505050565b606c602052816000526040600020818154811061160057fe5b90600052602060002001600091509150505481565b6000606560008373ffffffffffffffffffffffffffffffffffffffff168560001c1860001b815260200190815260200160002054905092915050565b816066805490508110611699576040517f08c379a00000000000000000000000000000000000000000000000000000000081526004016116909061494d565b60405180910390fd5b8242606682815481106116a857fe5b906000526020600020906009020160080154116116fa576040517f08c379a00000000000000000000000000000000000000000000000000000000081526004016116f19061498d565b60405180910390fd5b600033905060006066868154811061170e57fe5b906000526020600020906009020190508173ffffffffffffffffffffffffffffffffffffffff168160000160009054906101000a900473ffffffffffffffffffffffffffffffffffffffff1673ffffffffffffffffffffffffffffffffffffffff1614156117b1576040517f08c379a00000000000000000000000000000000000000000000000000000000081526004016117a890614a2d565b60405180910390fd5b60008514156117f5576040517f08c379a00000000000000000000000000000000000000000000000000000000081526004016117ec906148ad565b60405180910390fd5b806005015485101561183c576040517f08c379a000000000000000000000000000000000000000000000000000000000815260040161183390614a8d565b60405180910390fd5b611845866122a0565b851015611887576040517f08c379a000000000000000000000000000000000000000000000000000000000815260040161187e90614aed565b60405180910390fd5b60008160030160009054906101000a900473ffffffffffffffffffffffffffffffffffffffff1690506118dd8330888473ffffffffffffffffffffffffffffffffffffffff16612f48909392919063ffffffff16565b6119093060008373ffffffffffffffffffffffffffffffffffffffff16612fd19092919063ffffffff16565b611920826007015442612ce190919063ffffffff16565b8260080181905550600073ffffffffffffffffffffffffffffffffffffffff166068600089815260200190815260200160002060009054906101000a900473ffffffffffffffffffffffffffffffffffffffff1673ffffffffffffffffffffffffffffffffffffffff16141580156119ab575060006069600089815260200190815260200160002054115b15611a2257611a216068600089815260200190815260200160002060009054906101000a900473ffffffffffffffffffffffffffffffffffffffff16606960008a8152602001908152602001600020548373ffffffffffffffffffffffffffffffffffffffff16612ec29092919063ffffffff16565b5b826068600089815260200190815260200160002060006101000a81548173ffffffffffffffffffffffffffffffffffffffff021916908373ffffffffffffffffffffffffffffffffffffffff1602179055508560696000898152602001908152602001600020819055506001606f60008981526020019081526020016000205401606f600089815260200190815260200160002081905550606c60008473ffffffffffffffffffffffffffffffffffffffff1673ffffffffffffffffffffffffffffffffffffffff16815260200190815260200160002087908060018154018082558091505060019003906000526020600020016000909190919091505585606d60008573ffffffffffffffffffffffffffffffffffffffff1673ffffffffffffffffffffffffffffffffffffffff1681526020019081526020016000206000898152602001908152602001600020819055507f19421268847f42dd61705778018ddfc43bcdce8517e7a630acb12f122c709481838888604051611ba8939291906146fe565b60405180910390a150505050505050565b806066805490508110611c01576040517f08c379a0000000000000000000000000000000000000000000000000000000008152600401611bf89061494d565b60405180910390fd5b814260668281548110611c1057fe5b9060005260206000209060090201600801541115611c63576040517f08c379a0000000000000000000000000000000000000000000000000000000008152600401611c5a90614b6d565b60405180910390fd5b60003390508073ffffffffffffffffffffffffffffffffffffffff166068600086815260200190815260200160002060009054906101000a900473ffffffffffffffffffffffffffffffffffffffff1673ffffffffffffffffffffffffffffffffffffffff1614611d09576040517f08c379a0000000000000000000000000000000000000000000000000000000008152600401611d0090614aad565b60405180910390fd5b606e60008273ffffffffffffffffffffffffffffffffffffffff1673ffffffffffffffffffffffffffffffffffffffff168152602001908152602001600020600085815260200190815260200160002060009054906101000a900460ff1615611da7576040517f08c379a0000000000000000000000000000000000000000000000000000000008152600401611d9e90614acd565b60405180910390fd5b6001606e60008373ffffffffffffffffffffffffffffffffffffffff1673ffffffffffffffffffffffffffffffffffffffff168152602001908152602001600020600086815260200190815260200160002060006101000a81548160ff021916908315150217905550611e1861346d565b60668581548110611e2557fe5b9060005260206000209060090201604051806101200160405290816000820160009054906101000a900473ffffffffffffffffffffffffffffffffffffffff1673ffffffffffffffffffffffffffffffffffffffff1673ffffffffffffffffffffffffffffffffffffffff168152602001600182018054600181600116156101000203166002900480601f016020809104026020016040519081016040528092919081815260200182805460018160011615610100020316600290048015611f2e5780601f10611f0357610100808354040283529160200191611f2e565b820191906000526020600020905b815481529060010190602001808311611f1157829003601f168201915b505050505081526020016002820160009054906101000a900473ffffffffffffffffffffffffffffffffffffffff1673ffffffffffffffffffffffffffffffffffffffff1673ffffffffffffffffffffffffffffffffffffffff1681526020016003820160009054906101000a900473ffffffffffffffffffffffffffffffffffffffff1673ffffffffffffffffffffffffffffffffffffffff1673ffffffffffffffffffffffffffffffffffffffff168152602001600482015481526020016005820154815260200160068201548152602001600782015481526020016008820154815250509050806040015173ffffffffffffffffffffffffffffffffffffffff166342842e0e308484608001516040518463ffffffff1660e01b815260040161205c9392919061475e565b600060405180830381600087803b15801561207657600080fd5b505af115801561208a573d6000803e3d6000fd5b505050507fd8138f8a3f377c5259ca548e70e4c2de94f129f5a11036a15b69513cba2b426a82866040516120bf9291906146d5565b60405180910390a15050505050565b60696020528060005260406000206000915090505481565b600060656000838152602001908152602001600020549050919050565b3373ffffffffffffffffffffffffffffffffffffffff16603360009054906101000a900473ffffffffffffffffffffffffffffffffffffffff1673ffffffffffffffffffffffffffffffffffffffff1614612193576040517f08c379a000000000000000000000000000000000000000000000000000000000815260040161218a90614a4d565b60405180910390fd5b600073ffffffffffffffffffffffffffffffffffffffff16603360009054906101000a900473ffffffffffffffffffffffffffffffffffffffff1673ffffffffffffffffffffffffffffffffffffffff167f8be0079c531659141344cd1fd0a4f28419497f9722a3daafe3b4186f6b6457e060405160405180910390a36000603360006101000a81548173ffffffffffffffffffffffffffffffffffffffff021916908373ffffffffffffffffffffffffffffffffffffffff160217905550565b6000606c60008373ffffffffffffffffffffffffffffffffffffffff1673ffffffffffffffffffffffffffffffffffffffff168152602001908152602001600020805490509050919050565b60006122aa61346d565b606683815481106122b757fe5b9060005260206000209060090201604051806101200160405290816000820160009054906101000a900473ffffffffffffffffffffffffffffffffffffffff1673ffffffffffffffffffffffffffffffffffffffff1673ffffffffffffffffffffffffffffffffffffffff168152602001600182018054600181600116156101000203166002900480601f0160208091040260200160405190810160405280929190818152602001828054600181600116156101000203166002900480156123c05780601f10612395576101008083540402835291602001916123c0565b820191906000526020600020905b8154815290600101906020018083116123a357829003601f168201915b505050505081526020016002820160009054906101000a900473ffffffffffffffffffffffffffffffffffffffff1673ffffffffffffffffffffffffffffffffffffffff1673ffffffffffffffffffffffffffffffffffffffff1681526020016003820160009054906101000a900473ffffffffffffffffffffffffffffffffffffffff1673ffffffffffffffffffffffffffffffffffffffff1673ffffffffffffffffffffffffffffffffffffffff16815260200160048201548152602001600582015481526020016006820154815260200160078201548152602001600882015481525050905060008160a001519050600073ffffffffffffffffffffffffffffffffffffffff166068600086815260200190815260200160002060009054906101000a900473ffffffffffffffffffffffffffffffffffffffff1673ffffffffffffffffffffffffffffffffffffffff161461254a576125438260c001516069600087815260200190815260200160002054612ce190919063ffffffff16565b9050612560565b60008260a00151141561255f578160c0015190505b5b8092505050919050565b606d602052816000526040600020602052806000526040600020600091509150505481565b6000603360009054906101000a900473ffffffffffffffffffffffffffffffffffffffff16905090565b600060656000838560001c1860001b815260200190815260200160002054905092915050565b6000606680549050905090565b606b818051602081018201805184825260208301602085012081835280955050505050506000915090505481565b6066818154811061262757fe5b90600052602060002090600902016000915090508060000160009054906101000a900473ffffffffffffffffffffffffffffffffffffffff1690806001018054600181600116156101000203166002900480601f0160208091040260200160405190810160405280929190818152602001828054600181600116156101000203166002900480156126f95780601f106126ce576101008083540402835291602001916126f9565b820191906000526020600020905b8154815290600101906020018083116126dc57829003601f168201915b5050505050908060020160009054906101000a900473ffffffffffffffffffffffffffffffffffffffff16908060030160009054906101000a900473ffffffffffffffffffffffffffffffffffffffff16908060040154908060050154908060060154908060070154908060080154905089565b3373ffffffffffffffffffffffffffffffffffffffff16603360009054906101000a900473ffffffffffffffffffffffffffffffffffffffff1673ffffffffffffffffffffffffffffffffffffffff16146127fd576040517f08c379a00000000000000000000000000000000000000000000000000000000081526004016127f490614a4d565b60405180910390fd5b6128258273ffffffffffffffffffffffffffffffffffffffff168460001c1860001b82612caa565b505050565b606a6020528060005260406000206000915090505481565b600060019054906101000a900460ff1680612861575061286061312f565b5b8061287857506000809054906101000a900460ff16155b6128b7576040517f08c379a00000000000000000000000000000000000000000000000000000000081526004016128ae90614a6d565b60405180910390fd5b60008060019054906101000a900460ff161590508015612907576001600060016101000a81548160ff02191690831515021790555060016000806101000a81548160ff0219169083151502179055505b61290f613146565b66470de4df820000606560007f5478466565526174696f000000000000000000000000000000000000000000008152602001908152602001600020819055508173ffffffffffffffffffffffffffffffffffffffff16606560007f476c66416464726573730000000000000000000000000000000000000000000081526020019081526020016000208190555080156129bd5760008060016101000a81548160ff0219169083151502179055505b5050565b606e6020528160005260406000206020528060005260406000206000915091509054906101000a900460ff1681565b3373ffffffffffffffffffffffffffffffffffffffff16603360009054906101000a900473ffffffffffffffffffffffffffffffffffffffff1673ffffffffffffffffffffffffffffffffffffffff1614612a80576040517f08c379a0000000000000000000000000000000000000000000000000000000008152600401612a7790614a4d565b60405180910390fd5b612a92828460001c1860001b82612caa565b505050565b60676020528060005260406000206000915054906101000a900460ff1681565b3373ffffffffffffffffffffffffffffffffffffffff16603360009054906101000a900473ffffffffffffffffffffffffffffffffffffffff1673ffffffffffffffffffffffffffffffffffffffff1614612b47576040517f08c379a0000000000000000000000000000000000000000000000000000000008152600401612b3e90614a4d565b60405180910390fd5b600073ffffffffffffffffffffffffffffffffffffffff168173ffffffffffffffffffffffffffffffffffffffff161415612bb7576040517f08c379a0000000000000000000000000000000000000000000000000000000008152600401612bae9061488d565b60405180910390fd5b8073ffffffffffffffffffffffffffffffffffffffff16603360009054906101000a900473ffffffffffffffffffffffffffffffffffffffff1673ffffffffffffffffffffffffffffffffffffffff167f8be0079c531659141344cd1fd0a4f28419497f9722a3daafe3b4186f6b6457e060405160405180910390a380603360006101000a81548173ffffffffffffffffffffffffffffffffffffffff021916908373ffffffffffffffffffffffffffffffffffffffff16021790555050565b60686020528060005260406000206000915054906101000a900473ffffffffffffffffffffffffffffffffffffffff1681565b80606560008481526020019081526020016000205414612cdd578060656000848152602001908152602001600020819055505b5050565b600080828401905083811015612d2c576040517f08c379a0000000000000000000000000000000000000000000000000000000008152600401612d23906148cd565b60405180910390fd5b8091505092915050565b60008273ffffffffffffffffffffffffffffffffffffffff1660668381548110612d5c57fe5b906000526020600020906009020160000160009054906101000a900473ffffffffffffffffffffffffffffffffffffffff1673ffffffffffffffffffffffffffffffffffffffff161415612db35760019050612db8565b600090505b92915050565b600080831415612dd15760009050612e28565b6000828402905082848281612de257fe5b0414612e23576040517f08c379a0000000000000000000000000000000000000000000000000000000008152600401612e1a90614a0d565b60405180910390fd5b809150505b92915050565b6000612e7083836040518060400160405280601a81526020017f536166654d6174683a206469766973696f6e206279207a65726f000000000000815250613150565b905092915050565b6000612eba83836040518060400160405280601e81526020017f536166654d6174683a207375627472616374696f6e206f766572666c6f7700008152506131b1565b905092915050565b612f438363a9059cbb60e01b8484604051602401612ee19291906147cc565b604051602081830303815290604052907bffffffffffffffffffffffffffffffffffffffffffffffffffffffff19166020820180517bffffffffffffffffffffffffffffffffffffffffffffffffffffffff838183161783525050505061320c565b505050565b612fcb846323b872dd60e01b858585604051602401612f6993929190614795565b604051602081830303815290604052907bffffffffffffffffffffffffffffffffffffffffffffffffffffffff19166020820180517bffffffffffffffffffffffffffffffffffffffffffffffffffffffff838183161783525050505061320c565b50505050565b600081148061306a575060008373ffffffffffffffffffffffffffffffffffffffff1663dd62ed3e30856040518363ffffffff1660e01b8152600401613018929190614735565b60206040518083038186803b15801561303057600080fd5b505afa158015613044573d6000803e3d6000fd5b505050506040513d601f19601f820116820180604052508101906130689190613a4f565b145b6130a9576040517f08c379a00000000000000000000000000000000000000000000000000000000081526004016130a090614b2d565b60405180910390fd5b61312a8363095ea7b360e01b84846040516024016130c89291906147cc565b604051602081830303815290604052907bffffffffffffffffffffffffffffffffffffffffffffffffffffffff19166020820180517bffffffffffffffffffffffffffffffffffffffffffffffffffffffff838183161783525050505061320c565b505050565b6000803090506000813b9050600081149250505090565b61314e61337e565b565b60008083118290613197576040517f08c379a000000000000000000000000000000000000000000000000000000000815260040161318e919061482b565b60405180910390fd5b5060008385816131a357fe5b049050809150509392505050565b60008383111582906131f9576040517f08c379a00000000000000000000000000000000000000000000000000000000081526004016131f0919061482b565b60405180910390fd5b5060008385039050809150509392505050565b61322b8273ffffffffffffffffffffffffffffffffffffffff16613422565b61326a576040517f08c379a000000000000000000000000000000000000000000000000000000000815260040161326190614b4d565b60405180910390fd5b600060608373ffffffffffffffffffffffffffffffffffffffff1683604051613293919061458d565b6000604051808303816000865af19150503d80600081146132d0576040519150601f19603f3d011682016040523d82523d6000602084013e6132d5565b606091505b50915091508161331a576040517f08c379a00000000000000000000000000000000000000000000000000000000081526004016133119061496d565b60405180910390fd5b600081511115613378578080602001905181019061333891906137d6565b613377576040517f08c379a000000000000000000000000000000000000000000000000000000000815260040161336e90614b0d565b60405180910390fd5b5b50505050565b600033905080603360006101000a81548173ffffffffffffffffffffffffffffffffffffffff021916908373ffffffffffffffffffffffffffffffffffffffff1602179055508073ffffffffffffffffffffffffffffffffffffffff16600073ffffffffffffffffffffffffffffffffffffffff167f8be0079c531659141344cd1fd0a4f28419497f9722a3daafe3b4186f6b6457e060405160405180910390a350565b60008060007fc5d2460186f7233c927e7db2dcc703c0e500b653ca82273b7bfad8045d85a47060001b9050833f915080821415801561346457506000801b8214155b92505050919050565b604051806101200160405280600073ffffffffffffffffffffffffffffffffffffffff16815260200160608152602001600073ffffffffffffffffffffffffffffffffffffffff168152602001600073ffffffffffffffffffffffffffffffffffffffff16815260200160008152602001600081526020016000815260200160008152602001600081525090565b828054600181600116156101000203166002900490600052602060002090601f016020900481019282601f1061353c57805160ff191683800117855561356a565b8280016001018555821561356a579182015b8281111561356957825182559160200191906001019061354e565b5b509050613577919061357b565b5090565b61359d91905b80821115613599576000816000905550600101613581565b5090565b90565b6000813590506135af81614d98565b92915050565b6000815190506135c481614daf565b92915050565b6000813590506135d981614dc6565b92915050565b60008083601f8401126135f157600080fd5b8235905067ffffffffffffffff81111561360a57600080fd5b60208301915083600182028301111561362257600080fd5b9250929050565b60008083601f84011261363b57600080fd5b8235905067ffffffffffffffff81111561365457600080fd5b60208301915083600182028301111561366c57600080fd5b9250929050565b600082601f83011261368457600080fd5b813561369761369282614c05565b614bd8565b915080825260208301602083018583830111156136b357600080fd5b6136be838284614d45565b50505092915050565b6000813590506136d681614ddd565b92915050565b6000815190506136eb81614ddd565b92915050565b60006020828403121561370357600080fd5b6000613711848285016135a0565b91505092915050565b60008060008060006080868803121561373257600080fd5b6000613740888289016135a0565b9550506020613751888289016135a0565b9450506040613762888289016136c7565b935050606086013567ffffffffffffffff81111561377f57600080fd5b61378b888289016135df565b92509250509295509295909350565b600080604083850312156137ad57600080fd5b60006137bb858286016135a0565b92505060206137cc858286016136c7565b9150509250929050565b6000602082840312156137e857600080fd5b60006137f6848285016135b5565b91505092915050565b60006020828403121561381157600080fd5b600061381f848285016135ca565b91505092915050565b6000806040838503121561383b57600080fd5b6000613849858286016135ca565b925050602061385a858286016135a0565b9150509250929050565b60008060006060848603121561387957600080fd5b6000613887868287016135ca565b9350506020613898868287016135a0565b92505060406138a9868287016136c7565b9150509250925092565b600080604083850312156138c657600080fd5b60006138d4858286016135ca565b92505060206138e5858286016136c7565b9150509250929050565b60008060006060848603121561390457600080fd5b6000613912868287016135ca565b9350506020613923868287016136c7565b9250506040613934868287016136c7565b9150509250925092565b600080600080600080600060c0888a03121561395957600080fd5b600088013567ffffffffffffffff81111561397357600080fd5b61397f8a828b01613629565b975097505060206139928a828b016135a0565b95505060406139a38a828b016136c7565b94505060606139b48a828b016136c7565b93505060806139c58a828b016136c7565b92505060a06139d68a828b016136c7565b91505092959891949750929550565b6000602082840312156139f757600080fd5b600082013567ffffffffffffffff811115613a1157600080fd5b613a1d84828501613673565b91505092915050565b600060208284031215613a3857600080fd5b6000613a46848285016136c7565b91505092915050565b600060208284031215613a6157600080fd5b6000613a6f848285016136dc565b91505092915050565b60008060408385031215613a8b57600080fd5b6000613a99858286016136c7565b9250506020613aaa858286016136c7565b9150509250929050565b613abd81614d0f565b82525050565b613acc81614c91565b82525050565b613adb81614c91565b82525050565b613aea81614c7f565b82525050565b613af981614c7f565b82525050565b613b0881614ca3565b82525050565b613b1781614cb9565b82525050565b6000613b2882614c31565b613b328185614c47565b9350613b42818560208601614d54565b80840191505092915050565b6000613b5a8385614c74565b9350613b67838584614d45565b82840190509392505050565b6000613b7e82614c3c565b613b888185614c52565b9350613b98818560208601614d54565b613ba181614d87565b840191505092915050565b6000613bb782614c3c565b613bc18185614c63565b9350613bd1818560208601614d54565b613bda81614d87565b840191505092915050565b6000613bf082614c3c565b613bfa8185614c74565b9350613c0a818560208601614d54565b80840191505092915050565b6000613c23602c83614c63565b91507f7468652076616c7565206f6620636f6e6669726d54696d65206c65737320746860008301527f616e2035206d696e7574657300000000000000000000000000000000000000006020830152604082019050919050565b6000613c89602983614c63565b91507f61206c69766520706f6f6c20686173206265656e20637265617465642062792060008301527f74686973206e616d6500000000000000000000000000000000000000000000006020830152604082019050919050565b6000613cef602683614c63565b91507f4f776e61626c653a206e6577206f776e657220697320746865207a65726f206160008301527f64647265737300000000000000000000000000000000000000000000000000006020830152604082019050919050565b6000613d55601c83614c63565b91507f7468652076616c7565206f6620616d6f756e7431206973207a65726f000000006000830152602082019050919050565b6000613d95601b83614c63565b91507f536166654d6174683a206164646974696f6e206f766572666c6f7700000000006000830152602082019050919050565b6000613dd5602a83614c63565b91507f7468652076616c7565206f6620636f6e6669726d54696d65206973206578636560008301527f65646564203120646179000000000000000000000000000000000000000000006020830152604082019050919050565b6000613e3b601a83614c63565b91507f73656e646572206973206e6f7420706f6f6c2063726561746f720000000000006000830152602082019050919050565b6000613e7b602283614c63565b91507f6120706f6f6c206861732063726561746564206279207468697320616464726560008301527f73730000000000000000000000000000000000000000000000000000000000006020830152604082019050919050565b6000613ee1601883614c63565b91507f7468697320706f6f6c20646f6573206e6f7420657869737400000000000000006000830152602082019050919050565b6000613f21602083614c63565b91507f5361666545524332303a206c6f772d6c6576656c2063616c6c206661696c65646000830152602082019050919050565b6000613f61601383614c63565b91507f7468697320706f6f6c20697320636c6f736564000000000000000000000000006000830152602082019050919050565b6000613fa1602383614c63565b91507f7468652076616c7565206f6620616d6f756e744d696e496e637231206973207a60008301527f65726f00000000000000000000000000000000000000000000000000000000006020830152604082019050919050565b6000614007601d83614c63565b91507f63726561746f722068617320636c61696d6564207468697320706f6f6c0000006000830152602082019050919050565b6000614047601e83614c63565b91507f746865206c656e677468206f66206e616d6520697320746f6f206c6f6e6700006000830152602082019050919050565b6000614087602183614c63565b91507f536166654d6174683a206d756c7469706c69636174696f6e206f766572666c6f60008301527f77000000000000000000000000000000000000000000000000000000000000006020830152604082019050919050565b60006140ed602a83614c63565b91507f63726561746f722063616e2774206269642074686520706f6f6c20637265617460008301527f65642062792073656c66000000000000000000000000000000000000000000006020830152604082019050919050565b6000614153602083614c63565b91507f4f776e61626c653a2063616c6c6572206973206e6f7420746865206f776e65726000830152602082019050919050565b6000614193602e83614c63565b91507f436f6e747261637420696e7374616e63652068617320616c726561647920626560008301527f656e20696e697469616c697a65640000000000000000000000000000000000006020830152604082019050919050565b60006141f9603283614c63565b91507f7468652062696420616d6f756e74206973206c6f776572207468616e206d696e60008301527f696d756d2062696464657220616d6f756e7400000000000000000000000000006020830152604082019050919050565b600061425f602583614c63565b91507f73656e646572206973206e6f74207468652077696e6e6572206f66207468697360008301527f20706f6f6c0000000000000000000000000000000000000000000000000000006020830152604082019050919050565b60006142c5601c83614c63565b91507f73656e6465722068617320636c61696d6564207468697320706f6f6c000000006000830152602082019050919050565b6000614305603683614c63565b91507f7468652062696420616d6f756e74206973206c6f776572207468616e2074686560008301527f2063757272656e742062696464657220616d6f756e74000000000000000000006020830152604082019050919050565b600061436b602a83614c63565b91507f5361666545524332303a204552433230206f7065726174696f6e20646964206e60008301527f6f742073756363656564000000000000000000000000000000000000000000006020830152604082019050919050565b60006143d1603683614c63565b91507f5361666545524332303a20617070726f76652066726f6d206e6f6e2d7a65726f60008301527f20746f206e6f6e2d7a65726f20616c6c6f77616e6365000000000000000000006020830152604082019050919050565b6000614437601f83614c63565b91507f5361666545524332303a2063616c6c20746f206e6f6e2d636f6e7472616374006000830152602082019050919050565b6000614477601783614c63565b91507f7468697320706f6f6c206973206e6f7420636c6f7365640000000000000000006000830152602082019050919050565b6000610120830160008301516144c36000860182613ac3565b50602083015184820360208601526144db8282613b73565b91505060408301516144f06040860182613ae1565b5060608301516145036060860182613ae1565b506080830151614516608086018261456f565b5060a083015161452960a086018261456f565b5060c083015161453c60c086018261456f565b5060e083015161454f60e086018261456f565b5061010083015161456461010086018261456f565b508091505092915050565b61457881614d05565b82525050565b61458781614d05565b82525050565b60006145998284613b1d565b915081905092915050565b60006145b1828486613b4e565b91508190509392505050565b60006145c98284613be5565b915081905092915050565b60006020820190506145e96000830184613af0565b92915050565b60006020820190506146046000830184613ad2565b92915050565b600060608201905061461f6000830186613ab4565b61462c6020830185613af0565b614639604083018461457e565b949350505050565b600061012082019050614657600083018c613ad2565b8181036020830152614669818b613bac565b9050614678604083018a613af0565b6146856060830189613af0565b614692608083018861457e565b61469f60a083018761457e565b6146ac60c083018661457e565b6146b960e083018561457e565b6146c761010083018461457e565b9a9950505050505050505050565b60006040820190506146ea6000830185613ab4565b6146f7602083018461457e565b9392505050565b60006060820190506147136000830186613ab4565b614720602083018561457e565b61472d604083018461457e565b949350505050565b600060408201905061474a6000830185613af0565b6147576020830184613af0565b9392505050565b60006060820190506147736000830186613af0565b6147806020830185613ab4565b61478d604083018461457e565b949350505050565b60006060820190506147aa6000830186613af0565b6147b76020830185613af0565b6147c4604083018461457e565b949350505050565b60006040820190506147e16000830185613af0565b6147ee602083018461457e565b9392505050565b600060208201905061480a6000830184613aff565b92915050565b60006020820190506148256000830184613b0e565b92915050565b600060208201905081810360008301526148458184613bac565b905092915050565b6000602082019050818103600083015261486681613c16565b9050919050565b6000602082019050818103600083015261488681613c7c565b9050919050565b600060208201905081810360008301526148a681613ce2565b9050919050565b600060208201905081810360008301526148c681613d48565b9050919050565b600060208201905081810360008301526148e681613d88565b9050919050565b6000602082019050818103600083015261490681613dc8565b9050919050565b6000602082019050818103600083015261492681613e2e565b9050919050565b6000602082019050818103600083015261494681613e6e565b9050919050565b6000602082019050818103600083015261496681613ed4565b9050919050565b6000602082019050818103600083015261498681613f14565b9050919050565b600060208201905081810360008301526149a681613f54565b9050919050565b600060208201905081810360008301526149c681613f94565b9050919050565b600060208201905081810360008301526149e681613ffa565b9050919050565b60006020820190508181036000830152614a068161403a565b9050919050565b60006020820190508181036000830152614a268161407a565b9050919050565b60006020820190508181036000830152614a46816140e0565b9050919050565b60006020820190508181036000830152614a6681614146565b9050919050565b60006020820190508181036000830152614a8681614186565b9050919050565b60006020820190508181036000830152614aa6816141ec565b9050919050565b60006020820190508181036000830152614ac681614252565b9050919050565b60006020820190508181036000830152614ae6816142b8565b9050919050565b60006020820190508181036000830152614b06816142f8565b9050919050565b60006020820190508181036000830152614b268161435e565b9050919050565b60006020820190508181036000830152614b46816143c4565b9050919050565b60006020820190508181036000830152614b668161442a565b9050919050565b60006020820190508181036000830152614b868161446a565b9050919050565b60006040820190508181036000830152614ba781856144aa565b9050614bb6602083018461457e565b9392505050565b6000602082019050614bd2600083018461457e565b92915050565b6000604051905081810181811067ffffffffffffffff82111715614bfb57600080fd5b8060405250919050565b600067ffffffffffffffff821115614c1c57600080fd5b601f19601f8301169050602081019050919050565b600081519050919050565b600081519050919050565b600081905092915050565b600082825260208201905092915050565b600082825260208201905092915050565b600081905092915050565b6000614c8a82614ce5565b9050919050565b6000614c9c82614ce5565b9050919050565b60008115159050919050565b6000819050919050565b60007fffffffff0000000000000000000000000000000000000000000000000000000082169050919050565b600073ffffffffffffffffffffffffffffffffffffffff82169050919050565b6000819050919050565b6000614d1a82614d21565b9050919050565b6000614d2c82614d33565b9050919050565b6000614d3e82614ce5565b9050919050565b82818337600083830152505050565b60005b83811015614d72578082015181840152602081019050614d57565b83811115614d81576000848401525b50505050565b6000601f19601f8301169050919050565b614da181614c7f565b8114614dac57600080fd5b50565b614db881614ca3565b8114614dc357600080fd5b50565b614dcf81614caf565b8114614dda57600080fd5b50565b614de681614d05565b8114614df157600080fd5b5056fea26469706673582212200a77e58ee5f7b62d78884f57c812e20524e0cbca5357811b6d5334ce38cdc67a64736f6c63430006060033",
  "immutableReferences": {},
  "source": "// SPDX-License-Identifier: MIT\n\npragma solidity ^0.6.0;\npragma experimental ABIEncoderV2;\n\nimport \"@openzeppelin/contracts-ethereum-package/contracts/math/SafeMath.sol\";\nimport \"@openzeppelin/contracts-ethereum-package/contracts/token/ERC20/SafeERC20.sol\";\nimport \"@openzeppelin/contracts-ethereum-package/contracts/token/ERC20/IERC20.sol\";\nimport \"@openzeppelin/contracts-ethereum-package/contracts/token/ERC721/IERC721.sol\";\nimport \"@openzeppelin/contracts-ethereum-package/contracts/token/ERC721/IERC721Receiver.sol\";\nimport \"@openzeppelin/contracts-ethereum-package/contracts/Initializable.sol\";\n\n// Inheritance\nimport \"./Configurable.sol\";\n\ncontract EnglishAuctionNFT is Initializable, Configurable, IERC721Receiver {\n    using SafeMath for uint256;\n    using SafeERC20 for IERC20;\n\n    bytes32 internal constant TxFeeRatio = bytes32(\"TxFeeRatio\");\n    bytes32 internal constant GlfAddress = bytes32(\"GlfAddress\");\n    address internal constant DeadAddress = 0x000000000000000000000000000000000000dEaD;\n\n    struct Pool {\n        // address of pool creator\n        address payable creator;\n        // pool name\n        string name;\n        // address of sell token\n        address token0;\n        // address of buy token\n        address token1;\n        // token id of token0\n        uint tokenId;\n        // minimum amount of token1 that creator want to swap\n        uint amountMin1;\n        // minimum incremental amount of token1\n        uint amountMinIncr1;\n        // how many seconds the pool will be live since last bid\n        uint confirmTime;\n        // the timestamp in seconds the pool will be closed\n        uint closeAt;\n    }\n\n    Pool[] public pools;\n\n    // pool index => a flag that if creator is claimed the pool\n    mapping(uint => bool) public creatorClaimedP;\n    // pool index => the candidate of winner who bid the highest amount1 in current round\n    mapping(uint => address payable) public currentBidderP;\n    // pool index => the highest amount1 in current round\n    mapping(uint => uint) public currentBidderAmount1P;\n\n    // creator address => pool index + 1. if the result is 0, the account don't create any pool.\n    mapping(address => uint) public myCreatedP;\n    // name => pool index + 1\n    mapping(string => uint) public myNameP;\n\n    // account => array of pool index\n    mapping(address => uint[]) public myBidP;\n    // account => pool index => bid amount1\n    mapping(address => mapping(uint => uint)) public myBidderAmount1P;\n    // account => pool index => claim flag\n    mapping(address => mapping(uint => bool)) public myClaimedP;\n\n    // pool index => bid count\n    mapping(uint => uint) public bidCountP;\n\n    event Created(Pool pool, uint index);\n    event Bid(address sender, uint index, uint amount1);\n    event Claimed(address sender, uint index);\n\n    function initialize(address _GlfAddress) public initializer {\n        super.__Ownable_init();\n        config[TxFeeRatio] = 0.02 ether;\n        config[GlfAddress] = uint(_GlfAddress);\n    }\n\n    function create(\n        // name of the pool\n        string calldata name,\n        // address of token0\n        address token0,\n        // token id of token0\n        uint tokenId,\n        // minimum amount of token1\n        uint amountMin1,\n        // minimum incremental amount of token1\n        uint amountMinIncr1,\n        // confirmation time\n        uint confirmTime\n    ) external\n        isPoolNotCreate(msg.sender)\n        nameNotBeenToken(name)\n    {\n        address payable creator = msg.sender;\n\n        require(amountMinIncr1 != 0, \"the value of amountMinIncr1 is zero\");\n        require(confirmTime >= 5 minutes, \"the value of confirmTime less than 5 minutes\");\n        require(confirmTime <= 1 days, \"the value of confirmTime is exceeded 1 day\");\n        require(bytes(name).length <= 15, \"the length of name is too long\");\n\n        address token1 = getGlfAddress();\n        // transfer tokenId of token0 to this contract\n        IERC721(token0).safeTransferFrom(creator, address(this), tokenId);\n\n        // creator pool\n        Pool memory pool;\n        pool.creator = creator;\n        pool.name = name;\n        pool.token0 = token0;\n        pool.token1 = token1;\n        pool.tokenId = tokenId;\n        pool.amountMin1 = amountMin1;\n        pool.amountMinIncr1 = amountMinIncr1;\n        pool.confirmTime = confirmTime;\n        pool.closeAt = now.add(confirmTime);\n        pools.push(pool);\n        myCreatedP[creator] = pools.length;\n        myNameP[name] = pools.length;\n\n        uint index = pools.length;\n        emit Created(pool, index);\n    }\n\n    function bid(\n        // pool index\n        uint index,\n        // amount of token1\n        uint amount1\n    ) external payable\n        isPoolExist(index)\n        isPoolNotClosed(index)\n    {\n        address payable sender = msg.sender;\n\n        Pool storage pool = pools[index];\n        require(pool.creator != sender, \"creator can't bid the pool created by self\");\n        require(amount1 != 0, \"the value of amount1 is zero\");\n        require(amount1 >= pool.amountMin1, \"the bid amount is lower than minimum bidder amount\");\n        require(amount1 >= currentBidderAmount(index), \"the bid amount is lower than the current bidder amount\");\n\n        address token1 = pool.token1;\n        IERC20(token1).safeTransferFrom(sender, address(this), amount1);\n        IERC20(token1).safeApprove(address(this), 0);\n\n        // update closeAt\n        pool.closeAt = now.add(pool.confirmTime);\n\n        // return token1 to previous bidder\n        if (currentBidderP[index] != address(0) && currentBidderAmount1P[index] > 0) {\n            IERC20(token1).safeTransfer(currentBidderP[index], currentBidderAmount1P[index]);\n        }\n\n        // record new winner\n        currentBidderP[index] = sender;\n        currentBidderAmount1P[index] = amount1;\n        bidCountP[index] = bidCountP[index] + 1;\n\n        myBidP[sender].push(index);\n        myBidderAmount1P[sender][index] = amount1;\n\n        emit Bid(sender, index, amount1);\n    }\n\n    function creatorClaim(uint index) external\n        isPoolExist(index)\n        isPoolClosed(index)\n    {\n        address payable sender = msg.sender;\n        require(isCreator(sender, index), \"sender is not pool creator\");\n        require(!creatorClaimedP[index], \"creator has claimed this pool\");\n        creatorClaimedP[index] = true;\n\n        // remove ownership of this pool from creator\n        delete myCreatedP[sender];\n\n        Pool memory pool = pools[index];\n        if (currentBidderP[index] != address(0)) {\n            uint amount1 = currentBidderAmount1P[index];\n            if (amount1 > 0) {\n                // transfer token1 to creator\n                uint256 txFee = amount1.mul(getTxFeeRatio()).div(1 ether);\n                uint256 _actualAmount1 = amount1.sub(txFee);\n                if (_actualAmount1 > 0) {\n                    IERC20(pool.token1).safeTransfer(pool.creator, _actualAmount1);\n                }\n                if (txFee > 0) {\n                    IERC20(pool.token1).safeTransfer(DeadAddress, txFee);\n                }\n            }\n        } else {\n            // transfer token0 back to creator\n            IERC721(pool.token0).safeTransferFrom(address(this), pool.creator, pool.tokenId);\n        }\n\n        emit Claimed(sender, index);\n    }\n\n    function bidderClaim(uint index) external\n        isPoolExist(index)\n        isPoolClosed(index)\n    {\n        address payable sender = msg.sender;\n        require(currentBidderP[index] == sender, \"sender is not the winner of this pool\");\n        require(!myClaimedP[sender][index], \"sender has claimed this pool\");\n        myClaimedP[sender][index] = true;\n\n        // transfer token0 to bidder\n        Pool memory pool = pools[index];\n        IERC721(pool.token0).safeTransferFrom(address(this), sender, pool.tokenId);\n\n        emit Claimed(sender, index);\n    }\n\n    function onERC721Received(address, address, uint256, bytes calldata) external override returns (bytes4) {\n        return this.onERC721Received.selector;\n    }\n\n    function getPoolCount() external view returns (uint) {\n        return pools.length;\n    }\n\n    function currentBidderAmount(uint index) public view returns (uint) {\n        Pool memory pool = pools[index];\n        uint amount = pool.amountMin1;\n\n        if (currentBidderP[index] != address(0)) {\n            amount = currentBidderAmount1P[index].add(pool.amountMinIncr1);\n        } else if (pool.amountMin1 == 0) {\n            amount = pool.amountMinIncr1;\n        }\n\n        return amount;\n    }\n\n    function isCreator(address target, uint index) private view returns (bool) {\n        if (pools[index].creator == target) {\n            return true;\n        }\n        return false;\n    }\n\n    function getMyBidCount(address target) public view returns (uint) {\n        return myBidP[target].length;\n    }\n\n    function getTxFeeRatio() public view returns (uint) {\n        return config[TxFeeRatio];\n    }\n\n    function getGlfAddress() public view returns (address) {\n        return address(config[GlfAddress]);\n    }\n\n    modifier isPoolClosed(uint index) {\n        require(pools[index].closeAt <= now, \"this pool is not closed\");\n        _;\n    }\n\n    modifier isPoolNotClosed(uint index) {\n        require(pools[index].closeAt > now, \"this pool is closed\");\n        _;\n    }\n\n    modifier isPoolNotCreate(address creator) {\n        if (myCreatedP[creator] > 0) {\n            revert(\"a pool has created by this address\");\n        }\n        _;\n    }\n\n    modifier isPoolExist(uint index) {\n        require(index < pools.length, \"this pool does not exist\");\n        _;\n    }\n\n    modifier nameNotBeenToken(string memory name) {\n        // check if someone has take this name\n        if (myNameP[name] > 0) {\n            uint index = myNameP[name] - 1;\n            if ((myCreatedP[pools[index].creator] > 0) && (pools[index].closeAt > now)) {\n                revert(\"a live pool has been created by this name\");\n            }\n        }\n        _;\n    }\n}\n",
  "sourcePath": "/Users/edwin/github/gallery.finance/gallery.finance.smart/contracts/EnglishAuctionNFT.sol",
  "compiler": {
    "name": "solc",
    "version": "0.6.6+commit.6c089d02.Emscripten.clang"
  },
  "schemaVersion": "3.2.2",
  "updatedAt": "2020-11-03T11:03:40.131Z",
  "devdoc": {
    "methods": {
      "owner()": {
        "details": "Returns the address of the current owner."
      },
      "renounceOwnership()": {
        "details": "Leaves the contract without owner. It will not be possible to call `onlyOwner` functions anymore. Can only be called by the current owner.     * NOTE: Renouncing ownership will leave the contract without an owner, thereby removing any functionality that is only available to the owner."
      },
      "transferOwnership(address)": {
        "details": "Transfers ownership of the contract to a new account (`newOwner`). Can only be called by the current owner."
      }
    }
  },
  "userdoc": {
    "methods": {}
  }
}