{
  "fileName": "BounceERC721.sol",
  "contractName": "BounceERC721",
  "source": "// SPDX-License-Identifier: MIT\n\npragma solidity ^0.6.0;\n\nimport \"@openzeppelin/contracts-ethereum-package/contracts/access/Ownable.sol\";\nimport \"@openzeppelin/contracts-ethereum-package/contracts/token/ERC721/ERC721.sol\";\n\ncontract BounceERC721 is ERC721UpgradeSafe, OwnableUpgradeSafe {\n    function initialize(string memory name, string memory symbol) public initializer {\n        super.__Ownable_init();\n        super.__ERC721_init(name, symbol);\n    }\n\n    function mint(address to, uint256 tokenId) external onlyOwner {\n        super._safeMint(to, tokenId);\n    }\n\n    function burn(uint256 tokenId) external onlyOwner {\n        super._burn(tokenId);\n    }\n}\n",
  "sourcePath": "contracts/BounceERC721.sol",
  "abi": [
    {
      "anonymous": false,
      "inputs": [
        {
          "indexed": true,
          "internalType": "address",
          "name": "owner",
          "type": "address"
        },
        {
          "indexed": true,
          "internalType": "address",
          "name": "approved",
          "type": "address"
        },
        {
          "indexed": true,
          "internalType": "uint256",
          "name": "tokenId",
          "type": "uint256"
        }
      ],
      "name": "Approval",
      "type": "event"
    },
    {
      "anonymous": false,
      "inputs": [
        {
          "indexed": true,
          "internalType": "address",
          "name": "owner",
          "type": "address"
        },
        {
          "indexed": true,
          "internalType": "address",
          "name": "operator",
          "type": "address"
        },
        {
          "indexed": false,
          "internalType": "bool",
          "name": "approved",
          "type": "bool"
        }
      ],
      "name": "ApprovalForAll",
      "type": "event"
    },
    {
      "anonymous": false,
      "inputs": [
        {
          "indexed": true,
          "internalType": "address",
          "name": "previousOwner",
          "type": "address"
        },
        {
          "indexed": true,
          "internalType": "address",
          "name": "newOwner",
          "type": "address"
        }
      ],
      "name": "OwnershipTransferred",
      "type": "event"
    },
    {
      "anonymous": false,
      "inputs": [
        {
          "indexed": true,
          "internalType": "address",
          "name": "from",
          "type": "address"
        },
        {
          "indexed": true,
          "internalType": "address",
          "name": "to",
          "type": "address"
        },
        {
          "indexed": true,
          "internalType": "uint256",
          "name": "tokenId",
          "type": "uint256"
        }
      ],
      "name": "Transfer",
      "type": "event"
    },
    {
      "inputs": [
        {
          "internalType": "address",
          "name": "to",
          "type": "address"
        },
        {
          "internalType": "uint256",
          "name": "tokenId",
          "type": "uint256"
        }
      ],
      "name": "approve",
      "outputs": [],
      "stateMutability": "nonpayable",
      "type": "function"
    },
    {
      "inputs": [
        {
          "internalType": "address",
          "name": "owner",
          "type": "address"
        }
      ],
      "name": "balanceOf",
      "outputs": [
        {
          "internalType": "uint256",
          "name": "",
          "type": "uint256"
        }
      ],
      "stateMutability": "view",
      "type": "function"
    },
    {
      "inputs": [],
      "name": "baseURI",
      "outputs": [
        {
          "internalType": "string",
          "name": "",
          "type": "string"
        }
      ],
      "stateMutability": "view",
      "type": "function"
    },
    {
      "inputs": [
        {
          "internalType": "uint256",
          "name": "tokenId",
          "type": "uint256"
        }
      ],
      "name": "burn",
      "outputs": [],
      "stateMutability": "nonpayable",
      "type": "function"
    },
    {
      "inputs": [
        {
          "internalType": "uint256",
          "name": "tokenId",
          "type": "uint256"
        }
      ],
      "name": "getApproved",
      "outputs": [
        {
          "internalType": "address",
          "name": "",
          "type": "address"
        }
      ],
      "stateMutability": "view",
      "type": "function"
    },
    {
      "inputs": [
        {
          "internalType": "string",
          "name": "name",
          "type": "string"
        },
        {
          "internalType": "string",
          "name": "symbol",
          "type": "string"
        }
      ],
      "name": "initialize",
      "outputs": [],
      "stateMutability": "nonpayable",
      "type": "function"
    },
    {
      "inputs": [
        {
          "internalType": "address",
          "name": "owner",
          "type": "address"
        },
        {
          "internalType": "address",
          "name": "operator",
          "type": "address"
        }
      ],
      "name": "isApprovedForAll",
      "outputs": [
        {
          "internalType": "bool",
          "name": "",
          "type": "bool"
        }
      ],
      "stateMutability": "view",
      "type": "function"
    },
    {
      "inputs": [
        {
          "internalType": "address",
          "name": "to",
          "type": "address"
        },
        {
          "internalType": "uint256",
          "name": "tokenId",
          "type": "uint256"
        }
      ],
      "name": "mint",
      "outputs": [],
      "stateMutability": "nonpayable",
      "type": "function"
    },
    {
      "inputs": [],
      "name": "name",
      "outputs": [
        {
          "internalType": "string",
          "name": "",
          "type": "string"
        }
      ],
      "stateMutability": "view",
      "type": "function"
    },
    {
      "inputs": [],
      "name": "owner",
      "outputs": [
        {
          "internalType": "address",
          "name": "",
          "type": "address"
        }
      ],
      "stateMutability": "view",
      "type": "function"
    },
    {
      "inputs": [
        {
          "internalType": "uint256",
          "name": "tokenId",
          "type": "uint256"
        }
      ],
      "name": "ownerOf",
      "outputs": [
        {
          "internalType": "address",
          "name": "",
          "type": "address"
        }
      ],
      "stateMutability": "view",
      "type": "function"
    },
    {
      "inputs": [],
      "name": "renounceOwnership",
      "outputs": [],
      "stateMutability": "nonpayable",
      "type": "function"
    },
    {
      "inputs": [
        {
          "internalType": "address",
          "name": "from",
          "type": "address"
        },
        {
          "internalType": "address",
          "name": "to",
          "type": "address"
        },
        {
          "internalType": "uint256",
          "name": "tokenId",
          "type": "uint256"
        }
      ],
      "name": "safeTransferFrom",
      "outputs": [],
      "stateMutability": "nonpayable",
      "type": "function"
    },
    {
      "inputs": [
        {
          "internalType": "address",
          "name": "from",
          "type": "address"
        },
        {
          "internalType": "address",
          "name": "to",
          "type": "address"
        },
        {
          "internalType": "uint256",
          "name": "tokenId",
          "type": "uint256"
        },
        {
          "internalType": "bytes",
          "name": "_data",
          "type": "bytes"
        }
      ],
      "name": "safeTransferFrom",
      "outputs": [],
      "stateMutability": "nonpayable",
      "type": "function"
    },
    {
      "inputs": [
        {
          "internalType": "address",
          "name": "operator",
          "type": "address"
        },
        {
          "internalType": "bool",
          "name": "approved",
          "type": "bool"
        }
      ],
      "name": "setApprovalForAll",
      "outputs": [],
      "stateMutability": "nonpayable",
      "type": "function"
    },
    {
      "inputs": [
        {
          "internalType": "bytes4",
          "name": "interfaceId",
          "type": "bytes4"
        }
      ],
      "name": "supportsInterface",
      "outputs": [
        {
          "internalType": "bool",
          "name": "",
          "type": "bool"
        }
      ],
      "stateMutability": "view",
      "type": "function"
    },
    {
      "inputs": [],
      "name": "symbol",
      "outputs": [
        {
          "internalType": "string",
          "name": "",
          "type": "string"
        }
      ],
      "stateMutability": "view",
      "type": "function"
    },
    {
      "inputs": [
        {
          "internalType": "uint256",
          "name": "index",
          "type": "uint256"
        }
      ],
      "name": "tokenByIndex",
      "outputs": [
        {
          "internalType": "uint256",
          "name": "",
          "type": "uint256"
        }
      ],
      "stateMutability": "view",
      "type": "function"
    },
    {
      "inputs": [
        {
          "internalType": "address",
          "name": "owner",
          "type": "address"
        },
        {
          "internalType": "uint256",
          "name": "index",
          "type": "uint256"
        }
      ],
      "name": "tokenOfOwnerByIndex",
      "outputs": [
        {
          "internalType": "uint256",
          "name": "",
          "type": "uint256"
        }
      ],
      "stateMutability": "view",
      "type": "function"
    },
    {
      "inputs": [
        {
          "internalType": "uint256",
          "name": "tokenId",
          "type": "uint256"
        }
      ],
      "name": "tokenURI",
      "outputs": [
        {
          "internalType": "string",
          "name": "",
          "type": "string"
        }
      ],
      "stateMutability": "view",
      "type": "function"
    },
    {
      "inputs": [],
      "name": "totalSupply",
      "outputs": [
        {
          "internalType": "uint256",
          "name": "",
          "type": "uint256"
        }
      ],
      "stateMutability": "view",
      "type": "function"
    },
    {
      "inputs": [
        {
          "internalType": "address",
          "name": "from",
          "type": "address"
        },
        {
          "internalType": "address",
          "name": "to",
          "type": "address"
        },
        {
          "internalType": "uint256",
          "name": "tokenId",
          "type": "uint256"
        }
      ],
      "name": "transferFrom",
      "outputs": [],
      "stateMutability": "nonpayable",
      "type": "function"
    },
    {
      "inputs": [
        {
          "internalType": "address",
          "name": "newOwner",
          "type": "address"
        }
      ],
      "name": "transferOwnership",
      "outputs": [],
      "stateMutability": "nonpayable",
      "type": "function"
    }
  ],
  "bytecode": "0x608060405234801561001057600080fd5b50613d3a806100206000396000f3fe608060405234801561001057600080fd5b506004361061014d5760003560e01c80634f6ccce7116100c357806395d89b411161007c57806395d89b41146107bb578063a22cb4651461083e578063b88d4fde1461088e578063c87b56dd14610993578063e985e9c514610a3a578063f2fde38b14610ab45761014d565b80634f6ccce7146106085780636352211e1461064a5780636c0360eb146106a257806370a0823114610725578063715018a61461077d5780638da5cb5b146107875761014d565b806323b872dd1161011557806323b872dd146102fc5780632f745c591461036a57806340c10f19146103cc57806342842e0e1461041a57806342966c68146104885780634cd88b76146104b65761014d565b806301ffc9a71461015257806306fdde03146101b5578063081812fc14610238578063095ea7b31461029057806318160ddd146102de575b600080fd5b61019d6004803603602081101561016857600080fd5b8101908080357bffffffffffffffffffffffffffffffffffffffffffffffffffffffff19169060200190929190505050610af8565b60405180821515815260200191505060405180910390f35b6101bd610b60565b6040518080602001828103825283818151815260200191508051906020019080838360005b838110156101fd5780820151818401526020810190506101e2565b50505050905090810190601f16801561022a5780820380516001836020036101000a031916815260200191505b509250505060405180910390f35b6102646004803603602081101561024e57600080fd5b8101908080359060200190929190505050610c02565b604051808273ffffffffffffffffffffffffffffffffffffffff16815260200191505060405180910390f35b6102dc600480360360408110156102a657600080fd5b81019080803573ffffffffffffffffffffffffffffffffffffffff16906020019092919080359060200190929190505050610c9d565b005b6102e6610de1565b6040518082815260200191505060405180910390f35b6103686004803603606081101561031257600080fd5b81019080803573ffffffffffffffffffffffffffffffffffffffff169060200190929190803573ffffffffffffffffffffffffffffffffffffffff16906020019092919080359060200190929190505050610df2565b005b6103b66004803603604081101561038057600080fd5b81019080803573ffffffffffffffffffffffffffffffffffffffff16906020019092919080359060200190929190505050610e68565b6040518082815260200191505060405180910390f35b610418600480360360408110156103e257600080fd5b81019080803573ffffffffffffffffffffffffffffffffffffffff16906020019092919080359060200190929190505050610ec3565b005b6104866004803603606081101561043057600080fd5b81019080803573ffffffffffffffffffffffffffffffffffffffff169060200190929190803573ffffffffffffffffffffffffffffffffffffffff16906020019092919080359060200190929190505050610f9b565b005b6104b46004803603602081101561049e57600080fd5b8101908080359060200190929190505050610fbb565b005b610606600480360360408110156104cc57600080fd5b81019080803590602001906401000000008111156104e957600080fd5b8201836020820111156104fb57600080fd5b8035906020019184600183028401116401000000008311171561051d57600080fd5b91908080601f016020809104026020016040519081016040528093929190818152602001838380828437600081840152601f19601f8201169050808301925050505050505091929192908035906020019064010000000081111561058057600080fd5b82018360208201111561059257600080fd5b803590602001918460018302840111640100000000831117156105b457600080fd5b91908080601f016020809104026020016040519081016040528093929190818152602001838380828437600081840152601f19601f820116905080830192505050505050509192919290505050611091565b005b6106346004803603602081101561061e57600080fd5b81019080803590602001909291905050506111a3565b6040518082815260200191505060405180910390f35b6106766004803603602081101561066057600080fd5b81019080803590602001909291905050506111c6565b604051808273ffffffffffffffffffffffffffffffffffffffff16815260200191505060405180910390f35b6106aa6111fd565b6040518080602001828103825283818151815260200191508051906020019080838360005b838110156106ea5780820151818401526020810190506106cf565b50505050905090810190601f1680156107175780820380516001836020036101000a031916815260200191505b509250505060405180910390f35b6107676004803603602081101561073b57600080fd5b81019080803573ffffffffffffffffffffffffffffffffffffffff16906020019092919050505061129f565b6040518082815260200191505060405180910390f35b610785611374565b005b61078f6114ff565b604051808273ffffffffffffffffffffffffffffffffffffffff16815260200191505060405180910390f35b6107c3611529565b6040518080602001828103825283818151815260200191508051906020019080838360005b838110156108035780820151818401526020810190506107e8565b50505050905090810190601f1680156108305780820380516001836020036101000a031916815260200191505b509250505060405180910390f35b61088c6004803603604081101561085457600080fd5b81019080803573ffffffffffffffffffffffffffffffffffffffff1690602001909291908035151590602001909291905050506115cb565b005b610991600480360360808110156108a457600080fd5b81019080803573ffffffffffffffffffffffffffffffffffffffff169060200190929190803573ffffffffffffffffffffffffffffffffffffffff169060200190929190803590602001909291908035906020019064010000000081111561090b57600080fd5b82018360208201111561091d57600080fd5b8035906020019184600183028401116401000000008311171561093f57600080fd5b91908080601f016020809104026020016040519081016040528093929190818152602001838380828437600081840152601f19601f820116905080830192505050505050509192919290505050611781565b005b6109bf600480360360208110156109a957600080fd5b81019080803590602001909291905050506117f9565b6040518080602001828103825283818151815260200191508051906020019080838360005b838110156109ff5780820151818401526020810190506109e4565b50505050905090810190601f168015610a2c5780820380516001836020036101000a031916815260200191505b509250505060405180910390f35b610a9c60048036036040811015610a5057600080fd5b81019080803573ffffffffffffffffffffffffffffffffffffffff169060200190929190803573ffffffffffffffffffffffffffffffffffffffff169060200190929190505050611ae2565b60405180821515815260200191505060405180910390f35b610af660048036036020811015610aca57600080fd5b81019080803573ffffffffffffffffffffffffffffffffffffffff169060200190929190505050611b76565b005b600060656000837bffffffffffffffffffffffffffffffffffffffffffffffffffffffff19167bffffffffffffffffffffffffffffffffffffffffffffffffffffffff1916815260200190815260200160002060009054906101000a900460ff169050919050565b6060609c8054600181600116156101000203166002900480601f016020809104026020016040519081016040528092919081815260200182805460018160011615610100020316600290048015610bf85780601f10610bcd57610100808354040283529160200191610bf8565b820191906000526020600020905b815481529060010190602001808311610bdb57829003601f168201915b5050505050905090565b6000610c0d82611d86565b610c62576040517f08c379a000000000000000000000000000000000000000000000000000000000815260040180806020018281038252602c815260200180613c01602c913960400191505060405180910390fd5b609a600083815260200190815260200160002060009054906101000a900473ffffffffffffffffffffffffffffffffffffffff169050919050565b6000610ca8826111c6565b90508073ffffffffffffffffffffffffffffffffffffffff168373ffffffffffffffffffffffffffffffffffffffff161415610d2f576040517f08c379a0000000000000000000000000000000000000000000000000000000008152600401808060200182810382526021815260200180613cb36021913960400191505060405180910390fd5b8073ffffffffffffffffffffffffffffffffffffffff16610d4e611da3565b73ffffffffffffffffffffffffffffffffffffffff161480610d7d5750610d7c81610d77611da3565b611ae2565b5b610dd2576040517f08c379a0000000000000000000000000000000000000000000000000000000008152600401808060200182810382526038815260200180613b546038913960400191505060405180910390fd5b610ddc8383611dab565b505050565b6000610ded6098611e64565b905090565b610e03610dfd611da3565b82611e79565b610e58576040517f08c379a0000000000000000000000000000000000000000000000000000000008152600401808060200182810382526031815260200180613cd46031913960400191505060405180910390fd5b610e63838383611f6d565b505050565b6000610ebb82609760008673ffffffffffffffffffffffffffffffffffffffff1673ffffffffffffffffffffffffffffffffffffffff1681526020019081526020016000206121b090919063ffffffff16565b905092915050565b610ecb611da3565b73ffffffffffffffffffffffffffffffffffffffff1660c960009054906101000a900473ffffffffffffffffffffffffffffffffffffffff1673ffffffffffffffffffffffffffffffffffffffff1614610f8d576040517f08c379a00000000000000000000000000000000000000000000000000000000081526004018080602001828103825260208152602001807f4f776e61626c653a2063616c6c6572206973206e6f7420746865206f776e657281525060200191505060405180910390fd5b610f9782826121ca565b5050565b610fb683838360405180602001604052806000815250611781565b505050565b610fc3611da3565b73ffffffffffffffffffffffffffffffffffffffff1660c960009054906101000a900473ffffffffffffffffffffffffffffffffffffffff1673ffffffffffffffffffffffffffffffffffffffff1614611085576040517f08c379a00000000000000000000000000000000000000000000000000000000081526004018080602001828103825260208152602001807f4f776e61626c653a2063616c6c6572206973206e6f7420746865206f776e657281525060200191505060405180910390fd5b61108e816121e8565b50565b600060019054906101000a900460ff16806110b057506110af612322565b5b806110c6575060008054906101000a900460ff16155b61111b576040517f08c379a000000000000000000000000000000000000000000000000000000000815260040180806020018281038252602e815260200180613c2d602e913960400191505060405180910390fd5b60008060019054906101000a900460ff16159050801561116b576001600060016101000a81548160ff02191690831515021790555060016000806101000a81548160ff0219169083151502179055505b611173612339565b61117d8383612447565b801561119e5760008060016101000a81548160ff0219169083151502179055505b505050565b6000806111ba83609861256190919063ffffffff16565b50905080915050919050565b60006111f682604051806060016040528060298152602001613bb660299139609861258d9092919063ffffffff16565b9050919050565b6060609f8054600181600116156101000203166002900480601f0160208091040260200160405190810160405280929190818152602001828054600181600116156101000203166002900480156112955780601f1061126a57610100808354040283529160200191611295565b820191906000526020600020905b81548152906001019060200180831161127857829003601f168201915b5050505050905090565b60008073ffffffffffffffffffffffffffffffffffffffff168273ffffffffffffffffffffffffffffffffffffffff161415611326576040517f08c379a000000000000000000000000000000000000000000000000000000000815260040180806020018281038252602a815260200180613b8c602a913960400191505060405180910390fd5b61136d609760008473ffffffffffffffffffffffffffffffffffffffff1673ffffffffffffffffffffffffffffffffffffffff1681526020019081526020016000206125ac565b9050919050565b61137c611da3565b73ffffffffffffffffffffffffffffffffffffffff1660c960009054906101000a900473ffffffffffffffffffffffffffffffffffffffff1673ffffffffffffffffffffffffffffffffffffffff161461143e576040517f08c379a00000000000000000000000000000000000000000000000000000000081526004018080602001828103825260208152602001807f4f776e61626c653a2063616c6c6572206973206e6f7420746865206f776e657281525060200191505060405180910390fd5b600073ffffffffffffffffffffffffffffffffffffffff1660c960009054906101000a900473ffffffffffffffffffffffffffffffffffffffff1673ffffffffffffffffffffffffffffffffffffffff167f8be0079c531659141344cd1fd0a4f28419497f9722a3daafe3b4186f6b6457e060405160405180910390a3600060c960006101000a81548173ffffffffffffffffffffffffffffffffffffffff021916908373ffffffffffffffffffffffffffffffffffffffff160217905550565b600060c960009054906101000a900473ffffffffffffffffffffffffffffffffffffffff16905090565b6060609d8054600181600116156101000203166002900480601f0160208091040260200160405190810160405280929190818152602001828054600181600116156101000203166002900480156115c15780601f10611596576101008083540402835291602001916115c1565b820191906000526020600020905b8154815290600101906020018083116115a457829003601f168201915b5050505050905090565b6115d3611da3565b73ffffffffffffffffffffffffffffffffffffffff168273ffffffffffffffffffffffffffffffffffffffff161415611674576040517f08c379a00000000000000000000000000000000000000000000000000000000081526004018080602001828103825260198152602001807f4552433732313a20617070726f766520746f2063616c6c65720000000000000081525060200191505060405180910390fd5b80609b6000611681611da3565b73ffffffffffffffffffffffffffffffffffffffff1673ffffffffffffffffffffffffffffffffffffffff16815260200190815260200160002060008473ffffffffffffffffffffffffffffffffffffffff1673ffffffffffffffffffffffffffffffffffffffff16815260200190815260200160002060006101000a81548160ff0219169083151502179055508173ffffffffffffffffffffffffffffffffffffffff1661172e611da3565b73ffffffffffffffffffffffffffffffffffffffff167f17307eab39ab6107e8899845ad3d59bd9653f200f220920489ca2b5937696c318360405180821515815260200191505060405180910390a35050565b61179261178c611da3565b83611e79565b6117e7576040517f08c379a0000000000000000000000000000000000000000000000000000000008152600401808060200182810382526031815260200180613cd46031913960400191505060405180910390fd5b6117f3848484846125c1565b50505050565b606061180482611d86565b611859576040517f08c379a000000000000000000000000000000000000000000000000000000000815260040180806020018281038252602f815260200180613c84602f913960400191505060405180910390fd5b6060609e60008481526020019081526020016000208054600181600116156101000203166002900480601f0160208091040260200160405190810160405280929190818152602001828054600181600116156101000203166002900480156119025780601f106118d757610100808354040283529160200191611902565b820191906000526020600020905b8154815290600101906020018083116118e557829003601f168201915b505050505090506000609f80546001816001161561010002031660029004905014156119315780915050611add565b600081511115611a0a57609f81604051602001808380546001816001161561010002031660029004801561199c5780601f1061197a57610100808354040283529182019161199c565b820191906000526020600020905b815481529060010190602001808311611988575b505082805190602001908083835b602083106119cd57805182526020820191506020810190506020830392506119aa565b6001836020036101000a03801982511681845116808217855250505050505090500192505050604051602081830303815290604052915050611add565b609f611a1584612633565b6040516020018083805460018160011615610100020316600290048015611a735780601f10611a51576101008083540402835291820191611a73565b820191906000526020600020905b815481529060010190602001808311611a5f575b505082805190602001908083835b60208310611aa45780518252602082019150602081019050602083039250611a81565b6001836020036101000a038019825116818451168082178552505050505050905001925050506040516020818303038152906040529150505b919050565b6000609b60008473ffffffffffffffffffffffffffffffffffffffff1673ffffffffffffffffffffffffffffffffffffffff16815260200190815260200160002060008373ffffffffffffffffffffffffffffffffffffffff1673ffffffffffffffffffffffffffffffffffffffff16815260200190815260200160002060009054906101000a900460ff16905092915050565b611b7e611da3565b73ffffffffffffffffffffffffffffffffffffffff1660c960009054906101000a900473ffffffffffffffffffffffffffffffffffffffff1673ffffffffffffffffffffffffffffffffffffffff1614611c40576040517f08c379a00000000000000000000000000000000000000000000000000000000081526004018080602001828103825260208152602001807f4f776e61626c653a2063616c6c6572206973206e6f7420746865206f776e657281525060200191505060405180910390fd5b600073ffffffffffffffffffffffffffffffffffffffff168173ffffffffffffffffffffffffffffffffffffffff161415611cc6576040517f08c379a0000000000000000000000000000000000000000000000000000000008152600401808060200182810382526026815260200180613ade6026913960400191505060405180910390fd5b8073ffffffffffffffffffffffffffffffffffffffff1660c960009054906101000a900473ffffffffffffffffffffffffffffffffffffffff1673ffffffffffffffffffffffffffffffffffffffff167f8be0079c531659141344cd1fd0a4f28419497f9722a3daafe3b4186f6b6457e060405160405180910390a38060c960006101000a81548173ffffffffffffffffffffffffffffffffffffffff021916908373ffffffffffffffffffffffffffffffffffffffff16021790555050565b6000611d9c82609861277a90919063ffffffff16565b9050919050565b600033905090565b81609a600083815260200190815260200160002060006101000a81548173ffffffffffffffffffffffffffffffffffffffff021916908373ffffffffffffffffffffffffffffffffffffffff160217905550808273ffffffffffffffffffffffffffffffffffffffff16611e1e836111c6565b73ffffffffffffffffffffffffffffffffffffffff167f8c5be1e5ebec7d5bd14f71427d1e84f3dd0314c0f7b2291e5b200ac8c7c3b92560405160405180910390a45050565b6000611e7282600001612794565b9050919050565b6000611e8482611d86565b611ed9576040517f08c379a000000000000000000000000000000000000000000000000000000000815260040180806020018281038252602c815260200180613b28602c913960400191505060405180910390fd5b6000611ee4836111c6565b90508073ffffffffffffffffffffffffffffffffffffffff168473ffffffffffffffffffffffffffffffffffffffff161480611f5357508373ffffffffffffffffffffffffffffffffffffffff16611f3b84610c02565b73ffffffffffffffffffffffffffffffffffffffff16145b80611f645750611f638185611ae2565b5b91505092915050565b8273ffffffffffffffffffffffffffffffffffffffff16611f8d826111c6565b73ffffffffffffffffffffffffffffffffffffffff1614611ff9576040517f08c379a0000000000000000000000000000000000000000000000000000000008152600401808060200182810382526029815260200180613c5b6029913960400191505060405180910390fd5b600073ffffffffffffffffffffffffffffffffffffffff168273ffffffffffffffffffffffffffffffffffffffff16141561207f576040517f08c379a0000000000000000000000000000000000000000000000000000000008152600401808060200182810382526024815260200180613b046024913960400191505060405180910390fd5b61208a8383836127a5565b612095600082611dab565b6120e681609760008673ffffffffffffffffffffffffffffffffffffffff1673ffffffffffffffffffffffffffffffffffffffff1681526020019081526020016000206127aa90919063ffffffff16565b5061213881609760008573ffffffffffffffffffffffffffffffffffffffff1673ffffffffffffffffffffffffffffffffffffffff1681526020019081526020016000206127c490919063ffffffff16565b5061214f818360986127de9092919063ffffffff16565b50808273ffffffffffffffffffffffffffffffffffffffff168473ffffffffffffffffffffffffffffffffffffffff167fddf252ad1be2c89b69c2b068fc378daa952ba7f163c4a11628f55a4df523b3ef60405160405180910390a4505050565b60006121bf8360000183612813565b60001c905092915050565b6121e4828260405180602001604052806000815250612896565b5050565b60006121f3826111c6565b9050612201816000846127a5565b61220c600083611dab565b6000609e60008481526020019081526020016000208054600181600116156101000203166002900490501461225b57609e6000838152602001908152602001600020600061225a91906139a4565b5b6122ac82609760008473ffffffffffffffffffffffffffffffffffffffff1673ffffffffffffffffffffffffffffffffffffffff1681526020019081526020016000206127aa90919063ffffffff16565b506122c182609861290790919063ffffffff16565b5081600073ffffffffffffffffffffffffffffffffffffffff168273ffffffffffffffffffffffffffffffffffffffff167fddf252ad1be2c89b69c2b068fc378daa952ba7f163c4a11628f55a4df523b3ef60405160405180910390a45050565b6000803090506000813b9050600081149250505090565b600060019054906101000a900460ff16806123585750612357612322565b5b8061236e575060008054906101000a900460ff16155b6123c3576040517f08c379a000000000000000000000000000000000000000000000000000000000815260040180806020018281038252602e815260200180613c2d602e913960400191505060405180910390fd5b60008060019054906101000a900460ff161590508015612413576001600060016101000a81548160ff02191690831515021790555060016000806101000a81548160ff0219169083151502179055505b61241b612921565b612423612a1f565b80156124445760008060016101000a81548160ff0219169083151502179055505b50565b600060019054906101000a900460ff16806124665750612465612322565b5b8061247c575060008054906101000a900460ff16155b6124d1576040517f08c379a000000000000000000000000000000000000000000000000000000000815260040180806020018281038252602e815260200180613c2d602e913960400191505060405180910390fd5b60008060019054906101000a900460ff161590508015612521576001600060016101000a81548160ff02191690831515021790555060016000806101000a81548160ff0219169083151502179055505b612529612921565b612531612bc6565b61253b8383612cd4565b801561255c5760008060016101000a81548160ff0219169083151502179055505b505050565b6000806000806125748660000186612e32565b915091508160001c8160001c9350935050509250929050565b60006125a0846000018460001b84612ecb565b60001c90509392505050565b60006125ba82600001612fc1565b9050919050565b6125cc848484611f6d565b6125d884848484612fd2565b61262d576040517f08c379a0000000000000000000000000000000000000000000000000000000008152600401808060200182810382526032815260200180613aac6032913960400191505060405180910390fd5b50505050565b6060600082141561267b576040518060400160405280600181526020017f30000000000000000000000000000000000000000000000000000000000000008152509050612775565b600082905060005b600082146126a5578080600101915050600a828161269d57fe5b049150612683565b60608167ffffffffffffffff811180156126be57600080fd5b506040519080825280601f01601f1916602001820160405280156126f15781602001600182028036833780820191505090505b50905060006001830390508593505b6000841461276d57600a848161271257fe5b0660300160f81b8282806001900393508151811061272c57fe5b60200101907effffffffffffffffffffffffffffffffffffffffffffffffffffffffffffff1916908160001a905350600a848161276557fe5b049350612700565b819450505050505b919050565b600061278c836000018360001b6132c9565b905092915050565b600081600001805490509050919050565b505050565b60006127bc836000018360001b6132ec565b905092915050565b60006127d6836000018360001b6133d4565b905092915050565b600061280a846000018460001b8473ffffffffffffffffffffffffffffffffffffffff1660001b613444565b90509392505050565b600081836000018054905011612874576040517f08c379a0000000000000000000000000000000000000000000000000000000008152600401808060200182810382526022815260200180613a8a6022913960400191505060405180910390fd5b82600001828154811061288357fe5b9060005260206000200154905092915050565b6128a08383613520565b6128ad6000848484612fd2565b612902576040517f08c379a0000000000000000000000000000000000000000000000000000000008152600401808060200182810382526032815260200180613aac6032913960400191505060405180910390fd5b505050565b6000612919836000018360001b613714565b905092915050565b600060019054906101000a900460ff1680612940575061293f612322565b5b80612956575060008054906101000a900460ff16155b6129ab576040517f08c379a000000000000000000000000000000000000000000000000000000000815260040180806020018281038252602e815260200180613c2d602e913960400191505060405180910390fd5b60008060019054906101000a900460ff1615905080156129fb576001600060016101000a81548160ff02191690831515021790555060016000806101000a81548160ff0219169083151502179055505b8015612a1c5760008060016101000a81548160ff0219169083151502179055505b50565b600060019054906101000a900460ff1680612a3e5750612a3d612322565b5b80612a54575060008054906101000a900460ff16155b612aa9576040517f08c379a000000000000000000000000000000000000000000000000000000000815260040180806020018281038252602e815260200180613c2d602e913960400191505060405180910390fd5b60008060019054906101000a900460ff161590508015612af9576001600060016101000a81548160ff02191690831515021790555060016000806101000a81548160ff0219169083151502179055505b6000612b03611da3565b90508060c960006101000a81548173ffffffffffffffffffffffffffffffffffffffff021916908373ffffffffffffffffffffffffffffffffffffffff1602179055508073ffffffffffffffffffffffffffffffffffffffff16600073ffffffffffffffffffffffffffffffffffffffff167f8be0079c531659141344cd1fd0a4f28419497f9722a3daafe3b4186f6b6457e060405160405180910390a3508015612bc35760008060016101000a81548160ff0219169083151502179055505b50565b600060019054906101000a900460ff1680612be55750612be4612322565b5b80612bfb575060008054906101000a900460ff16155b612c50576040517f08c379a000000000000000000000000000000000000000000000000000000000815260040180806020018281038252602e815260200180613c2d602e913960400191505060405180910390fd5b60008060019054906101000a900460ff161590508015612ca0576001600060016101000a81548160ff02191690831515021790555060016000806101000a81548160ff0219169083151502179055505b612cb06301ffc9a760e01b61382d565b8015612cd15760008060016101000a81548160ff0219169083151502179055505b50565b600060019054906101000a900460ff1680612cf35750612cf2612322565b5b80612d09575060008054906101000a900460ff16155b612d5e576040517f08c379a000000000000000000000000000000000000000000000000000000000815260040180806020018281038252602e815260200180613c2d602e913960400191505060405180910390fd5b60008060019054906101000a900460ff161590508015612dae576001600060016101000a81548160ff02191690831515021790555060016000806101000a81548160ff0219169083151502179055505b82609c9080519060200190612dc49291906139ec565b5081609d9080519060200190612ddb9291906139ec565b50612dec6380ac58cd60e01b61382d565b612dfc635b5e139f60e01b61382d565b612e0c63780e9d6360e01b61382d565b8015612e2d5760008060016101000a81548160ff0219169083151502179055505b505050565b60008082846000018054905011612e94576040517f08c379a0000000000000000000000000000000000000000000000000000000008152600401808060200182810382526022815260200180613bdf6022913960400191505060405180910390fd5b6000846000018481548110612ea557fe5b906000526020600020906002020190508060000154816001015492509250509250929050565b60008084600101600085815260200190815260200160002054905060008114158390612f92576040517f08c379a00000000000000000000000000000000000000000000000000000000081526004018080602001828103825283818151815260200191508051906020019080838360005b83811015612f57578082015181840152602081019050612f3c565b50505050905090810190601f168015612f845780820380516001836020036101000a031916815260200191505b509250505060405180910390fd5b50846000016001820381548110612fa557fe5b9060005260206000209060020201600101549150509392505050565b600081600001805490509050919050565b6000612ff38473ffffffffffffffffffffffffffffffffffffffff16613936565b61300057600190506132c1565b600060608573ffffffffffffffffffffffffffffffffffffffff1663150b7a0260e01b61302b611da3565b898888604051602401808573ffffffffffffffffffffffffffffffffffffffff1681526020018473ffffffffffffffffffffffffffffffffffffffff16815260200183815260200180602001828103825283818151815260200191508051906020019080838360005b838110156130af578082015181840152602081019050613094565b50505050905090810190601f1680156130dc5780820380516001836020036101000a031916815260200191505b5095505050505050604051602081830303815290604052907bffffffffffffffffffffffffffffffffffffffffffffffffffffffff19166020820180517bffffffffffffffffffffffffffffffffffffffffffffffffffffffff83818316178352505050506040518082805190602001908083835b602083106131745780518252602082019150602081019050602083039250613151565b6001836020036101000a0380198251168184511680821785525050505050509050019150506000604051808303816000865af19150503d80600081146131d6576040519150601f19603f3d011682016040523d82523d6000602084013e6131db565b606091505b509150915081613249576000815111156131f85780518082602001fd5b6040517f08c379a0000000000000000000000000000000000000000000000000000000008152600401808060200182810382526032815260200180613aac6032913960400191505060405180910390fd5b600081806020019051602081101561326057600080fd5b8101908080519060200190929190505050905063150b7a0260e01b7bffffffffffffffffffffffffffffffffffffffffffffffffffffffff1916817bffffffffffffffffffffffffffffffffffffffffffffffffffffffff19161493505050505b949350505050565b600080836001016000848152602001908152602001600020541415905092915050565b600080836001016000848152602001908152602001600020549050600081146133c8576000600182039050600060018660000180549050039050600086600001828154811061333757fe5b906000526020600020015490508087600001848154811061335457fe5b906000526020600020018190555060018301876001016000838152602001908152602001600020819055508660000180548061338c57fe5b600190038181906000526020600020016000905590558660010160008781526020019081526020016000206000905560019450505050506133ce565b60009150505b92915050565b60006133e08383613981565b61343957826000018290806001815401808255809150506001900390600052602060002001600090919091909150558260000180549050836001016000848152602001908152602001600020819055506001905061343e565b600090505b92915050565b60008084600101600085815260200190815260200160002054905060008114156134eb57846000016040518060400160405280868152602001858152509080600181540180825580915050600190039060005260206000209060020201600090919091909150600082015181600001556020820151816001015550508460000180549050856001016000868152602001908152602001600020819055506001915050613519565b828560000160018303815481106134fe57fe5b90600052602060002090600202016001018190555060009150505b9392505050565b600073ffffffffffffffffffffffffffffffffffffffff168273ffffffffffffffffffffffffffffffffffffffff1614156135c3576040517f08c379a00000000000000000000000000000000000000000000000000000000081526004018080602001828103825260208152602001807f4552433732313a206d696e7420746f20746865207a65726f206164647265737381525060200191505060405180910390fd5b6135cc81611d86565b1561363f576040517f08c379a000000000000000000000000000000000000000000000000000000000815260040180806020018281038252601c8152602001807f4552433732313a20746f6b656e20616c7265616479206d696e7465640000000081525060200191505060405180910390fd5b61364b600083836127a5565b61369c81609760008573ffffffffffffffffffffffffffffffffffffffff1673ffffffffffffffffffffffffffffffffffffffff1681526020019081526020016000206127c490919063ffffffff16565b506136b3818360986127de9092919063ffffffff16565b50808273ffffffffffffffffffffffffffffffffffffffff16600073ffffffffffffffffffffffffffffffffffffffff167fddf252ad1be2c89b69c2b068fc378daa952ba7f163c4a11628f55a4df523b3ef60405160405180910390a45050565b60008083600101600084815260200190815260200160002054905060008114613821576000600182039050600060018660000180549050039050600086600001828154811061375f57fe5b906000526020600020906002020190508087600001848154811061377f57fe5b90600052602060002090600202016000820154816000015560018201548160010155905050600183018760010160008360000154815260200190815260200160002081905550866000018054806137d257fe5b6001900381819060005260206000209060020201600080820160009055600182016000905550509055866001016000878152602001908152602001600020600090556001945050505050613827565b60009150505b92915050565b63ffffffff60e01b817bffffffffffffffffffffffffffffffffffffffffffffffffffffffff191614156138c9576040517f08c379a000000000000000000000000000000000000000000000000000000000815260040180806020018281038252601c8152602001807f4552433136353a20696e76616c696420696e746572666163652069640000000081525060200191505060405180910390fd5b600160656000837bffffffffffffffffffffffffffffffffffffffffffffffffffffffff19167bffffffffffffffffffffffffffffffffffffffffffffffffffffffff1916815260200190815260200160002060006101000a81548160ff02191690831515021790555050565b60008060007fc5d2460186f7233c927e7db2dcc703c0e500b653ca82273b7bfad8045d85a47060001b9050833f915080821415801561397857506000801b8214155b92505050919050565b600080836001016000848152602001908152602001600020541415905092915050565b50805460018160011615610100020316600290046000825580601f106139ca57506139e9565b601f0160209004906000526020600020908101906139e89190613a6c565b5b50565b828054600181600116156101000203166002900490600052602060002090601f016020900481019282601f10613a2d57805160ff1916838001178555613a5b565b82800160010185558215613a5b579182015b82811115613a5a578251825591602001919060010190613a3f565b5b509050613a689190613a6c565b5090565b5b80821115613a85576000816000905550600101613a6d565b509056fe456e756d657261626c655365743a20696e646578206f7574206f6620626f756e64734552433732313a207472616e7366657220746f206e6f6e20455243373231526563656976657220696d706c656d656e7465724f776e61626c653a206e6577206f776e657220697320746865207a65726f20616464726573734552433732313a207472616e7366657220746f20746865207a65726f20616464726573734552433732313a206f70657261746f7220717565727920666f72206e6f6e6578697374656e7420746f6b656e4552433732313a20617070726f76652063616c6c6572206973206e6f74206f776e6572206e6f7220617070726f76656420666f7220616c6c4552433732313a2062616c616e636520717565727920666f7220746865207a65726f20616464726573734552433732313a206f776e657220717565727920666f72206e6f6e6578697374656e7420746f6b656e456e756d657261626c654d61703a20696e646578206f7574206f6620626f756e64734552433732313a20617070726f76656420717565727920666f72206e6f6e6578697374656e7420746f6b656e436f6e747261637420696e7374616e63652068617320616c7265616479206265656e20696e697469616c697a65644552433732313a207472616e73666572206f6620746f6b656e2074686174206973206e6f74206f776e4552433732314d657461646174613a2055524920717565727920666f72206e6f6e6578697374656e7420746f6b656e4552433732313a20617070726f76616c20746f2063757272656e74206f776e65724552433732313a207472616e736665722063616c6c6572206973206e6f74206f776e6572206e6f7220617070726f766564a2646970667358221220d435c5926c2c5d6153b5530f39a2aa9027d7d7b2b9b0a34fbfa77ce5f8ede29864736f6c634300060c0033",
  "compiler": {
    "name": "solc",
    "version": "0.6.12+commit.27d51765.Emscripten.clang",
    "optimizer": {
      "enabled": false,
      "runs": 200
    },
    "evmVersion": "petersburg"
  }
}