{
  "contractName": "Gallery",
  "abi": [
    {
      "anonymous": false,
      "inputs": [
        {
          "indexed": false,
          "internalType": "uint256",
          "name": "rewards",
          "type": "uint256"
        }
      ],
      "name": "FigureClaimed",
      "type": "event"
    },
    {
      "anonymous": false,
      "inputs": [
        {
          "indexed": true,
          "internalType": "uint256",
          "name": "figureId",
          "type": "uint256"
        },
        {
          "indexed": false,
          "internalType": "uint256",
          "name": "votes",
          "type": "uint256"
        }
      ],
      "name": "FigureCreated",
      "type": "event"
    },
    {
      "anonymous": false,
      "inputs": [
        {
          "indexed": true,
          "internalType": "uint256",
          "name": "figureId",
          "type": "uint256"
        },
        {
          "indexed": false,
          "internalType": "uint256",
          "name": "votes",
          "type": "uint256"
        }
      ],
      "name": "FigureVoted",
      "type": "event"
    },
    {
      "anonymous": false,
      "inputs": [
        {
          "indexed": false,
          "internalType": "uint256",
          "name": "votes",
          "type": "uint256"
        }
      ],
      "name": "FigureWithdrawn",
      "type": "event"
    },
    {
      "anonymous": false,
      "inputs": [
        {
          "indexed": true,
          "internalType": "address",
          "name": "previousOwner",
          "type": "address"
        },
        {
          "indexed": true,
          "internalType": "address",
          "name": "newOwner",
          "type": "address"
        }
      ],
      "name": "OwnershipTransferred",
      "type": "event"
    },
    {
      "anonymous": false,
      "inputs": [
        {
          "indexed": false,
          "internalType": "address",
          "name": "account",
          "type": "address"
        }
      ],
      "name": "Paused",
      "type": "event"
    },
    {
      "anonymous": false,
      "inputs": [
        {
          "indexed": false,
          "internalType": "uint256",
          "name": "votes",
          "type": "uint256"
        }
      ],
      "name": "ProposalBurned",
      "type": "event"
    },
    {
      "anonymous": false,
      "inputs": [
        {
          "indexed": false,
          "internalType": "uint256",
          "name": "rewards",
          "type": "uint256"
        }
      ],
      "name": "ProposalClaimed",
      "type": "event"
    },
    {
      "anonymous": false,
      "inputs": [
        {
          "indexed": true,
          "internalType": "uint256",
          "name": "proposalId",
          "type": "uint256"
        },
        {
          "indexed": false,
          "internalType": "uint256",
          "name": "votes",
          "type": "uint256"
        }
      ],
      "name": "ProposalCreated",
      "type": "event"
    },
    {
      "anonymous": false,
      "inputs": [
        {
          "indexed": true,
          "internalType": "uint256",
          "name": "proposalId",
          "type": "uint256"
        },
        {
          "indexed": false,
          "internalType": "uint256",
          "name": "votes",
          "type": "uint256"
        }
      ],
      "name": "ProposalVoted",
      "type": "event"
    },
    {
      "anonymous": false,
      "inputs": [
        {
          "indexed": false,
          "internalType": "uint256",
          "name": "votes",
          "type": "uint256"
        }
      ],
      "name": "ProposalWithdrawn",
      "type": "event"
    },
    {
      "anonymous": false,
      "inputs": [
        {
          "indexed": false,
          "internalType": "address",
          "name": "account",
          "type": "address"
        }
      ],
      "name": "Unpaused",
      "type": "event"
    },
    {
      "inputs": [
        {
          "internalType": "uint256",
          "name": "",
          "type": "uint256"
        }
      ],
      "name": "figureVotes",
      "outputs": [
        {
          "internalType": "uint256",
          "name": "",
          "type": "uint256"
        }
      ],
      "stateMutability": "view",
      "type": "function",
      "constant": true
    },
    {
      "inputs": [
        {
          "internalType": "uint256",
          "name": "",
          "type": "uint256"
        }
      ],
      "name": "figures",
      "outputs": [
        {
          "internalType": "uint256",
          "name": "proposalId",
          "type": "uint256"
        },
        {
          "internalType": "address",
          "name": "author",
          "type": "address"
        },
        {
          "internalType": "string",
          "name": "info",
          "type": "string"
        },
        {
          "internalType": "uint256",
          "name": "createAt",
          "type": "uint256"
        }
      ],
      "stateMutability": "view",
      "type": "function",
      "constant": true
    },
    {
      "inputs": [
        {
          "internalType": "uint256",
          "name": "",
          "type": "uint256"
        },
        {
          "internalType": "uint256",
          "name": "",
          "type": "uint256"
        }
      ],
      "name": "figuresOfProposal",
      "outputs": [
        {
          "internalType": "uint256",
          "name": "",
          "type": "uint256"
        }
      ],
      "stateMutability": "view",
      "type": "function",
      "constant": true
    },
    {
      "inputs": [
        {
          "internalType": "address",
          "name": "",
          "type": "address"
        }
      ],
      "name": "myFigureClaimed",
      "outputs": [
        {
          "internalType": "bool",
          "name": "",
          "type": "bool"
        }
      ],
      "stateMutability": "view",
      "type": "function",
      "constant": true
    },
    {
      "inputs": [
        {
          "internalType": "address",
          "name": "",
          "type": "address"
        }
      ],
      "name": "myFigureUpdateAt",
      "outputs": [
        {
          "internalType": "uint256",
          "name": "",
          "type": "uint256"
        }
      ],
      "stateMutability": "view",
      "type": "function",
      "constant": true
    },
    {
      "inputs": [
        {
          "internalType": "address",
          "name": "",
          "type": "address"
        }
      ],
      "name": "myFigureVotes",
      "outputs": [
        {
          "internalType": "uint256",
          "name": "",
          "type": "uint256"
        }
      ],
      "stateMutability": "view",
      "type": "function",
      "constant": true
    },
    {
      "inputs": [
        {
          "internalType": "address",
          "name": "",
          "type": "address"
        }
      ],
      "name": "myFigureWithdrawn",
      "outputs": [
        {
          "internalType": "bool",
          "name": "",
          "type": "bool"
        }
      ],
      "stateMutability": "view",
      "type": "function",
      "constant": true
    },
    {
      "inputs": [
        {
          "internalType": "address",
          "name": "",
          "type": "address"
        },
        {
          "internalType": "uint256",
          "name": "",
          "type": "uint256"
        }
      ],
      "name": "myFigures",
      "outputs": [
        {
          "internalType": "uint256",
          "name": "",
          "type": "uint256"
        }
      ],
      "stateMutability": "view",
      "type": "function",
      "constant": true
    },
    {
      "inputs": [
        {
          "internalType": "address",
          "name": "",
          "type": "address"
        }
      ],
      "name": "myProposalClaimed",
      "outputs": [
        {
          "internalType": "bool",
          "name": "",
          "type": "bool"
        }
      ],
      "stateMutability": "view",
      "type": "function",
      "constant": true
    },
    {
      "inputs": [
        {
          "internalType": "address",
          "name": "",
          "type": "address"
        }
      ],
      "name": "myProposalUpdateAt",
      "outputs": [
        {
          "internalType": "uint256",
          "name": "",
          "type": "uint256"
        }
      ],
      "stateMutability": "view",
      "type": "function",
      "constant": true
    },
    {
      "inputs": [
        {
          "internalType": "address",
          "name": "",
          "type": "address"
        }
      ],
      "name": "myProposalVotes",
      "outputs": [
        {
          "internalType": "uint256",
          "name": "",
          "type": "uint256"
        }
      ],
      "stateMutability": "view",
      "type": "function",
      "constant": true
    },
    {
      "inputs": [
        {
          "internalType": "address",
          "name": "",
          "type": "address"
        }
      ],
      "name": "myProposalWithdrawn",
      "outputs": [
        {
          "internalType": "bool",
          "name": "",
          "type": "bool"
        }
      ],
      "stateMutability": "view",
      "type": "function",
      "constant": true
    },
    {
      "inputs": [
        {
          "internalType": "address",
          "name": "",
          "type": "address"
        },
        {
          "internalType": "uint256",
          "name": "",
          "type": "uint256"
        }
      ],
      "name": "myProposals",
      "outputs": [
        {
          "internalType": "uint256",
          "name": "",
          "type": "uint256"
        }
      ],
      "stateMutability": "view",
      "type": "function",
      "constant": true
    },
    {
      "inputs": [
        {
          "internalType": "address",
          "name": "",
          "type": "address"
        },
        {
          "internalType": "uint256",
          "name": "",
          "type": "uint256"
        }
      ],
      "name": "mySingleFigureVotes",
      "outputs": [
        {
          "internalType": "uint256",
          "name": "",
          "type": "uint256"
        }
      ],
      "stateMutability": "view",
      "type": "function",
      "constant": true
    },
    {
      "inputs": [
        {
          "internalType": "address",
          "name": "",
          "type": "address"
        },
        {
          "internalType": "uint256",
          "name": "",
          "type": "uint256"
        }
      ],
      "name": "mySingleProposalVotes",
      "outputs": [
        {
          "internalType": "uint256",
          "name": "",
          "type": "uint256"
        }
      ],
      "stateMutability": "view",
      "type": "function",
      "constant": true
    },
    {
      "inputs": [],
      "name": "owner",
      "outputs": [
        {
          "internalType": "address",
          "name": "",
          "type": "address"
        }
      ],
      "stateMutability": "view",
      "type": "function",
      "constant": true
    },
    {
      "inputs": [],
      "name": "paused",
      "outputs": [
        {
          "internalType": "bool",
          "name": "",
          "type": "bool"
        }
      ],
      "stateMutability": "view",
      "type": "function",
      "constant": true
    },
    {
      "inputs": [],
      "name": "proposalRewardsBurned",
      "outputs": [
        {
          "internalType": "bool",
          "name": "",
          "type": "bool"
        }
      ],
      "stateMutability": "view",
      "type": "function",
      "constant": true
    },
    {
      "inputs": [
        {
          "internalType": "uint256",
          "name": "",
          "type": "uint256"
        }
      ],
      "name": "proposalVotes",
      "outputs": [
        {
          "internalType": "uint256",
          "name": "",
          "type": "uint256"
        }
      ],
      "stateMutability": "view",
      "type": "function",
      "constant": true
    },
    {
      "inputs": [
        {
          "internalType": "uint256",
          "name": "",
          "type": "uint256"
        }
      ],
      "name": "proposals",
      "outputs": [
        {
          "internalType": "address",
          "name": "proposer",
          "type": "address"
        },
        {
          "internalType": "string",
          "name": "name",
          "type": "string"
        },
        {
          "internalType": "string",
          "name": "info",
          "type": "string"
        },
        {
          "internalType": "uint256",
          "name": "createAt",
          "type": "uint256"
        }
      ],
      "stateMutability": "view",
      "type": "function",
      "constant": true
    },
    {
      "inputs": [],
      "name": "renounceOwnership",
      "outputs": [],
      "stateMutability": "nonpayable",
      "type": "function"
    },
    {
      "inputs": [],
      "name": "rewardsToken",
      "outputs": [
        {
          "internalType": "address",
          "name": "",
          "type": "address"
        }
      ],
      "stateMutability": "view",
      "type": "function",
      "constant": true
    },
    {
      "inputs": [],
      "name": "stakingToken",
      "outputs": [
        {
          "internalType": "address",
          "name": "",
          "type": "address"
        }
      ],
      "stateMutability": "view",
      "type": "function",
      "constant": true
    },
    {
      "inputs": [],
      "name": "startAt",
      "outputs": [
        {
          "internalType": "uint256",
          "name": "",
          "type": "uint256"
        }
      ],
      "stateMutability": "view",
      "type": "function",
      "constant": true
    },
    {
      "inputs": [
        {
          "internalType": "uint256",
          "name": "",
          "type": "uint256"
        }
      ],
      "name": "topFigureRewards",
      "outputs": [
        {
          "internalType": "uint256",
          "name": "",
          "type": "uint256"
        }
      ],
      "stateMutability": "view",
      "type": "function",
      "constant": true
    },
    {
      "inputs": [
        {
          "internalType": "uint256",
          "name": "",
          "type": "uint256"
        },
        {
          "internalType": "uint256",
          "name": "",
          "type": "uint256"
        }
      ],
      "name": "topFigures",
      "outputs": [
        {
          "internalType": "uint256",
          "name": "",
          "type": "uint256"
        }
      ],
      "stateMutability": "view",
      "type": "function",
      "constant": true
    },
    {
      "inputs": [
        {
          "internalType": "uint256",
          "name": "",
          "type": "uint256"
        }
      ],
      "name": "topProposals",
      "outputs": [
        {
          "internalType": "uint256",
          "name": "",
          "type": "uint256"
        }
      ],
      "stateMutability": "view",
      "type": "function",
      "constant": true
    },
    {
      "inputs": [],
      "name": "totalFigureVotes",
      "outputs": [
        {
          "internalType": "uint256",
          "name": "",
          "type": "uint256"
        }
      ],
      "stateMutability": "view",
      "type": "function",
      "constant": true
    },
    {
      "inputs": [],
      "name": "totalProposalVotes",
      "outputs": [
        {
          "internalType": "uint256",
          "name": "",
          "type": "uint256"
        }
      ],
      "stateMutability": "view",
      "type": "function",
      "constant": true
    },
    {
      "inputs": [
        {
          "internalType": "address",
          "name": "newOwner",
          "type": "address"
        }
      ],
      "name": "transferOwnership",
      "outputs": [],
      "stateMutability": "nonpayable",
      "type": "function"
    },
    {
      "inputs": [
        {
          "internalType": "address",
          "name": "_rewardsToken",
          "type": "address"
        },
        {
          "internalType": "address",
          "name": "_stakingToken",
          "type": "address"
        }
      ],
      "name": "initialize",
      "outputs": [],
      "stateMutability": "nonpayable",
      "type": "function"
    },
    {
      "inputs": [],
      "name": "dayAt",
      "outputs": [
        {
          "internalType": "uint256",
          "name": "",
          "type": "uint256"
        }
      ],
      "stateMutability": "view",
      "type": "function",
      "constant": true
    },
    {
      "inputs": [],
      "name": "proposalCount",
      "outputs": [
        {
          "internalType": "uint256",
          "name": "",
          "type": "uint256"
        }
      ],
      "stateMutability": "view",
      "type": "function",
      "constant": true
    },
    {
      "inputs": [],
      "name": "figureCount",
      "outputs": [
        {
          "internalType": "uint256",
          "name": "",
          "type": "uint256"
        }
      ],
      "stateMutability": "view",
      "type": "function",
      "constant": true
    },
    {
      "inputs": [
        {
          "internalType": "uint256",
          "name": "index",
          "type": "uint256"
        }
      ],
      "name": "getTopProposal",
      "outputs": [
        {
          "internalType": "uint256",
          "name": "",
          "type": "uint256"
        }
      ],
      "stateMutability": "view",
      "type": "function",
      "constant": true
    },
    {
      "inputs": [
        {
          "internalType": "uint256",
          "name": "proposalId",
          "type": "uint256"
        },
        {
          "internalType": "uint256",
          "name": "index",
          "type": "uint256"
        }
      ],
      "name": "getTopFigure",
      "outputs": [
        {
          "internalType": "uint256",
          "name": "",
          "type": "uint256"
        }
      ],
      "stateMutability": "view",
      "type": "function",
      "constant": true
    },
    {
      "inputs": [
        {
          "internalType": "address",
          "name": "target",
          "type": "address"
        }
      ],
      "name": "myProposalCount",
      "outputs": [
        {
          "internalType": "uint256",
          "name": "",
          "type": "uint256"
        }
      ],
      "stateMutability": "view",
      "type": "function",
      "constant": true
    },
    {
      "inputs": [
        {
          "internalType": "address",
          "name": "target",
          "type": "address"
        }
      ],
      "name": "myFigureCount",
      "outputs": [
        {
          "internalType": "uint256",
          "name": "",
          "type": "uint256"
        }
      ],
      "stateMutability": "view",
      "type": "function",
      "constant": true
    },
    {
      "inputs": [
        {
          "internalType": "uint256",
          "name": "proposalId",
          "type": "uint256"
        }
      ],
      "name": "figuresOfProposalCount",
      "outputs": [
        {
          "internalType": "uint256",
          "name": "",
          "type": "uint256"
        }
      ],
      "stateMutability": "view",
      "type": "function",
      "constant": true
    },
    {
      "inputs": [
        {
          "internalType": "address",
          "name": "target",
          "type": "address"
        }
      ],
      "name": "myProposalRewards",
      "outputs": [
        {
          "internalType": "uint256",
          "name": "",
          "type": "uint256"
        }
      ],
      "stateMutability": "view",
      "type": "function",
      "constant": true
    },
    {
      "inputs": [
        {
          "internalType": "address",
          "name": "target",
          "type": "address"
        }
      ],
      "name": "myFigureRewards",
      "outputs": [
        {
          "internalType": "uint256",
          "name": "",
          "type": "uint256"
        }
      ],
      "stateMutability": "view",
      "type": "function",
      "constant": true
    },
    {
      "inputs": [
        {
          "internalType": "string",
          "name": "name",
          "type": "string"
        },
        {
          "internalType": "string",
          "name": "info",
          "type": "string"
        }
      ],
      "name": "createProposal",
      "outputs": [],
      "stateMutability": "nonpayable",
      "type": "function"
    },
    {
      "inputs": [
        {
          "internalType": "uint256",
          "name": "proposalId",
          "type": "uint256"
        },
        {
          "internalType": "uint256",
          "name": "votes",
          "type": "uint256"
        }
      ],
      "name": "voteForProposal",
      "outputs": [],
      "stateMutability": "nonpayable",
      "type": "function"
    },
    {
      "inputs": [],
      "name": "withdrawFromProposal",
      "outputs": [],
      "stateMutability": "nonpayable",
      "type": "function"
    },
    {
      "inputs": [],
      "name": "claimFromProposal",
      "outputs": [],
      "stateMutability": "nonpayable",
      "type": "function"
    },
    {
      "inputs": [],
      "name": "burnFromProposal",
      "outputs": [],
      "stateMutability": "nonpayable",
      "type": "function"
    },
    {
      "inputs": [
        {
          "internalType": "uint256",
          "name": "proposalId",
          "type": "uint256"
        },
        {
          "internalType": "string",
          "name": "info",
          "type": "string"
        }
      ],
      "name": "createFigure",
      "outputs": [],
      "stateMutability": "nonpayable",
      "type": "function"
    },
    {
      "inputs": [
        {
          "internalType": "uint256",
          "name": "figureId",
          "type": "uint256"
        },
        {
          "internalType": "uint256",
          "name": "votes",
          "type": "uint256"
        }
      ],
      "name": "voteForFigure",
      "outputs": [],
      "stateMutability": "nonpayable",
      "type": "function"
    },
    {
      "inputs": [],
      "name": "withdrawFromFigure",
      "outputs": [],
      "stateMutability": "nonpayable",
      "type": "function"
    },
    {
      "inputs": [],
      "name": "claimFromFigure",
      "outputs": [],
      "stateMutability": "nonpayable",
      "type": "function"
    },
    {
      "inputs": [],
      "name": "pause",
      "outputs": [],
      "stateMutability": "nonpayable",
      "type": "function"
    },
    {
      "inputs": [],
      "name": "unpause",
      "outputs": [],
      "stateMutability": "nonpayable",
      "type": "function"
    }
  ],
  "bytecode": "0x608060405234801561001057600080fd5b50615ee580620000216000396000f3fe608060405234801561001057600080fd5b506004361061030c5760003560e01c80637d12960d1161019d578063bee9ce39116100e9578063e15f6dab116100a2578063e6b581ea1161007c578063e6b581ea146110c7578063f2fde38b14611129578063f8f1212a1461116d578063fa5dde4d146111a55761030c565b8063e15f6dab14610ff5578063e4bdda2d1461104d578063e50bbc5d1461106f5761030c565b8063bee9ce3914610ecd578063c744656514610eeb578063c7ab0e4f14610f09578063d1af0c7d14610f41578063d706e52214610f8b578063da35c66414610fd75761030c565b80639e7bcbea11610156578063afb9657711610130578063afb9657714610d95578063afde521b14610ded578063b937173d14610e2f578063bcbdc85b14610e8b5761030c565b80639e7bcbea14610c89578063a34118c214610ce5578063adaebd6714610d3d5761030c565b80637d12960d14610a305780638456cb5914610a885780638cf693e214610a925780638da5cb5b14610b155780638f5878c614610b5f5780639782a9f314610ba15761030c565b806359c162a51161025c57806365e481e211610215578063715018a6116101ef578063715018a6146109a0578063718ad52b146109aa57806372f702f3146109c85780637454adc314610a125761030c565b806365e481e2146108665780636b7118b714610934578063707b55641461093e5761030c565b806359c162a51461071c5780635a73abc51461075e5780635c975abb146107ba5780635ddd4ce3146107dc578063613dd9c2146107e657806365799635146108045761030c565b806338fe6a08116102c9578063485cc955116102a3578063485cc955146105d257806348985deb14610636578063544ffc9c1461069857806356016a4a146106da5761030c565b806338fe6a08146105625780633d1b40e2146105be5780633f4ba83a146105c85761030c565b8063013cf08b146103115780631e060de91461045e57806325c949c1146104685780632c37bb31146104b45780633100860f1461050c57806333f2439d14610558575b600080fd5b61033d6004803603602081101561032757600080fd5b81019080803590602001909291905050506111fd565b604051808573ffffffffffffffffffffffffffffffffffffffff1673ffffffffffffffffffffffffffffffffffffffff1681526020018060200180602001848152602001838103835286818151815260200191508051906020019080838360005b838110156103b957808201518184015260208101905061039e565b50505050905090810190601f1680156103e65780820380516001836020036101000a031916815260200191505b50838103825285818151815260200191508051906020019080838360005b8381101561041f578082015181840152602081019050610404565b50505050905090810190601f16801561044c5780820380516001836020036101000a031916815260200191505b50965050505050505060405180910390f35b61046661138a565b005b61049e6004803603604081101561047e57600080fd5b8101908080359060200190929190803590602001909291905050506116f7565b6040518082815260200191505060405180910390f35b6104f6600480360360208110156104ca57600080fd5b81019080803573ffffffffffffffffffffffffffffffffffffffff169060200190929190505050611771565b6040518082815260200191505060405180910390f35b6105426004803603604081101561052257600080fd5b81019080803590602001909291908035906020019092919050505061179d565b6040518082815260200191505060405180910390f35b6105606117cb565b005b6105a46004803603602081101561057857600080fd5b81019080803573ffffffffffffffffffffffffffffffffffffffff169060200190929190505050611b4e565b604051808215151515815260200191505060405180910390f35b6105c6611b6e565b005b6105d0611fde565b005b610634600480360360408110156105e857600080fd5b81019080803573ffffffffffffffffffffffffffffffffffffffff169060200190929190803573ffffffffffffffffffffffffffffffffffffffff1690602001909291905050506120ab565b005b6106826004803603604081101561064c57600080fd5b81019080803573ffffffffffffffffffffffffffffffffffffffff16906020019092919080359060200190929190505050612444565b6040518082815260200191505060405180910390f35b6106c4600480360360208110156106ae57600080fd5b8101908080359060200190929190505050612472565b6040518082815260200191505060405180910390f35b610706600480360360208110156106f057600080fd5b810190808035906020019092919050505061248a565b6040518082815260200191505060405180910390f35b6107486004803603602081101561073257600080fd5b81019080803590602001909291905050506124a2565b6040518082815260200191505060405180910390f35b6107a06004803603602081101561077457600080fd5b81019080803573ffffffffffffffffffffffffffffffffffffffff1690602001909291905050506124c3565b604051808215151515815260200191505060405180910390f35b6107c26124e3565b604051808215151515815260200191505060405180910390f35b6107e46124fa565b005b6107ee612967565b6040518082815260200191505060405180910390f35b6108506004803603604081101561081a57600080fd5b81019080803573ffffffffffffffffffffffffffffffffffffffff16906020019092919080359060200190929190505050612998565b6040518082815260200191505060405180910390f35b6109326004803603604081101561087c57600080fd5b810190808035906020019064010000000081111561089957600080fd5b8201836020820111156108ab57600080fd5b803590602001918460018302840111640100000000831117156108cd57600080fd5b9091929391929390803590602001906401000000008111156108ee57600080fd5b82018360208201111561090057600080fd5b8035906020019184600183028401116401000000008311171561092257600080fd5b90919293919293905050506129bd565b005b61093c612db4565b005b61098a6004803603604081101561095457600080fd5b81019080803573ffffffffffffffffffffffffffffffffffffffff16906020019092919080359060200190929190505050613124565b6040518082815260200191505060405180910390f35b6109a8613149565b005b6109b26132cd565b6040518082815260200191505060405180910390f35b6109d06132d3565b604051808273ffffffffffffffffffffffffffffffffffffffff1673ffffffffffffffffffffffffffffffffffffffff16815260200191505060405180910390f35b610a1a6132f9565b6040518082815260200191505060405180910390f35b610a7260048036036020811015610a4657600080fd5b81019080803573ffffffffffffffffffffffffffffffffffffffff169060200190929190505050613306565b6040518082815260200191505060405180910390f35b610a90613335565b005b610b1360048036036040811015610aa857600080fd5b810190808035906020019092919080359060200190640100000000811115610acf57600080fd5b820183602082011115610ae157600080fd5b80359060200191846001830284011164010000000083111715610b0357600080fd5b9091929391929390505050613402565b005b610b1d613959565b604051808273ffffffffffffffffffffffffffffffffffffffff1673ffffffffffffffffffffffffffffffffffffffff16815260200191505060405180910390f35b610b8b60048036036020811015610b7557600080fd5b8101908080359060200190929190505050613983565b6040518082815260200191505060405180910390f35b610bcd60048036036020811015610bb757600080fd5b81019080803590602001909291905050506139a3565b604051808581526020018473ffffffffffffffffffffffffffffffffffffffff1673ffffffffffffffffffffffffffffffffffffffff16815260200180602001838152602001828103825284818151815260200191508051906020019080838360005b83811015610c4b578082015181840152602081019050610c30565b50505050905090810190601f168015610c785780820380516001836020036101000a031916815260200191505b509550505050505060405180910390f35b610ccb60048036036020811015610c9f57600080fd5b81019080803573ffffffffffffffffffffffffffffffffffffffff169060200190929190505050613a98565b604051808215151515815260200191505060405180910390f35b610d2760048036036020811015610cfb57600080fd5b81019080803573ffffffffffffffffffffffffffffffffffffffff169060200190929190505050613ab8565b6040518082815260200191505060405180910390f35b610d7f60048036036020811015610d5357600080fd5b81019080803573ffffffffffffffffffffffffffffffffffffffff169060200190929190505050613ad0565b6040518082815260200191505060405180910390f35b610dd760048036036020811015610dab57600080fd5b81019080803573ffffffffffffffffffffffffffffffffffffffff169060200190929190505050613b1c565b6040518082815260200191505060405180910390f35b610e1960048036036020811015610e0357600080fd5b8101908080359060200190929190505050613b68565b6040518082815260200191505060405180910390f35b610e7160048036036020811015610e4557600080fd5b81019080803573ffffffffffffffffffffffffffffffffffffffff169060200190929190505050613b89565b604051808215151515815260200191505060405180910390f35b610eb760048036036020811015610ea157600080fd5b8101908080359060200190929190505050613ba9565b6040518082815260200191505060405180910390f35b610ed5613bc1565b6040518082815260200191505060405180910390f35b610ef3613bc7565b6040518082815260200191505060405180910390f35b610f3f60048036036040811015610f1f57600080fd5b810190808035906020019092919080359060200190929190505050613bcd565b005b610f49613e06565b604051808273ffffffffffffffffffffffffffffffffffffffff1673ffffffffffffffffffffffffffffffffffffffff16815260200191505060405180910390f35b610fc160048036036040811015610fa157600080fd5b810190808035906020019092919080359060200190929190505050613e2c565b6040518082815260200191505060405180910390f35b610fdf613e5a565b6040518082815260200191505060405180910390f35b6110376004803603602081101561100b57600080fd5b81019080803573ffffffffffffffffffffffffffffffffffffffff169060200190929190505050613e67565b6040518082815260200191505060405180910390f35b611055613e7f565b604051808215151515815260200191505060405180910390f35b6110b16004803603602081101561108557600080fd5b81019080803573ffffffffffffffffffffffffffffffffffffffff169060200190929190505050613e92565b6040518082815260200191505060405180910390f35b611113600480360360408110156110dd57600080fd5b81019080803573ffffffffffffffffffffffffffffffffffffffff16906020019092919080359060200190929190505050613eaa565b6040518082815260200191505060405180910390f35b61116b6004803603602081101561113f57600080fd5b81019080803573ffffffffffffffffffffffffffffffffffffffff169060200190929190505050613ed8565b005b6111a36004803603604081101561118357600080fd5b8101908080359060200190929190803590602001909291905050506140e1565b005b6111e7600480360360208110156111bb57600080fd5b81019080803573ffffffffffffffffffffffffffffffffffffffff169060200190929190505050614317565b6040518082815260200191505060405180910390f35b609a818154811061120a57fe5b90600052602060002090600402016000915090508060000160009054906101000a900473ffffffffffffffffffffffffffffffffffffffff1690806001018054600181600116156101000203166002900480601f0160208091040260200160405190810160405280929190818152602001828054600181600116156101000203166002900480156112dc5780601f106112b1576101008083540402835291602001916112dc565b820191906000526020600020905b8154815290600101906020018083116112bf57829003601f168201915b505050505090806002018054600181600116156101000203166002900480601f01602080910402602001604051908101604052809291908181526020018280546001816001161561010002031660029004801561137a5780601f1061134f5761010080835404028352916020019161137a565b820191906000526020600020905b81548152906001019060200180831161135d57829003601f168201915b5050505050908060030154905084565b603360009054906101000a900460ff161561140d576040517f08c379a00000000000000000000000000000000000000000000000000000000081526004018080602001828103825260108152602001807f5061757361626c653a207061757365640000000000000000000000000000000081525060200191505060405180910390fd5b6004611417612967565b101561148b576040517f08c379a000000000000000000000000000000000000000000000000000000000815260040180806020018281038252600b8152602001807f4e6f74206578706972656400000000000000000000000000000000000000000081525060200191505060405180910390fd5b600060a160003373ffffffffffffffffffffffffffffffffffffffff1673ffffffffffffffffffffffffffffffffffffffff168152602001908152602001600020541415611541576040517f08c379a000000000000000000000000000000000000000000000000000000000815260040180806020018281038252601a8152602001807f43616e6e6f7420636c61696d2066726f6d2070726f706f73616c00000000000081525060200191505060405180910390fd5b60a360003373ffffffffffffffffffffffffffffffffffffffff1673ffffffffffffffffffffffffffffffffffffffff16815260200190815260200160002060009054906101000a900460ff1615611601576040517f08c379a00000000000000000000000000000000000000000000000000000000081526004018080602001828103825260188152602001807f596f75206861766520616c726561647920636c61696d6564000000000000000081525060200191505060405180910390fd5b600160a360003373ffffffffffffffffffffffffffffffffffffffff1673ffffffffffffffffffffffffffffffffffffffff16815260200190815260200160002060006101000a81548160ff02191690831515021790555060006116643361432f565b905060008111156116bd576116bc3382609760009054906101000a900473ffffffffffffffffffffffffffffffffffffffff1673ffffffffffffffffffffffffffffffffffffffff1661447c9092919063ffffffff16565b5b7f88c49fd38b1dd9e73c466c856574ecae503baba7e7e2ddbaae8092395d63757a816040518082815260200191505060405180910390a150565b60008060a6600085815260200190815260200160002080549050141561173f577fffffffffffffffffffffffffffffffffffffffffffffffffffffffffffffffff905061176b565b60a66000848152602001908152602001600020828154811061175d57fe5b906000526020600020015490505b92915050565b6000600461177d612967565b101561178c5760009050611798565b6117958261432f565b90505b919050565b60a660205281600052604060002081815481106117b657fe5b90600052602060002001600091509150505481565b603360009054906101000a900460ff161561184e576040517f08c379a00000000000000000000000000000000000000000000000000000000081526004018080602001828103825260108152602001807f5061757361626c653a207061757365640000000000000000000000000000000081525060200191505060405180910390fd5b3373ffffffffffffffffffffffffffffffffffffffff16606560009054906101000a900473ffffffffffffffffffffffffffffffffffffffff1673ffffffffffffffffffffffffffffffffffffffff1614611911576040517f08c379a00000000000000000000000000000000000000000000000000000000081526004018080602001828103825260208152602001807f4f776e61626c653a2063616c6c6572206973206e6f7420746865206f776e657281525060200191505060405180910390fd5b600461191b612967565b101561198f576040517f08c379a000000000000000000000000000000000000000000000000000000000815260040180806020018281038252600b8152602001807f4e6f74206578706972656400000000000000000000000000000000000000000081525060200191505060405180910390fd5b609c60009054906101000a900460ff1615611a12576040517f08c379a00000000000000000000000000000000000000000000000000000000081526004018080602001828103825260208152602001807f50726f706f73616c207265776172647320686173206265656e206275726e656481525060200191505060405180910390fd5b6001609c60006101000a81548160ff021916908315150217905550600080905060008090505b600a811015611a96577fffffffffffffffffffffffffffffffffffffffffffffffffffffffffffffffff609b8281548110611a6f57fe5b90600052602060002001541415611a895781806001019250505b8080600101915050611a38565b5060008090506000821115611b1357611ac1826815af1d78b58c40000061453490919063ffffffff16565b9050611b1261dead82609760009054906101000a900473ffffffffffffffffffffffffffffffffffffffff1673ffffffffffffffffffffffffffffffffffffffff1661447c9092919063ffffffff16565b5b7f7a69f9dd77f85db837c84bf7475d3ee2cde3b5a16129d5158f8f2f3a4e839692816040518082815260200191505060405180910390a15050565b60a36020528060005260406000206000915054906101000a900460ff1681565b603360009054906101000a900460ff1615611bf1576040517f08c379a00000000000000000000000000000000000000000000000000000000081526004018080602001828103825260108152602001807f5061757361626c653a207061757365640000000000000000000000000000000081525060200191505060405180910390fd5b6005600401611bfe612967565b1015611c72576040517f08c379a000000000000000000000000000000000000000000000000000000000815260040180806020018281038252600b8152602001807f4e6f74206578706972656400000000000000000000000000000000000000000081525060200191505060405180910390fd5b600060af60003373ffffffffffffffffffffffffffffffffffffffff1673ffffffffffffffffffffffffffffffffffffffff168152602001908152602001600020541415611d28576040517f08c379a000000000000000000000000000000000000000000000000000000000815260040180806020018281038252601b8152602001807f43616e6e6f742077697468647261772066726f6d20666967757265000000000081525060200191505060405180910390fd5b62093a80611d7e60af60003373ffffffffffffffffffffffffffffffffffffffff1673ffffffffffffffffffffffffffffffffffffffff16815260200190815260200160002054426145ba90919063ffffffff16565b11611df1576040517f08c379a000000000000000000000000000000000000000000000000000000000815260040180806020018281038252601a8152602001807f43616e6e6f7420636c61696d2077697468696e2037206461797300000000000081525060200191505060405180910390fd5b60b060003373ffffffffffffffffffffffffffffffffffffffff1673ffffffffffffffffffffffffffffffffffffffff16815260200190815260200160002060009054906101000a900460ff1615611eb1576040517f08c379a000000000000000000000000000000000000000000000000000000000815260040180806020018281038252601a8152602001807f596f75206861766520616c72656164792077697468647261776e00000000000081525060200191505060405180910390fd5b600160b060003373ffffffffffffffffffffffffffffffffffffffff1673ffffffffffffffffffffffffffffffffffffffff16815260200190815260200160002060006101000a81548160ff021916908315150217905550600060ae60003373ffffffffffffffffffffffffffffffffffffffff1673ffffffffffffffffffffffffffffffffffffffff1681526020019081526020016000205490506000811115611fa457611fa33382609860009054906101000a900473ffffffffffffffffffffffffffffffffffffffff1673ffffffffffffffffffffffffffffffffffffffff1661447c9092919063ffffffff16565b5b7f06ef32dc663fb4a00c12e47b86feeca2dbfbd76d64254d976702c22ed0a18e00816040518082815260200191505060405180910390a150565b3373ffffffffffffffffffffffffffffffffffffffff16606560009054906101000a900473ffffffffffffffffffffffffffffffffffffffff1673ffffffffffffffffffffffffffffffffffffffff16146120a1576040517f08c379a00000000000000000000000000000000000000000000000000000000081526004018080602001828103825260208152602001807f4f776e61626c653a2063616c6c6572206973206e6f7420746865206f776e657281525060200191505060405180910390fd5b6120a9614604565b565b600060019054906101000a900460ff16806120ca57506120c9614706565b5b806120e157506000809054906101000a900460ff16155b612136576040517f08c379a000000000000000000000000000000000000000000000000000000000815260040180806020018281038252602e815260200180615e58602e913960400191505060405180910390fd5b60008060019054906101000a900460ff161590508015612186576001600060016101000a81548160ff02191690831515021790555060016000806101000a81548160ff0219169083151502179055505b61218e61471d565b612196614727565b82609760006101000a81548173ffffffffffffffffffffffffffffffffffffffff021916908373ffffffffffffffffffffffffffffffffffffffff16021790555081609860006101000a81548173ffffffffffffffffffffffffffffffffffffffff021916908373ffffffffffffffffffffffffffffffffffffffff1602179055506040518060600160405280681b1ae4d6e2ef50000068ffffffffffffffffff168152602001681043561a882930000068ffffffffffffffffff168152602001680ad78ebc5ac620000068ffffffffffffffffff1681525060a790600361227f929190615c08565b506040518061014001604052807fffffffffffffffffffffffffffffffffffffffffffffffffffffffffffffffff81526020017fffffffffffffffffffffffffffffffffffffffffffffffffffffffffffffffff81526020017fffffffffffffffffffffffffffffffffffffffffffffffffffffffffffffffff81526020017fffffffffffffffffffffffffffffffffffffffffffffffffffffffffffffffff81526020017fffffffffffffffffffffffffffffffffffffffffffffffffffffffffffffffff81526020017fffffffffffffffffffffffffffffffffffffffffffffffffffffffffffffffff81526020017fffffffffffffffffffffffffffffffffffffffffffffffffffffffffffffffff81526020017fffffffffffffffffffffffffffffffffffffffffffffffffffffffffffffffff81526020017fffffffffffffffffffffffffffffffffffffffffffffffffffffffffffffffff81526020017fffffffffffffffffffffffffffffffffffffffffffffffffffffffffffffffff815250609b90600a612416929190615c55565b5042609981905550801561243f5760008060016101000a81548160ff0219169083151502179055505b505050565b609f602052816000526040600020818154811061245d57fe5b90600052602060002001600091509150505481565b609e6020528060005260406000206000915090505481565b60a7816003811061249757fe5b016000915090505481565b6000609b82815481106124b157fe5b90600052602060002001549050919050565b60b06020528060005260406000206000915054906101000a900460ff1681565b6000603360009054906101000a900460ff16905090565b603360009054906101000a900460ff161561257d576040517f08c379a00000000000000000000000000000000000000000000000000000000081526004018080602001828103825260108152602001807f5061757361626c653a207061757365640000000000000000000000000000000081525060200191505060405180910390fd5b6004612587612967565b10156125fb576040517f08c379a000000000000000000000000000000000000000000000000000000000815260040180806020018281038252600b8152602001807f4e6f74206578706972656400000000000000000000000000000000000000000081525060200191505060405180910390fd5b600060a160003373ffffffffffffffffffffffffffffffffffffffff1673ffffffffffffffffffffffffffffffffffffffff1681526020019081526020016000205414156126b1576040517f08c379a000000000000000000000000000000000000000000000000000000000815260040180806020018281038252601d8152602001807f43616e6e6f742077697468647261772066726f6d2070726f706f73616c00000081525060200191505060405180910390fd5b6205460061270760a160003373ffffffffffffffffffffffffffffffffffffffff1673ffffffffffffffffffffffffffffffffffffffff16815260200190815260200160002054426145ba90919063ffffffff16565b1161277a576040517f08c379a000000000000000000000000000000000000000000000000000000000815260040180806020018281038252601d8152602001807f43616e6e6f742077697468647261772077697468696e2034206461797300000081525060200191505060405180910390fd5b60a260003373ffffffffffffffffffffffffffffffffffffffff1673ffffffffffffffffffffffffffffffffffffffff16815260200190815260200160002060009054906101000a900460ff161561283a576040517f08c379a000000000000000000000000000000000000000000000000000000000815260040180806020018281038252601a8152602001807f596f75206861766520616c72656164792077697468647261776e00000000000081525060200191505060405180910390fd5b600160a260003373ffffffffffffffffffffffffffffffffffffffff1673ffffffffffffffffffffffffffffffffffffffff16815260200190815260200160002060006101000a81548160ff021916908315150217905550600060a060003373ffffffffffffffffffffffffffffffffffffffff1673ffffffffffffffffffffffffffffffffffffffff168152602001908152602001600020549050600081111561292d5761292c3382609860009054906101000a900473ffffffffffffffffffffffffffffffffffffffff1673ffffffffffffffffffffffffffffffffffffffff1661447c9092919063ffffffff16565b5b7f5ca6c0bba519c857c8713fba9f5f1b582abe00c95dcccedccea41ad683bad26d816040518082815260200191505060405180910390a150565b600061299362015180612985609954426145ba90919063ffffffff16565b61473190919063ffffffff16565b905090565b60b2602052816000526040600020602052806000526040600020600091509150505481565b603360009054906101000a900460ff1615612a40576040517f08c379a00000000000000000000000000000000000000000000000000000000081526004018080602001828103825260108152602001807f5061757361626c653a207061757365640000000000000000000000000000000081525060200191505060405180910390fd5b6004612a4a612967565b10612abd576040517f08c379a00000000000000000000000000000000000000000000000000000000081526004018080602001828103825260078152602001807f457870697265640000000000000000000000000000000000000000000000000081525060200191505060405180910390fd5b6020848490501115612b37576040517f08c379a00000000000000000000000000000000000000000000000000000000081526004018080602001828103825260188152602001807f4e616d652773206c656e67746820697320746f6f20626967000000000000000081525060200191505060405180910390fd5b60c8828290501115612bb1576040517f08c379a00000000000000000000000000000000000000000000000000000000081526004018080602001828103825260188152602001807f496e666f2773206c656e67746820697320746f6f20626967000000000000000081525060200191505060405180910390fd5b612bb9615ca2565b33816000019073ffffffffffffffffffffffffffffffffffffffff16908173ffffffffffffffffffffffffffffffffffffffff168152505084848080601f016020809104026020016040519081016040528093929190818152602001838380828437600081840152601f19601f82011690508083019250505050505050816020018190525082828080601f016020809104026020016040519081016040528093929190818152602001838380828437600081840152601f19601f82011690508083019250505050505050816040018190525042816060018181525050609a81908060018154018082558091505060019003906000526020600020906004020160009091909190915060008201518160000160006101000a81548173ffffffffffffffffffffffffffffffffffffffff021916908373ffffffffffffffffffffffffffffffffffffffff1602179055506020820151816001019080519060200190612d24929190615ce0565b506040820151816002019080519060200190612d41929190615ce0565b5060608201518160030155505060006001609a8054905003905060006802b5e3af16b18800009050612d73828261477b565b817ffcf3b1aa65a464cef2889608f99e8b8c0f680a4be6c2acb9d961c536a5a9294b826040518082815260200191505060405180910390a250505050505050565b603360009054906101000a900460ff1615612e37576040517f08c379a00000000000000000000000000000000000000000000000000000000081526004018080602001828103825260108152602001807f5061757361626c653a207061757365640000000000000000000000000000000081525060200191505060405180910390fd5b6005600401612e44612967565b1015612eb8576040517f08c379a000000000000000000000000000000000000000000000000000000000815260040180806020018281038252600b8152602001807f4e6f74206578706972656400000000000000000000000000000000000000000081525060200191505060405180910390fd5b600060af60003373ffffffffffffffffffffffffffffffffffffffff1673ffffffffffffffffffffffffffffffffffffffff168152602001908152602001600020541415612f6e576040517f08c379a00000000000000000000000000000000000000000000000000000000081526004018080602001828103825260188152602001807f43616e6e6f7420636c61696d2066726f6d20666967757265000000000000000081525060200191505060405180910390fd5b60b160003373ffffffffffffffffffffffffffffffffffffffff1673ffffffffffffffffffffffffffffffffffffffff16815260200190815260200160002060009054906101000a900460ff161561302e576040517f08c379a00000000000000000000000000000000000000000000000000000000081526004018080602001828103825260188152602001807f596f75206861766520616c726561647920636c61696d6564000000000000000081525060200191505060405180910390fd5b600160b160003373ffffffffffffffffffffffffffffffffffffffff1673ffffffffffffffffffffffffffffffffffffffff16815260200190815260200160002060006101000a81548160ff021916908315150217905550600061309133614a7f565b905060008111156130ea576130e93382609760009054906101000a900473ffffffffffffffffffffffffffffffffffffffff1673ffffffffffffffffffffffffffffffffffffffff1661447c9092919063ffffffff16565b5b7fd9c11d32472a7625893f113b5a14fc082c25003ce3cdeca0f5f1be39f9918bd6816040518082815260200191505060405180910390a150565b60a4602052816000526040600020602052806000526040600020600091509150505481565b3373ffffffffffffffffffffffffffffffffffffffff16606560009054906101000a900473ffffffffffffffffffffffffffffffffffffffff1673ffffffffffffffffffffffffffffffffffffffff161461320c576040517f08c379a00000000000000000000000000000000000000000000000000000000081526004018080602001828103825260208152602001807f4f776e61626c653a2063616c6c6572206973206e6f7420746865206f776e657281525060200191505060405180910390fd5b600073ffffffffffffffffffffffffffffffffffffffff16606560009054906101000a900473ffffffffffffffffffffffffffffffffffffffff1673ffffffffffffffffffffffffffffffffffffffff167f8be0079c531659141344cd1fd0a4f28419497f9722a3daafe3b4186f6b6457e060405160405180910390a36000606560006101000a81548173ffffffffffffffffffffffffffffffffffffffff021916908373ffffffffffffffffffffffffffffffffffffffff160217905550565b609d5481565b609860009054906101000a900473ffffffffffffffffffffffffffffffffffffffff1681565b600060a580549050905090565b60006005600401613315612967565b10156133245760009050613330565b61332d82614a7f565b90505b919050565b3373ffffffffffffffffffffffffffffffffffffffff16606560009054906101000a900473ffffffffffffffffffffffffffffffffffffffff1673ffffffffffffffffffffffffffffffffffffffff16146133f8576040517f08c379a00000000000000000000000000000000000000000000000000000000081526004018080602001828103825260208152602001807f4f776e61626c653a2063616c6c6572206973206e6f7420746865206f776e657281525060200191505060405180910390fd5b613400614d3e565b565b603360009054906101000a900460ff1615613485576040517f08c379a00000000000000000000000000000000000000000000000000000000081526004018080602001828103825260108152602001807f5061757361626c653a207061757365640000000000000000000000000000000081525060200191505060405180910390fd5b6005600401613492612967565b10613505576040517f08c379a00000000000000000000000000000000000000000000000000000000081526004018080602001828103825260078152602001807f457870697265640000000000000000000000000000000000000000000000000081525060200191505060405180910390fd5b609a80549050831061357f576040517f08c379a00000000000000000000000000000000000000000000000000000000081526004018080602001828103825260138152602001807f496e76616c69642070726f706f73616c2069640000000000000000000000000081525060200191505060405180910390fd5b6101f48282905011156135fa576040517f08c379a00000000000000000000000000000000000000000000000000000000081526004018080602001828103825260188152602001807f496e666f2773206c656e67746820697320746f6f20626967000000000000000081525060200191505060405180910390fd5b600080905060008090505b600a8110156136435784609b828154811061361c57fe5b906000526020600020015414156136365760019150613643565b8080600101915050613605565b50806136b7576040517f08c379a00000000000000000000000000000000000000000000000000000000081526004018080602001828103825260138152602001807f496e76616c69642070726f706f73616c2069640000000000000000000000000081525060200191505060405180910390fd5b600360a6600086815260200190815260200160002080549050146137735760405180606001604052807fffffffffffffffffffffffffffffffffffffffffffffffffffffffffffffffff81526020017fffffffffffffffffffffffffffffffffffffffffffffffffffffffffffffffff81526020017fffffffffffffffffffffffffffffffffffffffffffffffffffffffffffffffff81525060a66000868152602001908152602001600020906003613771929190615d60565b505b61377b615dad565b8481600001818152505033816020019073ffffffffffffffffffffffffffffffffffffffff16908173ffffffffffffffffffffffffffffffffffffffff168152505083838080601f016020809104026020016040519081016040528093929190818152602001838380828437600081840152601f19601f8201169050808301925050505050505081604001819052504281606001818152505060a58190806001815401808255809150506001900390600052602060002090600402016000909190919091506000820151816000015560208201518160010160006101000a81548173ffffffffffffffffffffffffffffffffffffffff021916908373ffffffffffffffffffffffffffffffffffffffff16021790555060408201518160020190805190602001906138ad929190615ce0565b506060820151816003015550506000600160a5805490500390506000678ac7230489e8000090506138de8282614e41565b60aa6000888152602001908152602001600020829080600181540180825580915050600190039060005260206000200160009091909190915055817fc9dac9ec8848deeb7b6d2050e5452032dffa3d7a8e8b98ef154a34a64ccff707826040518082815260200191505060405180910390a250505050505050565b6000606560009054906101000a900473ffffffffffffffffffffffffffffffffffffffff16905090565b600060aa6000838152602001908152602001600020805490509050919050565b60a581815481106139b057fe5b90600052602060002090600402016000915090508060000154908060010160009054906101000a900473ffffffffffffffffffffffffffffffffffffffff1690806002018054600181600116156101000203166002900480601f016020809104026020016040519081016040528092919081815260200182805460018160011615610100020316600290048015613a885780601f10613a5d57610100808354040283529160200191613a88565b820191906000526020600020905b815481529060010190602001808311613a6b57829003601f168201915b5050505050908060030154905084565b60a26020528060005260406000206000915054906101000a900460ff1681565b60af6020528060005260406000206000915090505481565b6000609f60008373ffffffffffffffffffffffffffffffffffffffff1673ffffffffffffffffffffffffffffffffffffffff168152602001908152602001600020805490509050919050565b600060ad60008373ffffffffffffffffffffffffffffffffffffffff1673ffffffffffffffffffffffffffffffffffffffff168152602001908152602001600020805490509050919050565b609b8181548110613b7557fe5b906000526020600020016000915090505481565b60b16020528060005260406000206000915054906101000a900460ff1681565b60ac6020528060005260406000206000915090505481565b60ab5481565b60995481565b603360009054906101000a900460ff1615613c50576040517f08c379a00000000000000000000000000000000000000000000000000000000081526004018080602001828103825260108152602001807f5061757361626c653a207061757365640000000000000000000000000000000081525060200191505060405180910390fd5b6005600401613c5d612967565b10613cd0576040517f08c379a00000000000000000000000000000000000000000000000000000000081526004018080602001828103825260078152602001807f457870697265640000000000000000000000000000000000000000000000000081525060200191505060405180910390fd5b60a5805490508210613d4a576040517f08c379a00000000000000000000000000000000000000000000000000000000081526004018080602001828103825260118152602001807f496e76616c69642066696775726520696400000000000000000000000000000081525060200191505060405180910390fd5b60008111613dc0576040517f08c379a000000000000000000000000000000000000000000000000000000000815260040180806020018281038252601d8152602001807f566f7465732073686f756c64206c6172676572207468656e207a65726f00000081525060200191505060405180910390fd5b613dca8282614e41565b817fd44ad0027ed2a08aeb8161502fe1eb91c299c11d3ff11138be8cd127cc755c2a826040518082815260200191505060405180910390a25050565b609760009054906101000a900473ffffffffffffffffffffffffffffffffffffffff1681565b60aa6020528160005260406000208181548110613e4557fe5b90600052602060002001600091509150505481565b6000609a80549050905090565b60a06020528060005260406000206000915090505481565b609c60009054906101000a900460ff1681565b60a16020528060005260406000206000915090505481565b60ad6020528160005260406000208181548110613ec357fe5b90600052602060002001600091509150505481565b3373ffffffffffffffffffffffffffffffffffffffff16606560009054906101000a900473ffffffffffffffffffffffffffffffffffffffff1673ffffffffffffffffffffffffffffffffffffffff1614613f9b576040517f08c379a00000000000000000000000000000000000000000000000000000000081526004018080602001828103825260208152602001807f4f776e61626c653a2063616c6c6572206973206e6f7420746865206f776e657281525060200191505060405180910390fd5b600073ffffffffffffffffffffffffffffffffffffffff168173ffffffffffffffffffffffffffffffffffffffff161415614021576040517f08c379a0000000000000000000000000000000000000000000000000000000008152600401808060200182810382526026815260200180615e116026913960400191505060405180910390fd5b8073ffffffffffffffffffffffffffffffffffffffff16606560009054906101000a900473ffffffffffffffffffffffffffffffffffffffff1673ffffffffffffffffffffffffffffffffffffffff167f8be0079c531659141344cd1fd0a4f28419497f9722a3daafe3b4186f6b6457e060405160405180910390a380606560006101000a81548173ffffffffffffffffffffffffffffffffffffffff021916908373ffffffffffffffffffffffffffffffffffffffff16021790555050565b603360009054906101000a900460ff1615614164576040517f08c379a00000000000000000000000000000000000000000000000000000000081526004018080602001828103825260108152602001807f5061757361626c653a207061757365640000000000000000000000000000000081525060200191505060405180910390fd5b600461416e612967565b106141e1576040517f08c379a00000000000000000000000000000000000000000000000000000000081526004018080602001828103825260078152602001807f457870697265640000000000000000000000000000000000000000000000000081525060200191505060405180910390fd5b60008111614257576040517f08c379a000000000000000000000000000000000000000000000000000000000815260040180806020018281038252601d8152602001807f566f7465732073686f756c64206c6172676572207468656e207a65726f00000081525060200191505060405180910390fd5b609a8054905082106142d1576040517f08c379a00000000000000000000000000000000000000000000000000000000081526004018080602001828103825260138152602001807f496e76616c69642070726f706f73616c2069640000000000000000000000000081525060200191505060405180910390fd5b6142db828261477b565b817fd9269f7270bc5664a2191e6eb8966494c9525a450c09c958895c80de0b2d926d826040518082815260200191505060405180910390a25050565b60ae6020528060005260406000206000915090505481565b6000806000905060008090505b609b80549050811015614472577fffffffffffffffffffffffffffffffffffffffffffffffffffffffffffffffff609b828154811061437757fe5b9060005260206000200154141561438d57614472565b6000609b828154811061439c57fe5b90600052602060002001549050600060a460008773ffffffffffffffffffffffffffffffffffffffff1673ffffffffffffffffffffffffffffffffffffffff16815260200190815260200160002060008381526020019081526020016000205490506000811115614463576000609e600084815260200190815260200160002054905061445f61445082614442856815af1d78b58c40000061453490919063ffffffff16565b61473190919063ffffffff16565b8661516a90919063ffffffff16565b9450505b5050808060010191505061433c565b5080915050919050565b61452f8363a9059cbb60e01b8484604051602401808373ffffffffffffffffffffffffffffffffffffffff1673ffffffffffffffffffffffffffffffffffffffff16815260200182815260200192505050604051602081830303815290604052907bffffffffffffffffffffffffffffffffffffffffffffffffffffffff19166020820180517bffffffffffffffffffffffffffffffffffffffffffffffffffffffff83818316178352505050506151f2565b505050565b60008083141561454757600090506145b4565b600082840290508284828161455857fe5b04146145af576040517f08c379a0000000000000000000000000000000000000000000000000000000008152600401808060200182810382526021815260200180615e376021913960400191505060405180910390fd5b809150505b92915050565b60006145fc83836040518060400160405280601e81526020017f536166654d6174683a207375627472616374696f6e206f766572666c6f77000081525061543d565b905092915050565b603360009054906101000a900460ff16614686576040517f08c379a00000000000000000000000000000000000000000000000000000000081526004018080602001828103825260148152602001807f5061757361626c653a206e6f742070617573656400000000000000000000000081525060200191505060405180910390fd5b6000603360006101000a81548160ff0219169083151502179055507f5db9ee0a495bf2e6ff9c91a7834c1ba4fdd244a5e8aa4e537bd38aeae4b073aa33604051808273ffffffffffffffffffffffffffffffffffffffff1673ffffffffffffffffffffffffffffffffffffffff16815260200191505060405180910390a1565b6000803090506000813b9050600081149250505090565b6147256154fd565b565b61472f61551a565b565b600061477383836040518060400160405280601a81526020017f536166654d6174683a206469766973696f6e206279207a65726f0000000000008152506155be565b905092915050565b6147ca333083609860009054906101000a900473ffffffffffffffffffffffffffffffffffffffff1673ffffffffffffffffffffffffffffffffffffffff16615684909392919063ffffffff16565b6147df81609d5461516a90919063ffffffff16565b609d8190555061480b81609e60008581526020019081526020016000205461516a90919063ffffffff16565b609e6000848152602001908152602001600020819055506148748160a060003373ffffffffffffffffffffffffffffffffffffffff1673ffffffffffffffffffffffffffffffffffffffff1681526020019081526020016000205461516a90919063ffffffff16565b60a060003373ffffffffffffffffffffffffffffffffffffffff1673ffffffffffffffffffffffffffffffffffffffff16815260200190815260200160002081905550600060a460003373ffffffffffffffffffffffffffffffffffffffff1673ffffffffffffffffffffffffffffffffffffffff168152602001908152602001600020600084815260200190815260200160002054141561497757609f60003373ffffffffffffffffffffffffffffffffffffffff1673ffffffffffffffffffffffffffffffffffffffff1681526020019081526020016000208290806001815401808255809150506001900390600052602060002001600090919091909150555b6149da8160a460003373ffffffffffffffffffffffffffffffffffffffff1673ffffffffffffffffffffffffffffffffffffffff16815260200190815260200160002060008581526020019081526020016000205461516a90919063ffffffff16565b60a460003373ffffffffffffffffffffffffffffffffffffffff1673ffffffffffffffffffffffffffffffffffffffff168152602001908152602001600020600084815260200190815260200160002081905550614a3782615771565b4260a160003373ffffffffffffffffffffffffffffffffffffffff1673ffffffffffffffffffffffffffffffffffffffff168152602001908152602001600020819055505050565b6000806000905060008090505b600a811015614d34576000609b8281548110614aa457fe5b906000526020600020015490507fffffffffffffffffffffffffffffffffffffffffffffffffffffffffffffffff811415614adf5750614d34565b600060a66000838152602001908152602001600020805490501415614b045750614d27565b60008090505b6003811015614d2457600060a660008481526020019081526020016000208281548110614b3357fe5b906000526020600020015490507fffffffffffffffffffffffffffffffffffffffffffffffffffffffffffffffff811415614b6e5750614d24565b600060b260008973ffffffffffffffffffffffffffffffffffffffff1673ffffffffffffffffffffffffffffffffffffffff16815260200190815260200160002060008381526020019081526020016000205490506000811115614d1557600060ac60008481526020019081526020016000205490506000614c29670de0b6b3a7640000614c1b67016345785d8a000060a78960038110614c0b57fe5b015461453490919063ffffffff16565b61473190919063ffffffff16565b90506000614c4e8260a78860038110614c3e57fe5b01546145ba90919063ffffffff16565b9050614c87614c7884614c6a878561453490919063ffffffff16565b61473190919063ffffffff16565b8a61516a90919063ffffffff16565b985060a58581548110614c9657fe5b906000526020600020906004020160010160009054906101000a900473ffffffffffffffffffffffffffffffffffffffff1673ffffffffffffffffffffffffffffffffffffffff168b73ffffffffffffffffffffffffffffffffffffffff161415614d1157614d0e828a61516a90919063ffffffff16565b98505b5050505b50508080600101915050614b0a565b50505b8080600101915050614a8c565b5080915050919050565b603360009054906101000a900460ff1615614dc1576040517f08c379a00000000000000000000000000000000000000000000000000000000081526004018080602001828103825260108152602001807f5061757361626c653a207061757365640000000000000000000000000000000081525060200191505060405180910390fd5b6001603360006101000a81548160ff0219169083151502179055507f62e78cea01bee320cd4e420270b5ea74000d11b0c9f74754ebdbfc544b05a25833604051808273ffffffffffffffffffffffffffffffffffffffff1673ffffffffffffffffffffffffffffffffffffffff16815260200191505060405180910390a1565b614e90333083609860009054906101000a900473ffffffffffffffffffffffffffffffffffffffff1673ffffffffffffffffffffffffffffffffffffffff16615684909392919063ffffffff16565b614ea58160ab5461516a90919063ffffffff16565b60ab81905550614ed18160ac60008581526020019081526020016000205461516a90919063ffffffff16565b60ac600084815260200190815260200160002081905550614f3a8160ae60003373ffffffffffffffffffffffffffffffffffffffff1673ffffffffffffffffffffffffffffffffffffffff1681526020019081526020016000205461516a90919063ffffffff16565b60ae60003373ffffffffffffffffffffffffffffffffffffffff1673ffffffffffffffffffffffffffffffffffffffff16815260200190815260200160002081905550600060b260003373ffffffffffffffffffffffffffffffffffffffff1673ffffffffffffffffffffffffffffffffffffffff168152602001908152602001600020600084815260200190815260200160002054141561503d5760ad60003373ffffffffffffffffffffffffffffffffffffffff1673ffffffffffffffffffffffffffffffffffffffff1681526020019081526020016000208290806001815401808255809150506001900390600052602060002001600090919091909150555b6150a08160b260003373ffffffffffffffffffffffffffffffffffffffff1673ffffffffffffffffffffffffffffffffffffffff16815260200190815260200160002060008581526020019081526020016000205461516a90919063ffffffff16565b60b260003373ffffffffffffffffffffffffffffffffffffffff1673ffffffffffffffffffffffffffffffffffffffff168152602001908152602001600020600084815260200190815260200160002081905550600060a5838154811061510357fe5b9060005260206000209060040201600001549050615121818461596c565b4260af60003373ffffffffffffffffffffffffffffffffffffffff1673ffffffffffffffffffffffffffffffffffffffff16815260200190815260200160002081905550505050565b6000808284019050838110156151e8576040517f08c379a000000000000000000000000000000000000000000000000000000000815260040180806020018281038252601b8152602001807f536166654d6174683a206164646974696f6e206f766572666c6f77000000000081525060200191505060405180910390fd5b8091505092915050565b6152118273ffffffffffffffffffffffffffffffffffffffff16615bbd565b615283576040517f08c379a000000000000000000000000000000000000000000000000000000000815260040180806020018281038252601f8152602001807f5361666545524332303a2063616c6c20746f206e6f6e2d636f6e74726163740081525060200191505060405180910390fd5b600060608373ffffffffffffffffffffffffffffffffffffffff16836040518082805190602001908083835b602083106152d257805182526020820191506020810190506020830392506152af565b6001836020036101000a0380198251168184511680821785525050505050509050019150506000604051808303816000865af19150503d8060008114615334576040519150601f19603f3d011682016040523d82523d6000602084013e615339565b606091505b5091509150816153b1576040517f08c379a00000000000000000000000000000000000000000000000000000000081526004018080602001828103825260208152602001807f5361666545524332303a206c6f772d6c6576656c2063616c6c206661696c656481525060200191505060405180910390fd5b600081511115615437578080602001905160208110156153d057600080fd5b8101908080519060200190929190505050615436576040517f08c379a000000000000000000000000000000000000000000000000000000000815260040180806020018281038252602a815260200180615e86602a913960400191505060405180910390fd5b5b50505050565b60008383111582906154ea576040517f08c379a00000000000000000000000000000000000000000000000000000000081526004018080602001828103825283818151815260200191508051906020019080838360005b838110156154af578082015181840152602081019050615494565b50505050905090810190601f1680156154dc5780820380516001836020036101000a031916815260200191505b509250505060405180910390fd5b5060008385039050809150509392505050565b6000603360006101000a81548160ff021916908315150217905550565b600033905080606560006101000a81548173ffffffffffffffffffffffffffffffffffffffff021916908373ffffffffffffffffffffffffffffffffffffffff1602179055508073ffffffffffffffffffffffffffffffffffffffff16600073ffffffffffffffffffffffffffffffffffffffff167f8be0079c531659141344cd1fd0a4f28419497f9722a3daafe3b4186f6b6457e060405160405180910390a350565b6000808311829061566a576040517f08c379a00000000000000000000000000000000000000000000000000000000081526004018080602001828103825283818151815260200191508051906020019080838360005b8381101561562f578082015181840152602081019050615614565b50505050905090810190601f16801561565c5780820380516001836020036101000a031916815260200191505b509250505060405180910390fd5b50600083858161567657fe5b049050809150509392505050565b61576b846323b872dd60e01b858585604051602401808473ffffffffffffffffffffffffffffffffffffffff1673ffffffffffffffffffffffffffffffffffffffff1681526020018373ffffffffffffffffffffffffffffffffffffffff1673ffffffffffffffffffffffffffffffffffffffff1681526020018281526020019350505050604051602081830303815290604052907bffffffffffffffffffffffffffffffffffffffffffffffffffffffff19166020820180517bffffffffffffffffffffffffffffffffffffffffffffffffffffffff83818316178352505050506151f2565b50505050565b60007fffffffffffffffffffffffffffffffffffffffffffffffffffffffffffffffff905060006001609b8054905003905060008090505b8181116158cf576000609b82815481106157bf57fe5b906000526020600020015490507fffffffffffffffffffffffffffffffffffffffffffffffffffffffffffffffff811415615829577fffffffffffffffffffffffffffffffffffffffffffffffffffffffffffffffff841415615820578193505b819250506158cf565b80851415615866577fffffffffffffffffffffffffffffffffffffffffffffffffffffffffffffffff84141561585d578193505b819250506158cf565b609e600082815260200190815260200160002054609e60008781526020019081526020016000205411156158c1577fffffffffffffffffffffffffffffffffffffffffffffffffffffffffffffffff8414156158c0578193505b5b5080806001019150506157a9565b5060008190505b8281111561592257609b60018203815481106158ee57fe5b9060005260206000200154609b828154811061590657fe5b90600052602060002001819055508080600190039150506158d6565b507fffffffffffffffffffffffffffffffffffffffffffffffffffffffffffffffff82146159675782609b838154811061595857fe5b90600052602060002001819055505b505050565b60007fffffffffffffffffffffffffffffffffffffffffffffffffffffffffffffffff90506000600160a660008681526020019081526020016000208054905003905060008090505b818111615aec57600060a6600087815260200190815260200160002082815481106159dc57fe5b906000526020600020015490507fffffffffffffffffffffffffffffffffffffffffffffffffffffffffffffffff811415615a46577fffffffffffffffffffffffffffffffffffffffffffffffffffffffffffffffff841415615a3d578193505b81925050615aec565b80851415615a83577fffffffffffffffffffffffffffffffffffffffffffffffffffffffffffffffff841415615a7a578193505b81925050615aec565b60ac60008281526020019081526020016000205460ac6000878152602001908152602001600020541115615ade577fffffffffffffffffffffffffffffffffffffffffffffffffffffffffffffffff841415615add578193505b5b5080806001019150506159b5565b5060008190505b82811115615b615760a660008681526020019081526020016000206001820381548110615b1c57fe5b906000526020600020015460a660008781526020019081526020016000208281548110615b4557fe5b9060005260206000200181905550808060019003915050615af3565b507fffffffffffffffffffffffffffffffffffffffffffffffffffffffffffffffff8214615bb7578260a660008681526020019081526020016000208381548110615ba857fe5b90600052602060002001819055505b50505050565b60008060007fc5d2460186f7233c927e7db2dcc703c0e500b653ca82273b7bfad8045d85a47060001b9050833f9150808214158015615bff57506000801b8214155b92505050919050565b8260038101928215615c44579160200282015b82811115615c43578251829068ffffffffffffffffff16905591602001919060010190615c1b565b5b509050615c519190615deb565b5090565b828054828255906000526020600020908101928215615c91579160200282015b82811115615c90578251825591602001919060010190615c75565b5b509050615c9e9190615deb565b5090565b6040518060800160405280600073ffffffffffffffffffffffffffffffffffffffff1681526020016060815260200160608152602001600081525090565b828054600181600116156101000203166002900490600052602060002090601f016020900481019282601f10615d2157805160ff1916838001178555615d4f565b82800160010185558215615d4f579182015b82811115615d4e578251825591602001919060010190615d33565b5b509050615d5c9190615deb565b5090565b828054828255906000526020600020908101928215615d9c579160200282015b82811115615d9b578251825591602001919060010190615d80565b5b509050615da99190615deb565b5090565b604051806080016040528060008152602001600073ffffffffffffffffffffffffffffffffffffffff16815260200160608152602001600081525090565b615e0d91905b80821115615e09576000816000905550600101615df1565b5090565b9056fe4f776e61626c653a206e6577206f776e657220697320746865207a65726f2061646472657373536166654d6174683a206d756c7469706c69636174696f6e206f766572666c6f77436f6e747261637420696e7374616e63652068617320616c7265616479206265656e20696e697469616c697a65645361666545524332303a204552433230206f7065726174696f6e20646964206e6f742073756363656564a2646970667358221220ad33567be04e45902d9bc1fe60318c7f2666478e4894956c30edc71302338d4c64736f6c63430006060033",
  "immutableReferences": {},
  "source": "pragma solidity ^0.6.0;\n\nimport \"@openzeppelin/contracts-ethereum-package/contracts/math/Math.sol\";\nimport \"@openzeppelin/contracts-ethereum-package/contracts/math/SafeMath.sol\";\nimport \"@openzeppelin/contracts-ethereum-package/contracts/token/ERC20/SafeERC20.sol\";\nimport \"@openzeppelin/contracts-ethereum-package/contracts/token/ERC20/IERC20.sol\";\nimport \"@openzeppelin/contracts-ethereum-package/contracts/Initializable.sol\";\n\n// Inheritance\nimport \"./PausableUpgradeSafe.sol\";\nimport \"./OwnableUpgradeSafe.sol\";\n\ncontract Gallery is Initializable, PausableUpgradeSafe, OwnableUpgradeSafe {\n    using SafeMath for uint256;\n    using SafeERC20 for IERC20;\n\n    /* ========== CONSTANTS ========== */\n\n    uint256 constant PROPOSAL_DAYS = 4;\n    uint256 constant FIGURE_DAYS = 5;\n    uint256 constant WINNING_PROPOSAL_COUNT = 10;\n    uint256 constant WINNING_FIGURE_COUNT = 3;\n    uint256 constant MIN_PROPOSAL_VOTES = 50 ether;\n    uint256 constant MIN_FIGURE_VOTES = 10 ether;\n    uint256 constant REWARDS_PER_PROPOSAL = 400 ether;\n    uint256 constant AUTHOR_REWARDS_RATIO = 0.1 ether;\n    uint256 constant NULL = 2**256 - 1;\n    address constant DEAD_ADDRESS = 0x000000000000000000000000000000000000dEaD;\n\n    /* ========== STRUCTS ========== */\n\n    struct Proposal {\n        address proposer;\n        string name;\n        string info;\n        uint256 createAt;\n    }\n\n    struct Figure {\n        uint256 proposalId;\n        address author;\n        string info;\n        uint256 createAt;\n    }\n\n    /* ========== STATE VARIABLES ========== */\n\n    address public rewardsToken;\n    address public stakingToken;\n    uint256 public startAt;\n\n    // array of all proposals\n    Proposal[] public proposals;\n    // array of proposal id of top proposal\n    uint256[] public topProposals;\n    // if proposal rewards is burned\n    bool public proposalRewardsBurned;\n    // total votes of all proposals\n    uint256 public totalProposalVotes;\n    // proposal id => total votes of this proposal\n    mapping(uint256 => uint256) public proposalVotes;\n    // account => array of proposal id\n    mapping(address => uint256[]) public myProposals;\n    // account => total votes of my proposals\n    mapping(address => uint256) public myProposalVotes;\n    // account => last update at\n    mapping(address => uint256) public myProposalUpdateAt;\n    // account => if my votes and rewards of proposals is withdrawn\n    mapping(address => bool) public myProposalWithdrawn;\n    // account => if my rewards of proposals is claimed\n    mapping(address => bool) public myProposalClaimed;\n    // account => proposal id => votes\n    mapping(address => mapping(uint256 => uint256)) public mySingleProposalVotes;\n\n    // array of all proposals\n    Figure[] public figures;\n    // top proposal id => array of figure id of top figure\n    mapping(uint256 => uint256[]) public topFigures;\n    // array of top figure rewards\n    uint256[WINNING_FIGURE_COUNT] public topFigureRewards;\n    // proposal id => array of figure id\n    mapping(uint256 => uint256[]) public figuresOfProposal;\n    // total votes of all figures\n    uint256 public totalFigureVotes;\n    // figure id => total votes of this figure\n    mapping(uint256 => uint256) public figureVotes;\n    // account => array of figure id\n    mapping(address => uint256[]) public myFigures;\n    // account => total votes of my figures\n    mapping(address => uint256) public myFigureVotes;\n    // account => last update at\n    mapping(address => uint256) public myFigureUpdateAt;\n    // account => if my votes of figures is withdrawn\n    mapping(address => bool) public myFigureWithdrawn;\n    // account => if my rewards of figures is claimed\n    mapping(address => bool) public myFigureClaimed;\n    // account => figure id => votes\n    mapping(address => mapping(uint256 => uint256)) public mySingleFigureVotes;\n\n    /* ========== CONSTRUCTOR ========== */\n\n    function initialize(\n        address _rewardsToken,\n        address _stakingToken\n    )  public initializer {\n        super.__Pausable_init();\n        super.__Ownable_init();\n        rewardsToken = _rewardsToken;\n        stakingToken = _stakingToken;\n        topFigureRewards = [500 ether, 300 ether, 200 ether];\n        topProposals = [NULL, NULL, NULL, NULL, NULL, NULL, NULL, NULL, NULL, NULL];\n        startAt = block.timestamp;\n    }\n\n    /* ========== VIEWS ========== */\n\n    function dayAt() public view returns (uint256) {\n        return block.timestamp.sub(startAt).div(1 days);\n    }\n\n    function proposalCount() public view returns (uint256) {\n        return proposals.length;\n    }\n\n    function figureCount() public view returns (uint256) {\n        return figures.length;\n    }\n\n    function getTopProposal(uint256 index) public view returns (uint256) {\n        return topProposals[index];\n    }\n\n    function getTopFigure(uint256 proposalId, uint256 index) public view returns (uint256) {\n        if (topFigures[proposalId].length == 0) {\n            return NULL;\n        }\n        return topFigures[proposalId][index];\n    }\n\n    function myProposalCount(address target) public view returns (uint256) {\n        return myProposals[target].length;\n    }\n\n    function myFigureCount(address target) public view returns (uint256) {\n        return myFigures[target].length;\n    }\n\n    function figuresOfProposalCount(uint256 proposalId) public view returns (uint256) {\n        return figuresOfProposal[proposalId].length;\n    }\n\n    function myProposalRewards(address target) public view returns (uint256) {\n        if (dayAt() < PROPOSAL_DAYS) {\n            return 0;\n        }\n        return _calculateProposalRewards(target);\n    }\n\n    function myFigureRewards(address target) public view returns (uint256) {\n        if (dayAt() < PROPOSAL_DAYS + FIGURE_DAYS) {\n            return 0;\n        }\n        return _calculateFigureRewards(target);\n    }\n\n    /* ========== MUTATIVE FUNCTIONS ========== */\n\n    function createProposal(string calldata name, string calldata info) external whenNotPaused {\n        require(dayAt() < PROPOSAL_DAYS, \"Expired\");\n        require(bytes(name).length <= 32, \"Name's length is too big\");\n        require(bytes(info).length <= 200, \"Info's length is too big\");\n\n        // create proposal\n        Proposal memory proposal;\n        proposal.proposer = msg.sender;\n        proposal.name = name;\n        proposal.info = info;\n        proposal.createAt = block.timestamp;\n        proposals.push(proposal);\n\n        // vote for proposal\n        uint256 proposalId = proposals.length - 1;\n        uint256 votes = MIN_PROPOSAL_VOTES;\n        _voteForProposal(proposalId, votes);\n\n        emit ProposalCreated(proposalId, votes);\n    }\n\n    function voteForProposal(uint256 proposalId, uint256 votes) external whenNotPaused {\n        require(dayAt() < PROPOSAL_DAYS, \"Expired\");\n        require(votes > 0, \"Votes should larger then zero\");\n        require(proposalId < proposals.length, \"Invalid proposal id\");\n\n        // vote for proposal\n        _voteForProposal(proposalId, votes);\n\n        emit ProposalVoted(proposalId, votes);\n    }\n\n    function withdrawFromProposal() external whenNotPaused {\n        require(dayAt() >= PROPOSAL_DAYS, \"Not expired\");\n        require(myProposalUpdateAt[msg.sender] != 0, \"Cannot withdraw from proposal\");\n        require(block.timestamp.sub(myProposalUpdateAt[msg.sender]) > 4 days, \"Cannot withdraw within 4 days\");\n        require(!myProposalWithdrawn[msg.sender], \"You have already withdrawn\");\n        myProposalWithdrawn[msg.sender] = true;\n\n        // withdraw votes\n        uint256 votes = myProposalVotes[msg.sender];\n        if (votes > 0) {\n            IERC20(stakingToken).safeTransfer(msg.sender, votes);\n        }\n\n        emit ProposalWithdrawn(votes);\n    }\n\n    function claimFromProposal() external whenNotPaused {\n        require(dayAt() >= PROPOSAL_DAYS, \"Not expired\");\n        require(myProposalUpdateAt[msg.sender] != 0, \"Cannot claim from proposal\");\n        require(!myProposalClaimed[msg.sender], \"You have already claimed\");\n        myProposalClaimed[msg.sender] = true;\n\n        // claim rewards\n        uint256 rewards = _calculateProposalRewards(msg.sender);\n        if (rewards > 0) {\n            IERC20(rewardsToken).safeTransfer(msg.sender, rewards);\n        }\n\n        emit ProposalClaimed(rewards);\n    }\n\n    function burnFromProposal() external whenNotPaused onlyOwner {\n        require(dayAt() >= PROPOSAL_DAYS, \"Not expired\");\n        require(!proposalRewardsBurned, \"Proposal rewards has been burned\");\n        proposalRewardsBurned = true;\n\n        uint256 burnCount = 0;\n        for (uint256 i = 0; i < WINNING_PROPOSAL_COUNT; i++) {\n            if (topProposals[i] == NULL) {\n                burnCount++;\n            }\n        }\n        uint256 burnAmount = 0;\n        if (burnCount > 0) {\n            burnAmount = REWARDS_PER_PROPOSAL.mul(burnCount);\n            IERC20(rewardsToken).safeTransfer(DEAD_ADDRESS, burnAmount);\n        }\n\n        emit ProposalBurned(burnAmount);\n    }\n\n    function createFigure(uint256 proposalId, string calldata info) external whenNotPaused {\n        require(dayAt() < PROPOSAL_DAYS + FIGURE_DAYS, \"Expired\");\n        require(proposalId < proposals.length, \"Invalid proposal id\");\n        require(bytes(info).length <= 500, \"Info's length is too big\");\n        bool inTopProposals = false;\n        for (uint256 i = 0; i < WINNING_PROPOSAL_COUNT; i++) {\n            if (topProposals[i] == proposalId) {\n                inTopProposals = true;\n                break;\n            }\n        }\n        if (!inTopProposals) {\n            revert(\"Invalid proposal id\");\n        }\n\n        if (topFigures[proposalId].length != WINNING_FIGURE_COUNT) {\n            topFigures[proposalId] = [NULL, NULL, NULL];\n        }\n\n        // create figure\n        Figure memory figure;\n        figure.proposalId = proposalId;\n        figure.author = msg.sender;\n        figure.info = info;\n        figure.createAt = block.timestamp;\n        figures.push(figure);\n\n        // vote for figure\n        uint256 figureId = figures.length - 1;\n        uint256 votes = MIN_FIGURE_VOTES;\n        _voteForFigure(figureId, votes);\n        figuresOfProposal[proposalId].push(figureId);\n\n        emit FigureCreated(figureId, votes);\n    }\n\n    function voteForFigure(uint256 figureId, uint256 votes) external whenNotPaused {\n        require(dayAt() < PROPOSAL_DAYS + FIGURE_DAYS, \"Expired\");\n        require(figureId < figures.length, \"Invalid figure id\");\n        require(votes > 0, \"Votes should larger then zero\");\n\n        // vote for figure\n        _voteForFigure(figureId, votes);\n\n        emit FigureVoted(figureId, votes);\n    }\n\n    function withdrawFromFigure() external whenNotPaused {\n        require(dayAt() >= PROPOSAL_DAYS + FIGURE_DAYS, \"Not expired\");\n        require(myFigureUpdateAt[msg.sender] != 0, \"Cannot withdraw from figure\");\n        require(block.timestamp.sub(myFigureUpdateAt[msg.sender]) > 7 days, \"Cannot claim within 7 days\");\n        require(!myFigureWithdrawn[msg.sender], \"You have already withdrawn\");\n        myFigureWithdrawn[msg.sender] = true;\n\n        // withdraw votes\n        uint256 votes = myFigureVotes[msg.sender];\n        if (votes > 0) {\n            IERC20(stakingToken).safeTransfer(msg.sender, votes);\n        }\n\n        emit FigureWithdrawn(votes);\n    }\n\n    function claimFromFigure() external whenNotPaused {\n        require(dayAt() >= PROPOSAL_DAYS + FIGURE_DAYS, \"Not expired\");\n        require(myFigureUpdateAt[msg.sender] != 0, \"Cannot claim from figure\");\n        require(!myFigureClaimed[msg.sender], \"You have already claimed\");\n        myFigureClaimed[msg.sender] = true;\n\n        // claim rewards\n        uint256 rewards = _calculateFigureRewards(msg.sender);\n        if (rewards > 0) {\n            IERC20(rewardsToken).safeTransfer(msg.sender, rewards);\n        }\n\n        emit FigureClaimed(rewards);\n    }\n\n    function pause() external onlyOwner {\n        super._pause();\n    }\n\n    function unpause() external onlyOwner {\n        super._unpause();\n    }\n\n    function _voteForProposal(uint256 proposalId, uint256 votes) private {\n        // send token to contract\n        IERC20(stakingToken).safeTransferFrom(msg.sender, address(this), votes);\n\n        // update votes\n        totalProposalVotes = totalProposalVotes.add(votes);\n        proposalVotes[proposalId] = proposalVotes[proposalId].add(votes);\n        myProposalVotes[msg.sender] = myProposalVotes[msg.sender].add(votes);\n        if (mySingleProposalVotes[msg.sender][proposalId] == 0) {\n            myProposals[msg.sender].push(proposalId);\n        }\n        mySingleProposalVotes[msg.sender][proposalId] = mySingleProposalVotes[msg.sender][proposalId].add(votes);\n\n        // sort top proposals\n        _sortTopProposals(proposalId);\n\n        // update vote time\n        myProposalUpdateAt[msg.sender] = block.timestamp;\n    }\n\n    function _voteForFigure(uint256 figureId, uint256 votes) private {\n        // send token to contract\n        IERC20(stakingToken).safeTransferFrom(msg.sender, address(this), votes);\n\n        // update votes\n        totalFigureVotes = totalFigureVotes.add(votes);\n        figureVotes[figureId] = figureVotes[figureId].add(votes);\n        myFigureVotes[msg.sender] = myFigureVotes[msg.sender].add(votes);\n        if (mySingleFigureVotes[msg.sender][figureId] == 0) {\n            myFigures[msg.sender].push(figureId);\n        }\n        mySingleFigureVotes[msg.sender][figureId] = mySingleFigureVotes[msg.sender][figureId].add(votes);\n\n        // sort top figures\n        uint256 proposalId = figures[figureId].proposalId;\n        _sortTopFigures(proposalId, figureId);\n\n        // update vote time\n        myFigureUpdateAt[msg.sender] = block.timestamp;\n    }\n\n    function _sortTopProposals(uint256 proposalId) private {\n        uint256 begin = NULL;\n        uint256 end = topProposals.length-1;\n        for (uint256 i = 0; i <= end; i++) {\n            uint256 _proposalId = topProposals[i];\n            if (_proposalId == NULL) {\n                if (begin == NULL) {\n                    begin = i;\n                }\n                end = i;\n                break;\n            }\n            if (proposalId == _proposalId) {\n                if (begin == NULL) {\n                    begin = i;\n                }\n                end = i;\n                break;\n            }\n            if (proposalVotes[proposalId] > proposalVotes[_proposalId]) {\n                if (begin == NULL) {\n                    begin = i;\n                }\n            }\n        }\n        // right shift array elements\n        for (uint256 j = end; j > begin; j--) {\n            topProposals[j] = topProposals[j-1];\n        }\n        if (begin != NULL) {\n            topProposals[begin] = proposalId;\n        }\n    }\n\n    function _sortTopFigures(uint256 proposalId, uint256 figureId) private {\n        uint256 begin = NULL;\n        uint256 end = topFigures[proposalId].length-1;\n        for (uint256 i = 0; i <= end; i++) {\n            uint256 _figureId = topFigures[proposalId][i];\n            if (_figureId == NULL) {\n                if (begin == NULL) {\n                    begin = i;\n                }\n                end = i;\n                break;\n            }\n            if (figureId == _figureId) {\n                if (begin == NULL) {\n                    begin = i;\n                }\n                end = i;\n                break;\n            }\n            if (figureVotes[figureId] > figureVotes[_figureId]) {\n                if (begin == NULL) {\n                    begin = i;\n                }\n            }\n        }\n        // right shift array elements\n        for (uint256 j = end; j > begin; j--) {\n            topFigures[proposalId][j] = topFigures[proposalId][j-1];\n        }\n        if (begin != NULL) {\n            topFigures[proposalId][begin] = figureId;\n        }\n    }\n\n    function _calculateProposalRewards(address target) private view returns(uint256) {\n        uint256 rewards = 0;\n        for (uint256 i = 0; i < topProposals.length; i++) {\n            if (topProposals[i] == NULL) {\n                break;\n            }\n            uint256 proposalId = topProposals[i];\n            uint256 myVotes = mySingleProposalVotes[target][proposalId];\n            if (myVotes > 0) {\n                uint256 totalVotes = proposalVotes[proposalId];\n                rewards = rewards.add(REWARDS_PER_PROPOSAL.mul(myVotes).div(totalVotes));\n            }\n        }\n        return rewards;\n    }\n\n    function _calculateFigureRewards(address target) private view returns(uint256) {\n        uint256 rewards = 0;\n        for (uint256 i = 0; i < WINNING_PROPOSAL_COUNT; i++) {\n            uint256 proposalId = topProposals[i];\n            if (proposalId == NULL) {\n                break;\n            }\n            if (topFigures[proposalId].length == 0) {\n                continue;\n            }\n            for (uint256 j = 0; j < WINNING_FIGURE_COUNT; j++) {\n                uint256 figureId = topFigures[proposalId][j];\n                if (figureId == NULL) {\n                    break;\n                }\n                uint256 myVotes = mySingleFigureVotes[target][figureId];\n                if (myVotes > 0) {\n                    uint256 totalVotes = figureVotes[figureId];\n                    uint256 authorRewards = topFigureRewards[j].mul(AUTHOR_REWARDS_RATIO).div(1 ether);\n                    uint256 totalRewards = topFigureRewards[j].sub(authorRewards);\n                    rewards = rewards.add(totalRewards.mul(myVotes).div(totalVotes));\n                    // is author\n                    if (target == figures[figureId].author) {\n                        rewards = rewards.add(authorRewards);\n                    }\n                }\n            }\n        }\n        return rewards;\n    }\n\n    /* ========== EVENTS ========== */\n\n    event ProposalCreated(uint256 indexed proposalId, uint256 votes);\n    event ProposalVoted(uint256 indexed proposalId, uint256 votes);\n    event ProposalWithdrawn(uint256 votes);\n    event ProposalClaimed(uint256 rewards);\n    event ProposalBurned(uint256 votes);\n    event FigureCreated(uint256 indexed figureId, uint256 votes);\n    event FigureVoted(uint256 indexed figureId, uint256 votes);\n    event FigureWithdrawn(uint256 votes);\n    event FigureClaimed(uint256 rewards);\n}",
  "sourcePath": "/Users/edwin/github/gallery.finance/gallery.finance.smart/contracts/Gallery.sol",
  "compiler": {
    "name": "solc",
    "version": "0.6.6+commit.6c089d02.Emscripten.clang"
  },
  "schemaVersion": "3.3.0",
  "updatedAt": "2020-11-01T09:20:11.597Z",
  "networkType": "ethereum",
  "devdoc": {
    "methods": {
      "owner()": {
        "details": "Returns the address of the current owner."
      },
      "paused()": {
        "details": "Returns true if the contract is paused, and false otherwise."
      },
      "renounceOwnership()": {
        "details": "Leaves the contract without owner. It will not be possible to call `onlyOwner` functions anymore. Can only be called by the current owner.     * NOTE: Renouncing ownership will leave the contract without an owner, thereby removing any functionality that is only available to the owner."
      },
      "transferOwnership(address)": {
        "details": "Transfers ownership of the contract to a new account (`newOwner`). Can only be called by the current owner."
      }
    }
  },
  "userdoc": {
    "methods": {}
  }
}