{
  "contractName": "StakingScore",
  "abi": [
    {
      "anonymous": false,
      "inputs": [
        {
          "indexed": false,
          "internalType": "uint256",
          "name": "amount",
          "type": "uint256"
        }
      ],
      "name": "Claimed",
      "type": "event"
    },
    {
      "anonymous": false,
      "inputs": [
        {
          "indexed": true,
          "internalType": "address",
          "name": "previousOwner",
          "type": "address"
        },
        {
          "indexed": true,
          "internalType": "address",
          "name": "newOwner",
          "type": "address"
        }
      ],
      "name": "OwnershipTransferred",
      "type": "event"
    },
    {
      "anonymous": false,
      "inputs": [
        {
          "indexed": false,
          "internalType": "uint256",
          "name": "amount",
          "type": "uint256"
        }
      ],
      "name": "Staked",
      "type": "event"
    },
    {
      "anonymous": false,
      "inputs": [
        {
          "indexed": false,
          "internalType": "uint256",
          "name": "amount",
          "type": "uint256"
        }
      ],
      "name": "Withdrawn",
      "type": "event"
    },
    {
      "inputs": [
        {
          "internalType": "address",
          "name": "",
          "type": "address"
        }
      ],
      "name": "lastClaimAt",
      "outputs": [
        {
          "internalType": "uint256",
          "name": "",
          "type": "uint256"
        }
      ],
      "stateMutability": "view",
      "type": "function",
      "constant": true
    },
    {
      "inputs": [
        {
          "internalType": "address",
          "name": "",
          "type": "address"
        }
      ],
      "name": "myStake",
      "outputs": [
        {
          "internalType": "uint256",
          "name": "",
          "type": "uint256"
        }
      ],
      "stateMutability": "view",
      "type": "function",
      "constant": true
    },
    {
      "inputs": [],
      "name": "owner",
      "outputs": [
        {
          "internalType": "address",
          "name": "",
          "type": "address"
        }
      ],
      "stateMutability": "view",
      "type": "function",
      "constant": true
    },
    {
      "inputs": [],
      "name": "renounceOwnership",
      "outputs": [],
      "stateMutability": "nonpayable",
      "type": "function"
    },
    {
      "inputs": [],
      "name": "scoreToken",
      "outputs": [
        {
          "internalType": "address",
          "name": "",
          "type": "address"
        }
      ],
      "stateMutability": "view",
      "type": "function",
      "constant": true
    },
    {
      "inputs": [],
      "name": "stakingToken",
      "outputs": [
        {
          "internalType": "address",
          "name": "",
          "type": "address"
        }
      ],
      "stateMutability": "view",
      "type": "function",
      "constant": true
    },
    {
      "inputs": [],
      "name": "startAt",
      "outputs": [
        {
          "internalType": "uint256",
          "name": "",
          "type": "uint256"
        }
      ],
      "stateMutability": "view",
      "type": "function",
      "constant": true
    },
    {
      "inputs": [],
      "name": "totalStake",
      "outputs": [
        {
          "internalType": "uint256",
          "name": "",
          "type": "uint256"
        }
      ],
      "stateMutability": "view",
      "type": "function",
      "constant": true
    },
    {
      "inputs": [
        {
          "internalType": "address",
          "name": "newOwner",
          "type": "address"
        }
      ],
      "name": "transferOwnership",
      "outputs": [],
      "stateMutability": "nonpayable",
      "type": "function"
    },
    {
      "inputs": [
        {
          "internalType": "address",
          "name": "_stakingToken",
          "type": "address"
        },
        {
          "internalType": "address",
          "name": "_scoreToken",
          "type": "address"
        }
      ],
      "name": "initialize",
      "outputs": [],
      "stateMutability": "nonpayable",
      "type": "function"
    },
    {
      "inputs": [],
      "name": "dayAt",
      "outputs": [
        {
          "internalType": "uint256",
          "name": "",
          "type": "uint256"
        }
      ],
      "stateMutability": "view",
      "type": "function",
      "constant": true
    },
    {
      "inputs": [
        {
          "internalType": "uint256",
          "name": "amount",
          "type": "uint256"
        }
      ],
      "name": "stake",
      "outputs": [],
      "stateMutability": "nonpayable",
      "type": "function"
    },
    {
      "inputs": [
        {
          "internalType": "uint256",
          "name": "amount",
          "type": "uint256"
        }
      ],
      "name": "withdraw",
      "outputs": [],
      "stateMutability": "nonpayable",
      "type": "function"
    },
    {
      "inputs": [],
      "name": "claimScore",
      "outputs": [],
      "stateMutability": "nonpayable",
      "type": "function"
    },
    {
      "inputs": [
        {
          "internalType": "address",
          "name": "target",
          "type": "address"
        }
      ],
      "name": "calculateReward",
      "outputs": [
        {
          "internalType": "uint256",
          "name": "",
          "type": "uint256"
        }
      ],
      "stateMutability": "view",
      "type": "function",
      "constant": true
    }
  ],
  "bytecode": "0x608060405234801561001057600080fd5b50611947806100206000396000f3fe608060405234801561001057600080fd5b50600436106100f55760003560e01c806372f702f311610097578063beaa369a11610066578063beaa369a14610340578063c744656514610398578063d82e3962146103b6578063f2fde38b1461040e576100f5565b806372f702f3146102605780638b0e9f3f146102aa5780638da5cb5b146102c8578063a694fc3a14610312576100f5565b8063485cc955116100d3578063485cc955146101ca578063613dd9c21461022e5780636b1a93bf1461024c578063715018a614610256576100f5565b806303822d3b146100fa5780632e1a7d4d14610152578063348fb5aa14610180575b600080fd5b61013c6004803603602081101561011057600080fd5b81019080803573ffffffffffffffffffffffffffffffffffffffff169060200190929190505050610452565b6040518082815260200191505060405180910390f35b61017e6004803603602081101561016857600080fd5b810190808035906020019092919050505061046a565b005b610188610621565b604051808273ffffffffffffffffffffffffffffffffffffffff1673ffffffffffffffffffffffffffffffffffffffff16815260200191505060405180910390f35b61022c600480360360408110156101e057600080fd5b81019080803573ffffffffffffffffffffffffffffffffffffffff169060200190929190803573ffffffffffffffffffffffffffffffffffffffff169060200190929190505050610647565b005b6102366107d9565b6040518082815260200191505060405180910390f35b61025461080a565b005b61025e6108ee565b005b610268610a72565b604051808273ffffffffffffffffffffffffffffffffffffffff1673ffffffffffffffffffffffffffffffffffffffff16815260200191505060405180910390f35b6102b2610a98565b6040518082815260200191505060405180910390f35b6102d0610a9e565b604051808273ffffffffffffffffffffffffffffffffffffffff1673ffffffffffffffffffffffffffffffffffffffff16815260200191505060405180910390f35b61033e6004803603602081101561032857600080fd5b8101908080359060200190929190505050610ac8565b005b6103826004803603602081101561035657600080fd5b81019080803573ffffffffffffffffffffffffffffffffffffffff169060200190929190505050610cfc565b6040518082815260200191505060405180910390f35b6103a0610d14565b6040518082815260200191505060405180910390f35b6103f8600480360360208110156103cc57600080fd5b81019080803573ffffffffffffffffffffffffffffffffffffffff169060200190929190505050610d1a565b6040518082815260200191505060405180910390f35b6104506004803603602081101561042457600080fd5b81019080803573ffffffffffffffffffffffffffffffffffffffff169060200190929190505050610ef9565b005b606a6020528060005260406000206000915090505481565b61047261080a565b600081116104e8576040517f08c379a00000000000000000000000000000000000000000000000000000000081526004018080602001828103825260198152602001807f416d6f756e742073686f756c64206265206e6f6e2d7a65726f0000000000000081525060200191505060405180910390fd5b61053a81606960003373ffffffffffffffffffffffffffffffffffffffff1673ffffffffffffffffffffffffffffffffffffffff1681526020019081526020016000205461110290919063ffffffff16565b606960003373ffffffffffffffffffffffffffffffffffffffff1673ffffffffffffffffffffffffffffffffffffffff168152602001908152602001600020819055506105928160685461110290919063ffffffff16565b6068819055506105e7303383606560009054906101000a900473ffffffffffffffffffffffffffffffffffffffff1673ffffffffffffffffffffffffffffffffffffffff1661114c909392919063ffffffff16565b7f430648de173157e069201c943adb2d4e340e7cf5b27b1b09c9cb852f03d63b56816040518082815260200191505060405180910390a150565b606660009054906101000a900473ffffffffffffffffffffffffffffffffffffffff1681565b600060019054906101000a900460ff16806106665750610665611239565b5b8061067d57506000809054906101000a900460ff16155b6106d2576040517f08c379a000000000000000000000000000000000000000000000000000000000815260040180806020018281038252602e8152602001806118ba602e913960400191505060405180910390fd5b60008060019054906101000a900460ff161590508015610722576001600060016101000a81548160ff02191690831515021790555060016000806101000a81548160ff0219169083151502179055505b61072a611250565b82606560006101000a81548173ffffffffffffffffffffffffffffffffffffffff021916908373ffffffffffffffffffffffffffffffffffffffff16021790555081606660006101000a81548173ffffffffffffffffffffffffffffffffffffffff021916908373ffffffffffffffffffffffffffffffffffffffff1602179055504260678190555080156107d45760008060016101000a81548160ff0219169083151502179055505b505050565b6000610805620151806107f76067544261110290919063ffffffff16565b61125a90919063ffffffff16565b905090565b600061081533610d1a565b905060008111156108705761086f333083606660009054906101000a900473ffffffffffffffffffffffffffffffffffffffff1673ffffffffffffffffffffffffffffffffffffffff1661114c909392919063ffffffff16565b5b42606a60003373ffffffffffffffffffffffffffffffffffffffff1673ffffffffffffffffffffffffffffffffffffffff168152602001908152602001600020819055507f7a355715549cfe7c1cba26304350343fbddc4b4f72d3ce3e7c27117dd20b5cb8816040518082815260200191505060405180910390a150565b3373ffffffffffffffffffffffffffffffffffffffff16603360009054906101000a900473ffffffffffffffffffffffffffffffffffffffff1673ffffffffffffffffffffffffffffffffffffffff16146109b1576040517f08c379a00000000000000000000000000000000000000000000000000000000081526004018080602001828103825260208152602001807f4f776e61626c653a2063616c6c6572206973206e6f7420746865206f776e657281525060200191505060405180910390fd5b600073ffffffffffffffffffffffffffffffffffffffff16603360009054906101000a900473ffffffffffffffffffffffffffffffffffffffff1673ffffffffffffffffffffffffffffffffffffffff167f8be0079c531659141344cd1fd0a4f28419497f9722a3daafe3b4186f6b6457e060405160405180910390a36000603360006101000a81548173ffffffffffffffffffffffffffffffffffffffff021916908373ffffffffffffffffffffffffffffffffffffffff160217905550565b606560009054906101000a900473ffffffffffffffffffffffffffffffffffffffff1681565b60685481565b6000603360009054906101000a900473ffffffffffffffffffffffffffffffffffffffff16905090565b610ad061080a565b6019610ada6107d9565b10610b4d576040517f08c379a00000000000000000000000000000000000000000000000000000000081526004018080602001828103825260078152602001807f457870697265640000000000000000000000000000000000000000000000000081525060200191505060405180910390fd5b60008111610bc3576040517f08c379a00000000000000000000000000000000000000000000000000000000081526004018080602001828103825260198152602001807f416d6f756e742073686f756c64206265206e6f6e2d7a65726f0000000000000081525060200191505060405180910390fd5b610c12333083606560009054906101000a900473ffffffffffffffffffffffffffffffffffffffff1673ffffffffffffffffffffffffffffffffffffffff1661114c909392919063ffffffff16565b610c27816068546112a490919063ffffffff16565b606881905550610c7f81606960003373ffffffffffffffffffffffffffffffffffffffff1673ffffffffffffffffffffffffffffffffffffffff168152602001908152602001600020546112a490919063ffffffff16565b606960003373ffffffffffffffffffffffffffffffffffffffff1673ffffffffffffffffffffffffffffffffffffffff168152602001908152602001600020819055507feebbaa86c348cb664e392b180fd0ff2e1998af9fa833ef69a778cb0b42d3ca27816040518082815260200191505060405180910390a150565b60696020528060005260406000206000915090505481565b60675481565b600080610d6f606a60008573ffffffffffffffffffffffffffffffffffffffff1673ffffffffffffffffffffffffffffffffffffffff168152602001908152602001600020544261110290919063ffffffff16565b905060006068541415610d86576000915050610ef4565b6000606660009054906101000a900473ffffffffffffffffffffffffffffffffffffffff1673ffffffffffffffffffffffffffffffffffffffff166370a08231306040518263ffffffff1660e01b8152600401808273ffffffffffffffffffffffffffffffffffffffff1673ffffffffffffffffffffffffffffffffffffffff16815260200191505060206040518083038186803b158015610e2757600080fd5b505afa158015610e3b573d6000803e3d6000fd5b505050506040513d6020811015610e5157600080fd5b81019080805190602001909291905050509050610eef6019610ee184610ed3606854610ec5606960008c73ffffffffffffffffffffffffffffffffffffffff1673ffffffffffffffffffffffffffffffffffffffff168152602001908152602001600020548861132c90919063ffffffff16565b61125a90919063ffffffff16565b61132c90919063ffffffff16565b61125a90919063ffffffff16565b925050505b919050565b3373ffffffffffffffffffffffffffffffffffffffff16603360009054906101000a900473ffffffffffffffffffffffffffffffffffffffff1673ffffffffffffffffffffffffffffffffffffffff1614610fbc576040517f08c379a00000000000000000000000000000000000000000000000000000000081526004018080602001828103825260208152602001807f4f776e61626c653a2063616c6c6572206973206e6f7420746865206f776e657281525060200191505060405180910390fd5b600073ffffffffffffffffffffffffffffffffffffffff168173ffffffffffffffffffffffffffffffffffffffff161415611042576040517f08c379a00000000000000000000000000000000000000000000000000000000081526004018080602001828103825260268152602001806118736026913960400191505060405180910390fd5b8073ffffffffffffffffffffffffffffffffffffffff16603360009054906101000a900473ffffffffffffffffffffffffffffffffffffffff1673ffffffffffffffffffffffffffffffffffffffff167f8be0079c531659141344cd1fd0a4f28419497f9722a3daafe3b4186f6b6457e060405160405180910390a380603360006101000a81548173ffffffffffffffffffffffffffffffffffffffff021916908373ffffffffffffffffffffffffffffffffffffffff16021790555050565b600061114483836040518060400160405280601e81526020017f536166654d6174683a207375627472616374696f6e206f766572666c6f7700008152506113b2565b905092915050565b611233846323b872dd60e01b858585604051602401808473ffffffffffffffffffffffffffffffffffffffff1673ffffffffffffffffffffffffffffffffffffffff1681526020018373ffffffffffffffffffffffffffffffffffffffff1673ffffffffffffffffffffffffffffffffffffffff1681526020018281526020019350505050604051602081830303815290604052907bffffffffffffffffffffffffffffffffffffffffffffffffffffffff19166020820180517bffffffffffffffffffffffffffffffffffffffffffffffffffffffff8381831617835250505050611472565b50505050565b6000803090506000813b9050600081149250505090565b6112586116bd565b565b600061129c83836040518060400160405280601a81526020017f536166654d6174683a206469766973696f6e206279207a65726f000000000000815250611761565b905092915050565b600080828401905083811015611322576040517f08c379a000000000000000000000000000000000000000000000000000000000815260040180806020018281038252601b8152602001807f536166654d6174683a206164646974696f6e206f766572666c6f77000000000081525060200191505060405180910390fd5b8091505092915050565b60008083141561133f57600090506113ac565b600082840290508284828161135057fe5b04146113a7576040517f08c379a00000000000000000000000000000000000000000000000000000000081526004018080602001828103825260218152602001806118996021913960400191505060405180910390fd5b809150505b92915050565b600083831115829061145f576040517f08c379a00000000000000000000000000000000000000000000000000000000081526004018080602001828103825283818151815260200191508051906020019080838360005b83811015611424578082015181840152602081019050611409565b50505050905090810190601f1680156114515780820380516001836020036101000a031916815260200191505b509250505060405180910390fd5b5060008385039050809150509392505050565b6114918273ffffffffffffffffffffffffffffffffffffffff16611827565b611503576040517f08c379a000000000000000000000000000000000000000000000000000000000815260040180806020018281038252601f8152602001807f5361666545524332303a2063616c6c20746f206e6f6e2d636f6e74726163740081525060200191505060405180910390fd5b600060608373ffffffffffffffffffffffffffffffffffffffff16836040518082805190602001908083835b60208310611552578051825260208201915060208101905060208303925061152f565b6001836020036101000a0380198251168184511680821785525050505050509050019150506000604051808303816000865af19150503d80600081146115b4576040519150601f19603f3d011682016040523d82523d6000602084013e6115b9565b606091505b509150915081611631576040517f08c379a00000000000000000000000000000000000000000000000000000000081526004018080602001828103825260208152602001807f5361666545524332303a206c6f772d6c6576656c2063616c6c206661696c656481525060200191505060405180910390fd5b6000815111156116b75780806020019051602081101561165057600080fd5b81019080805190602001909291905050506116b6576040517f08c379a000000000000000000000000000000000000000000000000000000000815260040180806020018281038252602a8152602001806118e8602a913960400191505060405180910390fd5b5b50505050565b600033905080603360006101000a81548173ffffffffffffffffffffffffffffffffffffffff021916908373ffffffffffffffffffffffffffffffffffffffff1602179055508073ffffffffffffffffffffffffffffffffffffffff16600073ffffffffffffffffffffffffffffffffffffffff167f8be0079c531659141344cd1fd0a4f28419497f9722a3daafe3b4186f6b6457e060405160405180910390a350565b6000808311829061180d576040517f08c379a00000000000000000000000000000000000000000000000000000000081526004018080602001828103825283818151815260200191508051906020019080838360005b838110156117d25780820151818401526020810190506117b7565b50505050905090810190601f1680156117ff5780820380516001836020036101000a031916815260200191505b509250505060405180910390fd5b50600083858161181957fe5b049050809150509392505050565b60008060007fc5d2460186f7233c927e7db2dcc703c0e500b653ca82273b7bfad8045d85a47060001b9050833f915080821415801561186957506000801b8214155b9250505091905056fe4f776e61626c653a206e6577206f776e657220697320746865207a65726f2061646472657373536166654d6174683a206d756c7469706c69636174696f6e206f766572666c6f77436f6e747261637420696e7374616e63652068617320616c7265616479206265656e20696e697469616c697a65645361666545524332303a204552433230206f7065726174696f6e20646964206e6f742073756363656564a26469706673582212209c2b50b90e3949ebe24cb2824c147fb9fb0290d0f91ade0e8aaade365480309a64736f6c63430006060033",
  "immutableReferences": {},
  "source": "pragma solidity ^0.6.0;\n\nimport \"@openzeppelin/contracts-ethereum-package/contracts/math/Math.sol\";\nimport \"@openzeppelin/contracts-ethereum-package/contracts/math/SafeMath.sol\";\nimport \"@openzeppelin/contracts-ethereum-package/contracts/token/ERC20/SafeERC20.sol\";\nimport \"@openzeppelin/contracts-ethereum-package/contracts/token/ERC20/IERC20.sol\";\nimport \"@openzeppelin/contracts-ethereum-package/contracts/token/ERC721/IERC721.sol\";\nimport \"@openzeppelin/contracts-ethereum-package/contracts/Initializable.sol\";\n\n// Inheritance\nimport \"./interfaces/IStakingRewards.sol\";\nimport \"./interfaces/IUniswapPriceOracle.sol\";\nimport \"./OwnableUpgradeSafe.sol\";\n\ncontract StakingScore is Initializable, OwnableUpgradeSafe {\n    using SafeMath for uint256;\n    using SafeERC20 for IERC20;\n\n    /* ========== CONSTANTS ========== */\n\n    uint256 constant STAKING_DAYS = 25;\n\n    /* ========== STATE VARIABLES ========== */\n\n    address public stakingToken;\n    address public scoreToken;\n    uint256 public startAt;\n    uint256 public totalStake;\n    // address => amount of my staking\n    mapping(address => uint256) public myStake;\n    // address => last time of claim score\n    mapping(address => uint) public lastClaimAt;\n\n    /* ========== CONSTRUCTOR ========== */\n\n    function initialize(\n        address _stakingToken,\n        address _scoreToken\n    )  public initializer {\n        super.__Ownable_init();\n        stakingToken = _stakingToken;\n        scoreToken = _scoreToken;\n        startAt = block.timestamp;\n    }\n\n    /* ========== VIEWS ========== */\n\n    function dayAt() public view returns (uint256) {\n        return block.timestamp.sub(startAt).div(1 days);\n    }\n\n    /* ========== MUTATIVE FUNCTIONS ========== */\n\n    function stake(uint256 amount) external {\n        claimScore();\n\n        require(dayAt() < STAKING_DAYS, \"Expired\");\n        require(amount > 0, \"Amount should be non-zero\");\n\n        // send ERC20 token to contract\n        IERC20(stakingToken).safeTransferFrom(msg.sender, address(this), amount);\n\n        // update stake value\n        totalStake = totalStake.add(amount);\n        myStake[msg.sender] = myStake[msg.sender].add(amount);\n\n        emit Staked(amount);\n    }\n\n    function withdraw(uint256 amount) external {\n        claimScore();\n\n        require(amount > 0, \"Amount should be non-zero\");\n\n        // update stake value\n        myStake[msg.sender] = myStake[msg.sender].sub(amount);\n        totalStake = totalStake.sub(amount);\n\n        // send ERC20 token to sender\n        IERC20(stakingToken).safeTransferFrom(address(this), msg.sender, amount);\n\n        emit Withdrawn(amount);\n    }\n\n    function claimScore() public {\n        // send ERC20 token to contract\n        uint256 amount = calculateReward(msg.sender);\n        if (amount > 0) {\n            IERC20(scoreToken).safeTransferFrom(msg.sender, address(this), amount);\n        }\n\n        lastClaimAt[msg.sender] = block.timestamp;\n\n        emit Claimed(amount);\n    }\n\n    function calculateReward(address target) public view returns (uint256) {\n        uint256 span = block.timestamp.sub(lastClaimAt[target]);\n        if (totalStake == 0) {\n            return 0;\n        }\n        uint256 totalScore = IERC20(scoreToken).balanceOf(address(this));\n        return totalScore.mul(myStake[target]).div(totalStake).mul(span).div(STAKING_DAYS);\n    }\n\n    /* ========== EVENTS ========== */\n\n    event Staked(uint256 amount);\n    event Withdrawn(uint256 amount);\n    event Claimed(uint256 amount);\n}",
  "sourcePath": "/Users/edwin/github/gallery.finance/gallery.finance.smart/contracts/StakingScore.sol",
  "compiler": {
    "name": "solc",
    "version": "0.6.6+commit.6c089d02.Emscripten.clang"
  },
  "schemaVersion": "3.3.0",
  "updatedAt": "2020-10-30T14:14:45.269Z",
  "networkType": "ethereum",
  "devdoc": {
    "methods": {
      "owner()": {
        "details": "Returns the address of the current owner."
      },
      "renounceOwnership()": {
        "details": "Leaves the contract without owner. It will not be possible to call `onlyOwner` functions anymore. Can only be called by the current owner.     * NOTE: Renouncing ownership will leave the contract without an owner, thereby removing any functionality that is only available to the owner."
      },
      "transferOwnership(address)": {
        "details": "Transfers ownership of the contract to a new account (`newOwner`). Can only be called by the current owner."
      }
    }
  },
  "userdoc": {
    "methods": {}
  }
}