{
  "fileName": "StakingRewardsV2.sol",
  "contractName": "StakingRewardsV2",
  "source": "pragma solidity ^0.6.0;\n\nimport \"@openzeppelin/contracts-ethereum-package/contracts/math/Math.sol\";\nimport \"@openzeppelin/contracts-ethereum-package/contracts/math/SafeMath.sol\";\nimport \"@openzeppelin/contracts-ethereum-package/contracts/token/ERC20/SafeERC20.sol\";\nimport \"@openzeppelin/contracts-ethereum-package/contracts/token/ERC20/IERC20.sol\";\nimport \"@openzeppelin/contracts-ethereum-package/contracts/Initializable.sol\";\n\n// Inheritance\nimport \"./interfaces/IStakingRewards.sol\";\nimport \"./interfaces/IUniswapPriceOracle.sol\";\nimport \"./ReentrancyGuardUpgradeSafe.sol\";\nimport \"./PausableUpgradeSafe.sol\";\n\ncontract StakingRewardsV2 is IStakingRewards,\n    Initializable,\n    ReentrancyGuardUpgradeSafe,\n    PausableUpgradeSafe\n{\n    using SafeMath for uint256;\n    using SafeERC20 for IERC20;\n\n    /* ========== CONSTANTS ========== */\n\n    uint256 constant STAKING_DAYS = 14;\n    uint256 constant BURN_RATIO_DAYS = 11;\n    address constant DEAD_ADDRESS = 0x000000000000000000000000000000000000dEaD;\n\n    /* ========== STATE VARIABLES ========== */\n\n    address public rewardsToken;\n    address public stakingToken;\n    address public oracleAddress;\n    uint256 public lastUpdateTime;\n    uint256 public startAt;\n    uint256[STAKING_DAYS] public dailyRewards;\n    uint256[BURN_RATIO_DAYS] public burnRatios;\n    mapping(address => uint256) public lastUpdateAt;\n    mapping(address => uint256) public rewards;\n\n    uint256 private _totalBurned;\n    uint256 private _totalSupply;\n    mapping(address => uint256) private _balances;\n\n    /* ========== CONSTRUCTOR ========== */\n\n    function initialize(\n        address _rewardsToken,\n        address _stakingToken,\n        address _oracleAddress,\n        uint256[STAKING_DAYS] memory _dailyRewards,\n        uint256[BURN_RATIO_DAYS] memory _burnRatios\n    )  public initializer {\n        super.__ReentrancyGuard_init();\n        super.__Pausable_init();\n        rewardsToken = _rewardsToken;\n        stakingToken = _stakingToken;\n        oracleAddress = _oracleAddress;\n        startAt = block.timestamp;\n        dailyRewards = _dailyRewards;\n        burnRatios = _burnRatios;\n    }\n\n    /* ========== VIEWS ========== */\n\n    function dayAt() public view returns (uint256) {\n        return block.timestamp.sub(startAt).div(1 days);\n    }\n\n    function totalBurned() external view returns (uint256) {\n        return _totalBurned;\n    }\n\n    function totalSupply() external view override returns (uint256) {\n        return _totalSupply;\n    }\n\n    function balanceOf(address account) external view override returns (uint256) {\n        return _balances[account];\n    }\n\n    // Not used\n    function lastTimeRewardApplicable() public view override returns (uint256) {\n        return 0;\n    }\n\n    // Not used\n    function rewardPerToken() public view override returns (uint256) {\n        return 0;\n    }\n\n    function earned(address account) public view override returns (uint256) {\n        uint256[] memory _earnedList = _calculateEarned(account);\n        uint256 _totalEarned = 0;\n        for (uint256 i = 0; i < _earnedList.length; i++) {\n            _totalEarned = _totalEarned.add(_earnedList[i]);\n        }\n\n        return _totalEarned;\n   }\n\n    // Not used\n    function getRewardForDuration() external override view returns (uint256) {\n        return 0;\n    }\n\n    function apy() external override view returns (uint256) {\n        uint256 rewardsTokenPrice = price(rewardsToken);\n        uint256 stakingTokenPrice = price(stakingToken);\n        uint256 rewardsTokenAmount = getTotalRewards();\n        uint256 stakeTokenAmount = _totalSupply;\n\n        return (rewardsTokenPrice.mul(rewardsTokenAmount))\n            .div((stakingTokenPrice.mul(stakeTokenAmount)));\n    }\n\n    // Not used\n    function getSteakPercentage() external override view returns (uint256) {\n        return 0;\n    }\n\n    function price(address token) public view returns (uint256) {\n        return IUniswapPriceOracle(oracleAddress).consult(token, 1 ether);\n    }\n\n    function getTotalRewards() public view returns (uint256) {\n        uint256 _count = Math.min(dayAt()+1, STAKING_DAYS);\n        uint256 _totalRewards = 0;\n        for (uint256 i = 0; i < _count; i++) {\n            _totalRewards = _totalRewards.add(dailyRewards[i]);\n        }\n\n        return _totalRewards;\n    }\n\n    function burned(uint256 reward, address account) public view returns (uint256) {\n        uint256 _dayAt = Math.min(\n            block.timestamp.sub(lastUpdateAt[account]).div(1 days),\n            BURN_RATIO_DAYS - 1\n        );\n\n        return reward.mul(burnRatios[_dayAt]).div(1 ether);\n    }\n\n    function _calculateEarned(address account) private view returns (uint256[] memory) {\n        uint256[] memory _earnedList = new uint256[](STAKING_DAYS);\n        if (_totalSupply == 0) {\n            return _earnedList;\n        }\n        uint256 _lastUpdateAt = lastUpdateAt[account] == 0 ? block.timestamp : lastUpdateAt[account];\n        for (uint256 i = 0; i < STAKING_DAYS; i++) {\n            uint256 _endAt = startAt.add(i.mul(1 days)).add(1 days);\n            uint256 _span = 0;\n            if (block.timestamp > _endAt) {\n                if (_lastUpdateAt < _endAt) {\n                    _span = _endAt.sub(_lastUpdateAt);\n                    _lastUpdateAt = _endAt;\n                }\n            } else {\n                if (_lastUpdateAt < block.timestamp) {\n                    _span = block.timestamp.sub(_lastUpdateAt);\n                    _lastUpdateAt = block.timestamp;\n                }\n            }\n            if (_span > 0) {\n                _earnedList[i] = dailyRewards[i]\n                .mul(_balances[account])\n                .div(_totalSupply)\n                .mul(_span)\n                .div(1 days);\n            }\n        }\n\n        return _earnedList;\n    }\n\n    /* ========== MUTATIVE FUNCTIONS ========== */\n\n    function stake(uint256 amount) external override nonReentrant whenNotPaused updateReward {\n        require(amount > 0, \"Cannot stake 0\");\n        require(dayAt() < STAKING_DAYS, \"Cannot stake over 14 days\");\n        _totalSupply = _totalSupply.add(amount);\n        _balances[msg.sender] = _balances[msg.sender].add(amount);\n        IERC20(stakingToken).safeTransferFrom(msg.sender, address(this), amount);\n        emit Staked(msg.sender, amount);\n        lastUpdateAt[msg.sender] = block.timestamp;\n    }\n\n    function withdraw(uint256 amount) public override nonReentrant updateReward {\n        require(amount > 0, \"Cannot withdraw 0\");\n        _totalSupply = _totalSupply.sub(amount);\n        _balances[msg.sender] = _balances[msg.sender].sub(amount);\n        IERC20(stakingToken).safeTransfer(msg.sender, amount);\n        emit Withdrawn(msg.sender, amount);\n        lastUpdateAt[msg.sender] = block.timestamp;\n    }\n\n    function getReward() public override nonReentrant updateReward {\n        uint256 reward = rewards[msg.sender];\n        if (reward > 0) {\n            rewards[msg.sender] = 0;\n            uint256 _burnedReward = burned(reward, msg.sender);\n            uint256 _actualReward = reward.sub(_burnedReward);\n            if (_actualReward > 0) {\n                IERC20(rewardsToken).safeTransfer(msg.sender, _actualReward);\n            }\n            if (_burnedReward > 0) {\n                _totalBurned = _totalBurned.add(_burnedReward);\n                IERC20(rewardsToken).safeTransfer(DEAD_ADDRESS, _burnedReward);\n            }\n        }\n        emit RewardPaid(msg.sender, reward);\n        lastUpdateAt[msg.sender] = block.timestamp;\n    }\n\n    function exit() external override {\n        withdraw(_balances[msg.sender]);\n        getReward();\n    }\n\n    /* ========== MODIFIERS ========== */\n\n    modifier updateReward() {\n        address _account = msg.sender;\n        uint256[] memory _earnedList = _calculateEarned(_account);\n        for (uint256 i = 0; i < _earnedList.length; i++) {\n            uint256 _earned = _earnedList[i];\n            if (_earned > 0) {\n                rewards[_account] = rewards[_account].add(_earned);\n                dailyRewards[i] = dailyRewards[i].sub(_earned);\n            }\n        }\n        _;\n    }\n\n    /* ========== EVENTS ========== */\n\n    event Staked(address indexed user, uint256 amount);\n    event Withdrawn(address indexed user, uint256 amount);\n    event RewardPaid(address indexed user, uint256 reward);\n}",
  "sourcePath": "contracts/StakingRewardsV2.sol",
  "abi": [
    {
      "anonymous": false,
      "inputs": [
        {
          "indexed": false,
          "internalType": "address",
          "name": "account",
          "type": "address"
        }
      ],
      "name": "Paused",
      "type": "event"
    },
    {
      "anonymous": false,
      "inputs": [
        {
          "indexed": true,
          "internalType": "address",
          "name": "user",
          "type": "address"
        },
        {
          "indexed": false,
          "internalType": "uint256",
          "name": "reward",
          "type": "uint256"
        }
      ],
      "name": "RewardPaid",
      "type": "event"
    },
    {
      "anonymous": false,
      "inputs": [
        {
          "indexed": true,
          "internalType": "address",
          "name": "user",
          "type": "address"
        },
        {
          "indexed": false,
          "internalType": "uint256",
          "name": "amount",
          "type": "uint256"
        }
      ],
      "name": "Staked",
      "type": "event"
    },
    {
      "anonymous": false,
      "inputs": [
        {
          "indexed": false,
          "internalType": "address",
          "name": "account",
          "type": "address"
        }
      ],
      "name": "Unpaused",
      "type": "event"
    },
    {
      "anonymous": false,
      "inputs": [
        {
          "indexed": true,
          "internalType": "address",
          "name": "user",
          "type": "address"
        },
        {
          "indexed": false,
          "internalType": "uint256",
          "name": "amount",
          "type": "uint256"
        }
      ],
      "name": "Withdrawn",
      "type": "event"
    },
    {
      "inputs": [],
      "name": "apy",
      "outputs": [
        {
          "internalType": "uint256",
          "name": "",
          "type": "uint256"
        }
      ],
      "stateMutability": "view",
      "type": "function"
    },
    {
      "inputs": [
        {
          "internalType": "address",
          "name": "account",
          "type": "address"
        }
      ],
      "name": "balanceOf",
      "outputs": [
        {
          "internalType": "uint256",
          "name": "",
          "type": "uint256"
        }
      ],
      "stateMutability": "view",
      "type": "function"
    },
    {
      "inputs": [
        {
          "internalType": "uint256",
          "name": "",
          "type": "uint256"
        }
      ],
      "name": "burnRatios",
      "outputs": [
        {
          "internalType": "uint256",
          "name": "",
          "type": "uint256"
        }
      ],
      "stateMutability": "view",
      "type": "function"
    },
    {
      "inputs": [
        {
          "internalType": "uint256",
          "name": "reward",
          "type": "uint256"
        },
        {
          "internalType": "address",
          "name": "account",
          "type": "address"
        }
      ],
      "name": "burned",
      "outputs": [
        {
          "internalType": "uint256",
          "name": "",
          "type": "uint256"
        }
      ],
      "stateMutability": "view",
      "type": "function"
    },
    {
      "inputs": [
        {
          "internalType": "uint256",
          "name": "",
          "type": "uint256"
        }
      ],
      "name": "dailyRewards",
      "outputs": [
        {
          "internalType": "uint256",
          "name": "",
          "type": "uint256"
        }
      ],
      "stateMutability": "view",
      "type": "function"
    },
    {
      "inputs": [],
      "name": "dayAt",
      "outputs": [
        {
          "internalType": "uint256",
          "name": "",
          "type": "uint256"
        }
      ],
      "stateMutability": "view",
      "type": "function"
    },
    {
      "inputs": [
        {
          "internalType": "address",
          "name": "account",
          "type": "address"
        }
      ],
      "name": "earned",
      "outputs": [
        {
          "internalType": "uint256",
          "name": "",
          "type": "uint256"
        }
      ],
      "stateMutability": "view",
      "type": "function"
    },
    {
      "inputs": [],
      "name": "exit",
      "outputs": [],
      "stateMutability": "nonpayable",
      "type": "function"
    },
    {
      "inputs": [],
      "name": "getReward",
      "outputs": [],
      "stateMutability": "nonpayable",
      "type": "function"
    },
    {
      "inputs": [],
      "name": "getRewardForDuration",
      "outputs": [
        {
          "internalType": "uint256",
          "name": "",
          "type": "uint256"
        }
      ],
      "stateMutability": "view",
      "type": "function"
    },
    {
      "inputs": [],
      "name": "getSteakPercentage",
      "outputs": [
        {
          "internalType": "uint256",
          "name": "",
          "type": "uint256"
        }
      ],
      "stateMutability": "view",
      "type": "function"
    },
    {
      "inputs": [],
      "name": "getTotalRewards",
      "outputs": [
        {
          "internalType": "uint256",
          "name": "",
          "type": "uint256"
        }
      ],
      "stateMutability": "view",
      "type": "function"
    },
    {
      "inputs": [
        {
          "internalType": "address",
          "name": "_rewardsToken",
          "type": "address"
        },
        {
          "internalType": "address",
          "name": "_stakingToken",
          "type": "address"
        },
        {
          "internalType": "address",
          "name": "_oracleAddress",
          "type": "address"
        },
        {
          "internalType": "uint256[14]",
          "name": "_dailyRewards",
          "type": "uint256[14]"
        },
        {
          "internalType": "uint256[11]",
          "name": "_burnRatios",
          "type": "uint256[11]"
        }
      ],
      "name": "initialize",
      "outputs": [],
      "stateMutability": "nonpayable",
      "type": "function"
    },
    {
      "inputs": [],
      "name": "lastTimeRewardApplicable",
      "outputs": [
        {
          "internalType": "uint256",
          "name": "",
          "type": "uint256"
        }
      ],
      "stateMutability": "view",
      "type": "function"
    },
    {
      "inputs": [
        {
          "internalType": "address",
          "name": "",
          "type": "address"
        }
      ],
      "name": "lastUpdateAt",
      "outputs": [
        {
          "internalType": "uint256",
          "name": "",
          "type": "uint256"
        }
      ],
      "stateMutability": "view",
      "type": "function"
    },
    {
      "inputs": [],
      "name": "lastUpdateTime",
      "outputs": [
        {
          "internalType": "uint256",
          "name": "",
          "type": "uint256"
        }
      ],
      "stateMutability": "view",
      "type": "function"
    },
    {
      "inputs": [],
      "name": "oracleAddress",
      "outputs": [
        {
          "internalType": "address",
          "name": "",
          "type": "address"
        }
      ],
      "stateMutability": "view",
      "type": "function"
    },
    {
      "inputs": [],
      "name": "paused",
      "outputs": [
        {
          "internalType": "bool",
          "name": "",
          "type": "bool"
        }
      ],
      "stateMutability": "view",
      "type": "function"
    },
    {
      "inputs": [
        {
          "internalType": "address",
          "name": "token",
          "type": "address"
        }
      ],
      "name": "price",
      "outputs": [
        {
          "internalType": "uint256",
          "name": "",
          "type": "uint256"
        }
      ],
      "stateMutability": "view",
      "type": "function"
    },
    {
      "inputs": [],
      "name": "rewardPerToken",
      "outputs": [
        {
          "internalType": "uint256",
          "name": "",
          "type": "uint256"
        }
      ],
      "stateMutability": "view",
      "type": "function"
    },
    {
      "inputs": [
        {
          "internalType": "address",
          "name": "",
          "type": "address"
        }
      ],
      "name": "rewards",
      "outputs": [
        {
          "internalType": "uint256",
          "name": "",
          "type": "uint256"
        }
      ],
      "stateMutability": "view",
      "type": "function"
    },
    {
      "inputs": [],
      "name": "rewardsToken",
      "outputs": [
        {
          "internalType": "address",
          "name": "",
          "type": "address"
        }
      ],
      "stateMutability": "view",
      "type": "function"
    },
    {
      "inputs": [
        {
          "internalType": "uint256",
          "name": "amount",
          "type": "uint256"
        }
      ],
      "name": "stake",
      "outputs": [],
      "stateMutability": "nonpayable",
      "type": "function"
    },
    {
      "inputs": [],
      "name": "stakingToken",
      "outputs": [
        {
          "internalType": "address",
          "name": "",
          "type": "address"
        }
      ],
      "stateMutability": "view",
      "type": "function"
    },
    {
      "inputs": [],
      "name": "startAt",
      "outputs": [
        {
          "internalType": "uint256",
          "name": "",
          "type": "uint256"
        }
      ],
      "stateMutability": "view",
      "type": "function"
    },
    {
      "inputs": [],
      "name": "totalBurned",
      "outputs": [
        {
          "internalType": "uint256",
          "name": "",
          "type": "uint256"
        }
      ],
      "stateMutability": "view",
      "type": "function"
    },
    {
      "inputs": [],
      "name": "totalSupply",
      "outputs": [
        {
          "internalType": "uint256",
          "name": "",
          "type": "uint256"
        }
      ],
      "stateMutability": "view",
      "type": "function"
    },
    {
      "inputs": [
        {
          "internalType": "uint256",
          "name": "amount",
          "type": "uint256"
        }
      ],
      "name": "withdraw",
      "outputs": [],
      "stateMutability": "nonpayable",
      "type": "function"
    }
  ],
  "bytecode": "0x608060405234801561001057600080fd5b50612799806100206000396000f3fe608060405234801561001057600080fd5b50600436106101c35760003560e01c806380faa57d116100f9578063cd3daf9d11610097578063d89135cd11610071578063d89135cd146106da578063df7efb89146106f8578063e627f2db14610801578063e9fad8ee1461081f576101c3565b8063cd3daf9d14610630578063cf09ee411461064e578063d1af0c7d14610690576101c3565b8063aea91078116100d3578063aea910781461055a578063b203dc60146105b2578063c7446565146105f4578063c8f33c9114610612576101c3565b806380faa57d146104c4578063a694fc3a146104e2578063a89ae4ba14610510576101c3565b80633d18b912116101665780635c975abb116101405780635c975abb146103e2578063613dd9c21461040457806370a082311461042257806372f702f31461047a576101c3565b80633d18b9121461031e5780633edcb8a0146103285780635668c2e81461038a576101c3565b80631c1f78eb116101a25780631c1f78eb146102965780632e1a7d4d146102b45780633484598c146102e25780633bcfc4b814610300576101c3565b80628cc262146101c85780630700037d1461022057806318160ddd14610278575b600080fd5b61020a600480360360208110156101de57600080fd5b81019080803573ffffffffffffffffffffffffffffffffffffffff169060200190929190505050610829565b6040518082815260200191505060405180910390f35b6102626004803603602081101561023657600080fd5b81019080803573ffffffffffffffffffffffffffffffffffffffff16906020019092919050505061088c565b6040518082815260200191505060405180910390f35b6102806108a4565b6040518082815260200191505060405180910390f35b61029e6108ae565b6040518082815260200191505060405180910390f35b6102e0600480360360208110156102ca57600080fd5b81019080803590602001909291905050506108b6565b005b6102ea610c92565b6040518082815260200191505060405180910390f35b610308610c9a565b6040518082815260200191505060405180910390f35b610326610d4c565b005b6103746004803603604081101561033e57600080fd5b8101908080359060200190929190803573ffffffffffffffffffffffffffffffffffffffff16906020019092919050505061113a565b6040518082815260200191505060405180910390f35b6103cc600480360360208110156103a057600080fd5b81019080803573ffffffffffffffffffffffffffffffffffffffff1690602001909291905050506111f7565b6040518082815260200191505060405180910390f35b6103ea61120f565b604051808215151515815260200191505060405180910390f35b61040c611226565b6040518082815260200191505060405180910390f35b6104646004803603602081101561043857600080fd5b81019080803573ffffffffffffffffffffffffffffffffffffffff169060200190929190505050611257565b6040518082815260200191505060405180910390f35b6104826112a0565b604051808273ffffffffffffffffffffffffffffffffffffffff1673ffffffffffffffffffffffffffffffffffffffff16815260200191505060405180910390f35b6104cc6112c6565b6040518082815260200191505060405180910390f35b61050e600480360360208110156104f857600080fd5b81019080803590602001909291905050506112ce565b005b6105186117ac565b604051808273ffffffffffffffffffffffffffffffffffffffff1673ffffffffffffffffffffffffffffffffffffffff16815260200191505060405180910390f35b61059c6004803603602081101561057057600080fd5b81019080803573ffffffffffffffffffffffffffffffffffffffff1690602001909291905050506117d2565b6040518082815260200191505060405180910390f35b6105de600480360360208110156105c857600080fd5b81019080803590602001909291905050506118c5565b6040518082815260200191505060405180910390f35b6105fc6118dd565b6040518082815260200191505060405180910390f35b61061a6118e3565b6040518082815260200191505060405180910390f35b6106386118e9565b6040518082815260200191505060405180910390f35b61067a6004803603602081101561066457600080fd5b81019080803590602001909291905050506118f1565b6040518082815260200191505060405180910390f35b610698611909565b604051808273ffffffffffffffffffffffffffffffffffffffff1673ffffffffffffffffffffffffffffffffffffffff16815260200191505060405180910390f35b6106e261192f565b6040518082815260200191505060405180910390f35b6107ff600480360361038081101561070f57600080fd5b81019080803573ffffffffffffffffffffffffffffffffffffffff169060200190929190803573ffffffffffffffffffffffffffffffffffffffff169060200190929190803573ffffffffffffffffffffffffffffffffffffffff169060200190929190806101c00190600e806020026040519081016040528092919082600e60200280828437600081840152601f19601f8201169050808301925050505050509192919290806101600190600b806020026040519081016040528092919082600b60200280828437600081840152601f19601f8201169050808301925050505050509192919290505050611939565b005b610809611b3b565b6040518082815260200191505060405180910390f35b610827611ba1565b005b6000606061083683611bf3565b9050600080905060008090505b82518110156108815761087283828151811061085b57fe5b602002602001015183611e6490919063ffffffff16565b91508080600101915050610843565b508092505050919050565b60b66020528060005260406000206000915090505481565b600060b854905090565b600080905090565b603360009054906101000a900460ff16610938576040517f08c379a000000000000000000000000000000000000000000000000000000000815260040180806020018281038252601f8152602001807f5265656e7472616e637947756172643a207265656e7472616e742063616c6c0081525060200191505060405180910390fd5b6000603360006101000a81548160ff0219169083151502179055506000339050606061096382611bf3565b905060008090505b8151811015610a6c57600082828151811061098257fe5b602002602001015190506000811115610a5e576109e78160b660008773ffffffffffffffffffffffffffffffffffffffff1673ffffffffffffffffffffffffffffffffffffffff16815260200190815260200160002054611e6490919063ffffffff16565b60b660008673ffffffffffffffffffffffffffffffffffffffff1673ffffffffffffffffffffffffffffffffffffffff16815260200190815260200160002081905550610a4b81609c84600e8110610a3b57fe5b0154611eec90919063ffffffff16565b609c83600e8110610a5857fe5b01819055505b50808060010191505061096b565b5060008311610ae3576040517f08c379a00000000000000000000000000000000000000000000000000000000081526004018080602001828103825260118152602001807f43616e6e6f74207769746864726177203000000000000000000000000000000081525060200191505060405180910390fd5b610af88360b854611eec90919063ffffffff16565b60b881905550610b508360b960003373ffffffffffffffffffffffffffffffffffffffff1673ffffffffffffffffffffffffffffffffffffffff16815260200190815260200160002054611eec90919063ffffffff16565b60b960003373ffffffffffffffffffffffffffffffffffffffff1673ffffffffffffffffffffffffffffffffffffffff16815260200190815260200160002081905550610be03384609860009054906101000a900473ffffffffffffffffffffffffffffffffffffffff1673ffffffffffffffffffffffffffffffffffffffff16611f369092919063ffffffff16565b3373ffffffffffffffffffffffffffffffffffffffff167f7084f5476618d8e60b11ef0d7d3f06914655adb8793e28ff7f018d4c76d505d5846040518082815260200191505060405180910390a24260b560003373ffffffffffffffffffffffffffffffffffffffff1673ffffffffffffffffffffffffffffffffffffffff1681526020019081526020016000208190555050506001603360006101000a81548160ff02191690831515021790555050565b600080905090565b600080610cc8609760009054906101000a900473ffffffffffffffffffffffffffffffffffffffff166117d2565b90506000610cf7609860009054906101000a900473ffffffffffffffffffffffffffffffffffffffff166117d2565b90506000610d03611b3b565b9050600060b8549050610d43610d228285611fee90919063ffffffff16565b610d358487611fee90919063ffffffff16565b61207490919063ffffffff16565b94505050505090565b603360009054906101000a900460ff16610dce576040517f08c379a000000000000000000000000000000000000000000000000000000000815260040180806020018281038252601f8152602001807f5265656e7472616e637947756172643a207265656e7472616e742063616c6c0081525060200191505060405180910390fd5b6000603360006101000a81548160ff02191690831515021790555060003390506060610df982611bf3565b905060008090505b8151811015610f02576000828281518110610e1857fe5b602002602001015190506000811115610ef457610e7d8160b660008773ffffffffffffffffffffffffffffffffffffffff1673ffffffffffffffffffffffffffffffffffffffff16815260200190815260200160002054611e6490919063ffffffff16565b60b660008673ffffffffffffffffffffffffffffffffffffffff1673ffffffffffffffffffffffffffffffffffffffff16815260200190815260200160002081905550610ee181609c84600e8110610ed157fe5b0154611eec90919063ffffffff16565b609c83600e8110610eee57fe5b01819055505b508080600101915050610e01565b50600060b660003373ffffffffffffffffffffffffffffffffffffffff1673ffffffffffffffffffffffffffffffffffffffff168152602001908152602001600020549050600081111561108857600060b660003373ffffffffffffffffffffffffffffffffffffffff1673ffffffffffffffffffffffffffffffffffffffff168152602001908152602001600020819055506000610fa1823361113a565b90506000610fb88284611eec90919063ffffffff16565b90506000811115611011576110103382609760009054906101000a900473ffffffffffffffffffffffffffffffffffffffff1673ffffffffffffffffffffffffffffffffffffffff16611f369092919063ffffffff16565b5b60008211156110855761102f8260b754611e6490919063ffffffff16565b60b78190555061108461dead83609760009054906101000a900473ffffffffffffffffffffffffffffffffffffffff1673ffffffffffffffffffffffffffffffffffffffff16611f369092919063ffffffff16565b5b50505b3373ffffffffffffffffffffffffffffffffffffffff167fe2403640ba68fed3a2f88b7557551d1993f84b99bb10ff833f0cf8db0c5e0486826040518082815260200191505060405180910390a24260b560003373ffffffffffffffffffffffffffffffffffffffff1673ffffffffffffffffffffffffffffffffffffffff168152602001908152602001600020819055505050506001603360006101000a81548160ff021916908315150217905550565b6000806111b16111a76201518061119960b560008873ffffffffffffffffffffffffffffffffffffffff1673ffffffffffffffffffffffffffffffffffffffff1681526020019081526020016000205442611eec90919063ffffffff16565b61207490919063ffffffff16565b6001600b036120be565b90506111ee670de0b6b3a76400006111e060aa84600b81106111cf57fe5b015487611fee90919063ffffffff16565b61207490919063ffffffff16565b91505092915050565b60b56020528060005260406000206000915090505481565b6000606560009054906101000a900460ff16905090565b600061125262015180611244609b5442611eec90919063ffffffff16565b61207490919063ffffffff16565b905090565b600060b960008373ffffffffffffffffffffffffffffffffffffffff1673ffffffffffffffffffffffffffffffffffffffff168152602001908152602001600020549050919050565b609860009054906101000a900473ffffffffffffffffffffffffffffffffffffffff1681565b600080905090565b603360009054906101000a900460ff16611350576040517f08c379a000000000000000000000000000000000000000000000000000000000815260040180806020018281038252601f8152602001807f5265656e7472616e637947756172643a207265656e7472616e742063616c6c0081525060200191505060405180910390fd5b6000603360006101000a81548160ff021916908315150217905550606560009054906101000a900460ff16156113ee576040517f08c379a00000000000000000000000000000000000000000000000000000000081526004018080602001828103825260108152602001807f5061757361626c653a207061757365640000000000000000000000000000000081525060200191505060405180910390fd5b600033905060606113fe82611bf3565b905060008090505b815181101561150757600082828151811061141d57fe5b6020026020010151905060008111156114f9576114828160b660008773ffffffffffffffffffffffffffffffffffffffff1673ffffffffffffffffffffffffffffffffffffffff16815260200190815260200160002054611e6490919063ffffffff16565b60b660008673ffffffffffffffffffffffffffffffffffffffff1673ffffffffffffffffffffffffffffffffffffffff168152602001908152602001600020819055506114e681609c84600e81106114d657fe5b0154611eec90919063ffffffff16565b609c83600e81106114f357fe5b01819055505b508080600101915050611406565b506000831161157e576040517f08c379a000000000000000000000000000000000000000000000000000000000815260040180806020018281038252600e8152602001807f43616e6e6f74207374616b65203000000000000000000000000000000000000081525060200191505060405180910390fd5b600e611588611226565b106115fb576040517f08c379a00000000000000000000000000000000000000000000000000000000081526004018080602001828103825260198152602001807f43616e6e6f74207374616b65206f76657220313420646179730000000000000081525060200191505060405180910390fd5b6116108360b854611e6490919063ffffffff16565b60b8819055506116688360b960003373ffffffffffffffffffffffffffffffffffffffff1673ffffffffffffffffffffffffffffffffffffffff16815260200190815260200160002054611e6490919063ffffffff16565b60b960003373ffffffffffffffffffffffffffffffffffffffff1673ffffffffffffffffffffffffffffffffffffffff168152602001908152602001600020819055506116fa333085609860009054906101000a900473ffffffffffffffffffffffffffffffffffffffff1673ffffffffffffffffffffffffffffffffffffffff166120d7909392919063ffffffff16565b3373ffffffffffffffffffffffffffffffffffffffff167f9e71bc8eea02a63969f509818f2dafb9254532904319f9dbda79b67bd34a5f3d846040518082815260200191505060405180910390a24260b560003373ffffffffffffffffffffffffffffffffffffffff1673ffffffffffffffffffffffffffffffffffffffff1681526020019081526020016000208190555050506001603360006101000a81548160ff02191690831515021790555050565b609960009054906101000a900473ffffffffffffffffffffffffffffffffffffffff1681565b6000609960009054906101000a900473ffffffffffffffffffffffffffffffffffffffff1673ffffffffffffffffffffffffffffffffffffffff16633ddac95383670de0b6b3a76400006040518363ffffffff1660e01b8152600401808373ffffffffffffffffffffffffffffffffffffffff1673ffffffffffffffffffffffffffffffffffffffff1681526020018281526020019250505060206040518083038186803b15801561188357600080fd5b505afa158015611897573d6000803e3d6000fd5b505050506040513d60208110156118ad57600080fd5b81019080805190602001909291905050509050919050565b609c81600e81106118d257fe5b016000915090505481565b609b5481565b609a5481565b600080905090565b60aa81600b81106118fe57fe5b016000915090505481565b609760009054906101000a900473ffffffffffffffffffffffffffffffffffffffff1681565b600060b754905090565b600060019054906101000a900460ff168061195857506119576121c4565b5b8061196f57506000809054906101000a900460ff16155b6119c4576040517f08c379a000000000000000000000000000000000000000000000000000000000815260040180806020018281038252602e81526020018061270c602e913960400191505060405180910390fd5b60008060019054906101000a900460ff161590508015611a14576001600060016101000a81548160ff02191690831515021790555060016000806101000a81548160ff0219169083151502179055505b611a1c6121db565b611a246121e5565b85609760006101000a81548173ffffffffffffffffffffffffffffffffffffffff021916908373ffffffffffffffffffffffffffffffffffffffff16021790555084609860006101000a81548173ffffffffffffffffffffffffffffffffffffffff021916908373ffffffffffffffffffffffffffffffffffffffff16021790555083609960006101000a81548173ffffffffffffffffffffffffffffffffffffffff021916908373ffffffffffffffffffffffffffffffffffffffff16021790555042609b8190555082609c90600e611aff929190612645565b508160aa90600b611b11929190612685565b508015611b335760008060016101000a81548160ff0219169083151502179055505b505050505050565b600080611b536001611b4b611226565b01600e6120be565b9050600080905060008090505b82811015611b9857611b89609c82600e8110611b7857fe5b015483611e6490919063ffffffff16565b91508080600101915050611b60565b50809250505090565b611be960b960003373ffffffffffffffffffffffffffffffffffffffff1673ffffffffffffffffffffffffffffffffffffffff168152602001908152602001600020546108b6565b611bf1610d4c565b565b606080600e67ffffffffffffffff81118015611c0e57600080fd5b50604051908082528060200260200182016040528015611c3d5781602001602082028036833780820191505090505b509050600060b8541415611c545780915050611e5f565b60008060b560008673ffffffffffffffffffffffffffffffffffffffff1673ffffffffffffffffffffffffffffffffffffffff1681526020019081526020016000205414611ce15760b560008573ffffffffffffffffffffffffffffffffffffffff1673ffffffffffffffffffffffffffffffffffffffff16815260200190815260200160002054611ce3565b425b905060008090505b600e811015611e58576000611d3562015180611d27611d166201518086611fee90919063ffffffff16565b609b54611e6490919063ffffffff16565b611e6490919063ffffffff16565b9050600080905081421115611d6a5781841015611d6557611d5f8483611eec90919063ffffffff16565b90508193505b611d8c565b42841015611d8b57611d858442611eec90919063ffffffff16565b90504293505b5b6000811115611e4957611e3062015180611e2283611e1460b854611e0660b960008f73ffffffffffffffffffffffffffffffffffffffff1673ffffffffffffffffffffffffffffffffffffffff16815260200190815260200160002054609c8b600e8110611df657fe5b0154611fee90919063ffffffff16565b61207490919063ffffffff16565b611fee90919063ffffffff16565b61207490919063ffffffff16565b858481518110611e3c57fe5b6020026020010181815250505b50508080600101915050611ceb565b5081925050505b919050565b600080828401905083811015611ee2576040517f08c379a000000000000000000000000000000000000000000000000000000000815260040180806020018281038252601b8152602001807f536166654d6174683a206164646974696f6e206f766572666c6f77000000000081525060200191505060405180910390fd5b8091505092915050565b6000611f2e83836040518060400160405280601e81526020017f536166654d6174683a207375627472616374696f6e206f766572666c6f7700008152506121ef565b905092915050565b611fe98363a9059cbb60e01b8484604051602401808373ffffffffffffffffffffffffffffffffffffffff1673ffffffffffffffffffffffffffffffffffffffff16815260200182815260200192505050604051602081830303815290604052907bffffffffffffffffffffffffffffffffffffffffffffffffffffffff19166020820180517bffffffffffffffffffffffffffffffffffffffffffffffffffffffff83818316178352505050506122af565b505050565b600080831415612001576000905061206e565b600082840290508284828161201257fe5b0414612069576040517f08c379a00000000000000000000000000000000000000000000000000000000081526004018080602001828103825260218152602001806126eb6021913960400191505060405180910390fd5b809150505b92915050565b60006120b683836040518060400160405280601a81526020017f536166654d6174683a206469766973696f6e206279207a65726f0000000000008152506124fa565b905092915050565b60008183106120cd57816120cf565b825b905092915050565b6121be846323b872dd60e01b858585604051602401808473ffffffffffffffffffffffffffffffffffffffff1673ffffffffffffffffffffffffffffffffffffffff1681526020018373ffffffffffffffffffffffffffffffffffffffff1673ffffffffffffffffffffffffffffffffffffffff1681526020018281526020019350505050604051602081830303815290604052907bffffffffffffffffffffffffffffffffffffffffffffffffffffffff19166020820180517bffffffffffffffffffffffffffffffffffffffffffffffffffffffff83818316178352505050506122af565b50505050565b6000803090506000813b9050600081149250505090565b6121e36125c0565b565b6121ed6125dd565b565b600083831115829061229c576040517f08c379a00000000000000000000000000000000000000000000000000000000081526004018080602001828103825283818151815260200191508051906020019080838360005b83811015612261578082015181840152602081019050612246565b50505050905090810190601f16801561228e5780820380516001836020036101000a031916815260200191505b509250505060405180910390fd5b5060008385039050809150509392505050565b6122ce8273ffffffffffffffffffffffffffffffffffffffff166125fa565b612340576040517f08c379a000000000000000000000000000000000000000000000000000000000815260040180806020018281038252601f8152602001807f5361666545524332303a2063616c6c20746f206e6f6e2d636f6e74726163740081525060200191505060405180910390fd5b600060608373ffffffffffffffffffffffffffffffffffffffff16836040518082805190602001908083835b6020831061238f578051825260208201915060208101905060208303925061236c565b6001836020036101000a0380198251168184511680821785525050505050509050019150506000604051808303816000865af19150503d80600081146123f1576040519150601f19603f3d011682016040523d82523d6000602084013e6123f6565b606091505b50915091508161246e576040517f08c379a00000000000000000000000000000000000000000000000000000000081526004018080602001828103825260208152602001807f5361666545524332303a206c6f772d6c6576656c2063616c6c206661696c656481525060200191505060405180910390fd5b6000815111156124f45780806020019051602081101561248d57600080fd5b81019080805190602001909291905050506124f3576040517f08c379a000000000000000000000000000000000000000000000000000000000815260040180806020018281038252602a81526020018061273a602a913960400191505060405180910390fd5b5b50505050565b600080831182906125a6576040517f08c379a00000000000000000000000000000000000000000000000000000000081526004018080602001828103825283818151815260200191508051906020019080838360005b8381101561256b578082015181840152602081019050612550565b50505050905090810190601f1680156125985780820380516001836020036101000a031916815260200191505b509250505060405180910390fd5b5060008385816125b257fe5b049050809150509392505050565b6001603360006101000a81548160ff021916908315150217905550565b6000606560006101000a81548160ff021916908315150217905550565b60008060007fc5d2460186f7233c927e7db2dcc703c0e500b653ca82273b7bfad8045d85a47060001b9050833f915080821415801561263c57506000801b8214155b92505050919050565b82600e8101928215612674579160200282015b82811115612673578251825591602001919060010190612658565b5b50905061268191906126c5565b5090565b82600b81019282156126b4579160200282015b828111156126b3578251825591602001919060010190612698565b5b5090506126c191906126c5565b5090565b6126e791905b808211156126e35760008160009055506001016126cb565b5090565b9056fe536166654d6174683a206d756c7469706c69636174696f6e206f766572666c6f77436f6e747261637420696e7374616e63652068617320616c7265616479206265656e20696e697469616c697a65645361666545524332303a204552433230206f7065726174696f6e20646964206e6f742073756363656564a264697066735822122009df67a1588c864547a2a2a46bd02a2aed4b856b2bb995b9cc89eb09f1c33d3264736f6c63430006060033",
  "compiler": {
    "name": "solc",
    "version": "0.6.6+commit.6c089d02.Emscripten.clang",
    "optimizer": {
      "enabled": false,
      "runs": 200
    },
    "evmVersion": "petersburg"
  }
}